:020000040800F2
:10000000B0080020F51E0008CD1E0008CF1E000815
:10001000D11E0008D31E0008D51E000800000000F5
:10002000000000000000000000000000D71E0008D3
:10003000D91E000800000000DB1E0008DD1E0008BD
:100040001D1F0008211F0008251F0008291F000888
:100050002D1F0008311F0008351F0008391F000838
:100060003D1F0008411F0008451F0008491F0008E8
:100070004D1F0008511F0008551F0008591F000898
:100080005D1F0008611F0008651F0008691F000848
:100090006D1F0008711F0008751F0008791F0008F8
:1000A0007D1F0008811F0008851F0008891F0008A8
:1000B0008D1F0008911F0008951F0008991F000858
:1000C0009D1F0008A11F0008A51F0008A91F000808
:1000D000AD1F0008B11F0008B51F0008B91F0008B8
:1000E000BD1F0008C11F0008C51F0008C91F000868
:1000F000CD1F0008D11F0008D51F0008D91F000818
:10010000DD1F0008E11F0008E51F0008E91F0008C7
:10011000ED1F0008F11F0008F51F0008F91F000877
:10012000FD1F000801200008052000080920000824
:100130000D200008112000081520000819200008D3
:100140001D20000821200008252000082920000883
:100150002D20000831200008352000083920000833
:100160003D200008412000084520000849200008E3
:100170004D20000851200008552000085920000893
:100180005D20000861200008652000086920000843
:100190006D200008712000087520000879200008F3
:1001A0007D200008812000088520000889200008A3
:1001B0008D20000891200008952000089920000853
:1001C0009D200008A12000087CB50400012600F055
:1001D000FBFB0500002C01D101205AE0206A4028D9
:1001E00094F84000012801D1022052E0012084F857
:1001F000400094F8410000280AD1002084F8400013
:10020000200000F0E0FB41F28831200000F0B4FA59
:100210002068006830F4F850A168491E50EA0120B7
:1002200021680860A06C00902B0000222021200093
:1002300000F0A4FA0100C9B2002926D121680A6899
:1002400014490A40616852EA0162E1680A43E169BF
:100250000A43216A0A4321680A6021684A680E49F4
:100260000A40216952EA014261690A43A1690A43CD
:1002700021684A602168096851F001012268116013
:1002800000216164012184F84110002184F84010AC
:10029000C0B276BD2FFFFF00FEF8E0FF10B50400EE
:1002A000002C01D101201AE094F84000012801D16E
:1002B000022014E0012084F8400020680068400813
:1002C000400021680860200000F084FB002060648A
:1002D000002084F84100002084F84000002010BD78
:1002E0002DE9F84304000D0016005FF0010800F04E
:1002F0006BFB0700A8690028E8690028286A002825
:1003000094F84000012801D102203DE0012084F84A
:10031000400094F8410001282FD1002060640220A1
:1003200084F8410000963B0000222021200000F0CC
:1003300025FA81464846C0B2002820D10022290073
:10034000200000F044FA686A002812D100963B00B1
:1003500001220221200000F011FA81464846C0B275
:1003600000280CD102202168C860012084F84100D7
:1003700005E0012084F8410001E05FF0020900205F
:1003800084F840004846C0B2BDE8F2832DE9F84346
:1003900005000C001600002700F016FB80462868B8
:1003A00010F1200995F84000012801D102205EE0FB
:1003B000012085F8400095F84100012850D1002027
:1003C0006864002C45D0122085F841002868006937
:1003D000401CE86228680069401CA8626C622868BA
:1003E000406930F0406029684861E86A002815D00B
:1003F0000096434601220421280000F0BFF90700BF
:100400003800C0B2002809D1686A411C69620078CE
:1004100089F80000E86A401EE862E6E73800C0B2EA
:10042000002812D10096434601220221280000F044
:10043000A5F907003800C0B2002806D102202968BB
:10044000C860280000F04CF90700012085F8410041
:1004500008E0686C50F0080068640120070001E0C3
:1004600002200700002085F840003800C0B2BDE837
:10047000F2832DE9FC4705000C001600002700F070
:10048000A3FA80462868D0F81890286810F1200A4E
:1004900095F84000012801D1022063E0012085F891
:1004A000400095F84100012855D100206864002CD7
:1004B0004AD0222085F8410028680069401CA863C2
:1004C00028680069401C68632C632868406930F024
:1004D000406050F08060296848612868C0F8189032
:1004E000A86B002815D0009643460122062128005B
:1004F00000F044F907003800C0B2002809D1286B89
:10050000411C29639AF800100170A86B401EA86373
:10051000E6E73800C0B2002812D100964346012217
:100520000221280000F02AF907003800C0B2002894
:1005300006D102202968C860280000F0D1F8070021
:10054000012085F8410008E0686C50F008006864FC
:100550000120070001E002200700002085F840008C
:100560003800C0B2BDE8F6872DE9FC4704000D0055
:1005700016001F005FF0010800F026FA8146A86906
:100580000028E8690028286A002894F8400001281B
:1005900001D102204CE0012084F8400094F8410091
:1005A00001283ED100206064422084F84100009779
:1005B0004B4600222021200000F0E0F88246504601
:1005C000C0B200282FD13068216888627068216825
:1005D0004862B0682168C8622068016831F440014F
:1005E0003069014351F4800120680160F068A8621D
:1005F0005FF000622900200000F0E9F800974B4608
:1006000001220821200000F0B9F882465046C0B20D
:10061000002808D108202168C860012084F8410022
:1006200001E05FF0020A002084F840005046C0B2AA
:10063000BDE8F6872DE9F84304000D0016005FF0D1
:10064000010800F0C1F90700A8690028E86900283E
:10065000286A002894F84000012801D102203DE0DA
:10066000012084F8400094F8410001282FD1002097
:100670006064822084F84100A06C00903B0000225E
:100680002021200000F07AF881464846C0B20028B8
:100690001FD12068016831F00801706801432068AB
:1006A0000160706808280BD1306821680863102049
:1006B0002168C8602068006850F4801021680860D4
:1006C0005FF040622900200000F081F801E05FF057
:1006D0000209002084F840004846C0B2BDE8F28319
:1006E0007CB50400002500F06FF9060094F8410085
:1006F00080073ED5002084F840002068006840074D
:1007000011D52068006830F0040021680860E06BB3
:1007100000F07EF905002800C0B2002803D0606C0C
:1007200050F0040060642068006850F00200216806
:100730000860A06C0090330001220221200000F02C
:100740001DF805002800C0B200280BD10220216846
:10075000C860A06C0090330000222021200000F02F
:100760000DF805002800C0B2002802D1012084F84D
:1007700041002800C0B276BD816470472DE9F04188
:1007800005000E0090461F00069C286880683042D5
:1007900001D0012000E000204146C0B2C9B2884229
:1007A00012D014F1010FF0D0002C04D000F00CF99D
:1007B000C01B8442E9D2042085F84100686C50F0E7
:1007C00001006864012000E00020BDE8F08110B461
:1007D0004B6A002B06D0B2F1406F03D08B6A5B1ED0
:1007E000046823618B69002B79D00B6A002B3ED003
:1007F0008B680468E361CB69002B20D0CC6A0B6B5B
:100800001C434B6B1C434B6A1C434B6954EA8344A7
:100810000B691C430B6A1C43CB681C43CB691C430C
:100820008B691C430B681C43144303685C61B2F181
:10083000406F00F0C6804B680468A361C1E0CC6AD9
:100840000B6B1C434B6B1C434B6A1C434B6954EAB8
:1008500083440B691C430B6A1C43CB691C438B69A3
:100860001C430B681C43144303685C61A9E0CB691B
:10087000002B1ED0CC6A0B6B1C434B6B1C434B6A8A
:100880001C434B6954EA83440B6A1C43CB681C43EA
:10089000CB691C438B691C430B681C4314430368DE
:1008A0005C61B2F1406F00F08C804B680468A3611A
:1008B00087E0CC6A0B6B1C434B6B1C434B6A1C439D
:1008C0004B6954EA83440B6A1C43CB691C438B6914
:1008D0001C430B681C43144303685C6171E00B6AA2
:1008E000002B39D08B680468E361CB69002B1DD0E5
:1008F000CC6A0B6B1C434B6B1C434B6A1C434B6910
:1009000054EA83440B691C430B6A1C43CB681C43A9
:10091000CB691C438B691C43144303685C61B2F1CF
:10092000406F4ED04B680468A3614AE0CC6A0B6B01
:100930001C434B6B1C434B6A1C434B6954EA834476
:100940000B691C430B6A1C43CB691C438B691C431A
:10095000144303685C6134E0CB69002B1BD0CC6A84
:100960000B6B1C434B6B1C434B6A1C434B6954EA97
:1009700083440B6A1C43CB681C43CB691C438B69C3
:100980001C43144303685C61B2F1406F19D04B689B
:100990000468A36115E04B6A002B12D0CC6A0B6B84
:1009A0001C434B6B1C434B6A1C434B6954EA834406
:1009B0000B6A1C43CB691C438B691C4314430368BB
:1009C0005C6110BC7047704701480068704700BF09
:1009D000AC000020704730B4002513E050F8042B21
:1009E000D30744BFA9F101039A18091F042942F84B
:1009F000045BFAD213468C0744BF15809B1CC907C1
:100A000048BF1D7050F8041B0029E7D130BC704767
:100A100070B50400A56DFFF7D7FF060094F8350008
:100A2000022806D080206065002084F83400012070
:100A30003BE02068006830F01600216808602068FC
:100A4000406930F0800021684861206C002802D1A4
:100A5000A06C002805D02068006830F008002168EC
:100A6000086020680068400840002168086020682D
:100A70000068C0070ED5FFF7A7FF801B0628F6D336
:100A800020206065002084F83400032084F83500BD
:100A900003200AE03F21E06D8140A960002084F836
:100AA0003400012084F83500002070BD2DE9FC41A0
:100AB00004000026002C01D10120D8E12078C007D5
:100AC0006DD5DFF89405016811F00C01042909D0F7
:100AD000006810F00C0008280ED1DFF880050068CF
:100AE000400209D5DFF86C050068800357D56068BF
:100AF000002854D10120BAE16068B0F5803F06D1EA
:100B0000DFF85005016851F48031016026E060682B
:100B100000280AD1DFF83C05016831F4803101601A
:100B2000016831F48021016018E06068B0F5A02F01
:100B30000AD1DFF82005016851F4802101600168C5
:100B400051F48031016009E0DFF80805016831F4F3
:100B500080310160016831F4802101606068002803
:100B60000ED0FFF731FF0500DFF8E80400688003CE
:100B700015D4FFF729FF401B6528F5D3032076E144
:100B8000FFF722FF0500DFF8CC040068800306D5DC
:100B9000FFF71AFF401B6528F5D3032067E1207893
:100BA000800752D5DFF8B004016811F00C0F09D0AE
:100BB000006810F00C00082816D1DFF8A0040068C7
:100BC000400211D4DFF88C040168890704D5E1687C
:100BD000012901D001204AE1016831F0F8012269C0
:100BE00051EAC201016030E0E06800281AD0DFF865
:100BF0006474386850F001003860FFF7E5FE0500C6
:100C00003868800706D4FFF7DFFE401B0328F7D3C0
:100C100003202CE1386830F0F800216950EAC10067
:100C2000386012E0DFF82C74386840084000386003
:100C3000FFF7CAFE05003868800706D5FFF7C4FE37
:100C4000401B0328F7D3032011E12078000728D5A3
:100C50006069002812D0DFF80874386850F001008D
:100C60003860FFF7B1FE05003868800719D4FFF738
:100C7000ABFE401B0328F7D30320F8E0DFF8E07356
:100C80003868400840003860FFF79EFE050038686D
:100C9000800706D5FFF798FE401B0328F7D30320F3
:100CA000E5E02078400740F18780DFF8C0733868BE
:100CB000C0000AD4386850F080503860386810F0AE
:100CC00080500090009801200600DFF8A483D8F837
:100CD0000000C00513D4D8F8000050F48070C8F8A4
:100CE0000000FFF771FE0500D8F80000C00506D42B
:100CF000FFF76AFE401B6528F6D30320B7E0A06823
:100D0000012806D1DFF86C03016851F00101016090
:100D100025E0A06800280AD1DFF8580301684908D7
:100D200049000160016831F00401016017E0A0682A
:100D300005280AD1DFF83C03016851F00401016085
:100D4000016851F00101016009E0DFF82803016842
:100D5000490849000160016831F004010160A068A0
:100D6000002810D0FFF730FE0500DFF80803006808
:100D7000800719D4FFF728FE401B41F289318842D1
:100D8000F3D3032073E0FFF71FFE0500DFF8E40252
:100D90000068800708D5FFF717FE401B41F2893134
:100DA0008842F3D3032062E03000C0B2012803D1AF
:100DB000386830F080503860A069002856D0DFF8DD
:100DC0009802006810F00C0008284DD0A069022895
:100DD00037D1DFF88072386830F080703860FFF704
:100DE000F3FD80463868800107D5FFF7EDFDB0EBD5
:100DF00008000328F6D3032039E0E169206A0143A3
:100E0000606A51EA8011A06A4008401E51EA004120
:100E1000E06A51EA006151F00051DFF840020160E0
:100E2000386850F080703860FFF7CEFD05003868F4
:100E300080011BD4FFF7C8FD401B0328F7D3032014
:100E400015E0DFF81072386830F080703860FFF716
:100E5000BBFD05003868800108D5FFF7B5FD401BD4
:100E60000328F7D3032002E0012000E00020BDE8C2
:100E7000F6812DE9F04104000D000026002C01D17F
:100E800001209FE0DFF8F071386810F00F00A842F1
:100E90000BD238680009000128433860386810F028
:100EA0000F00A84201D001208CE02078800719D5DE
:100EB0002078400705D5DFF8A001016851F4E05122
:100EC00001602078000705D5DFF88C01016851F436
:100ED00060410160DFF880110A6832F0F002A0681A
:100EE00002430A602078C00737D56068012806D120
:100EF000DFF860010068800311D4012062E06068BF
:100F0000022806D1DFF84C010068800107D40120D7
:100F100058E050480068800701D4012052E0DFF813
:100F20003881D8F800108908890060680143C8F842
:100F30000010FFF749FD0600D8F8000010F00C0083
:100F40006168B0EB810F08D0FFF73EFD801B41F2D6
:100F500089318842F0D3032034E0386810F00F0064
:100F600085420BD238680009000128433860386890
:100F700010F00F00A84201D0012023E020784007A4
:100F800006D535490A6832F4E052E06802430A6047
:100F90002078000707D53048016831F460412269A4
:100FA00051EAC201016000F00FF834492A4A126880
:100FB000C2F30312895CC8402B4908600F2000F07F
:100FC00061F80020BDE8F0812DE9F0410024002502
:100FD000002600272048006810F00C00002804D0EC
:100FE000042804D0082804D031E01E4830E024480A
:100FF0002EE0DFF86880D8F8000010F03F00040011
:10100000D8F8000040020CD5D8F80000C0F38810D2
:101010001B49A1FB00012200002300F059F8050044
:101020000BE0D8F80000C0F388100E49A1FB0001C6
:101030002200002300F04CF80500D8F80000C0F3AF
:101040000140401C40000600B5FBF6F000E00548FA
:10105000BDE8F08100380240083802400438024000
:10106000743802400024F40004000020403802409C
:101070000070004070380240003C0240E41E00084E
:1010800040787D0110B504004FF47A700D4909785D
:10109000B0FBF1F00C490968B1FBF0F000F0B0F9D9
:1010A000002801D001200CE0102C09D200222100E0
:1010B0005FF0FF3000F08FF904480460002000E08A
:1010C000012010BD080000200400002000000020C6
:1010D000BBBBE1B1B2F5803F80F07E80022A1ED911
:1010E0008C46B1FBF2F102FB11C31B0443EA10432F
:1010F000B3FBF2FC02FB1C3380B240EA0343B3FBB8
:10110000F2F002FB103240EA0C4000237047022A42
:1011100005D98446B0FBF2F002FB10C270474AB119
:1011200005D100F0010249085FEA30007047002253
:101130000023704700F078B90B0002000021002066
:101140007047904271EB030CF6D3B3F5803F2FD27A
:10115000F0B5B3FA83F7B1FA81F4A7F10F0E3D1B96
:101160005340CEF1200602FA0EF2F3415340B5F19E
:101170000F0746D80F3C2C444140C4F12006A04044
:10118000F1414140B1FBF3F603FB1611A2FB06450A
:10119000001BA94102D2761E8018594180EA010243
:1011A00021FA0EF362FA0EF200215A403046F0BDE9
:1011B00030B4B1FBF3FC03FB1C11A2FB0C45001B7C
:1011C000A94103D2ACF1010C8018594130BC024650
:1011D0000B46604600217047B2F1807F65D3F0B5C1
:1011E000B2FA82F7B1FA81F4C7F10F063D1B22FA79
:1011F00006F307F1110EF24120355A40B5F10F0701
:10120000B8D94140C4F12006A040F1414140B1FBB2
:10121000F3FC03FB1C11A2FB0C45001BA94103D2EC
:10122000BCF1010C801859410F2F12D30F3FC90395
:1012300041EA5041B1FBF3F603FB1611A2FB064550
:10124000D4EBC030A94102D2761E8018594146EA3B
:10125000CC3C07B34140C7F12006B840F1414140C2
:10126000B1FBF3F603FB1611A2FB0645001BA941D7
:1012700002D2761E8018594180EA010221FA0EF34B
:10128000C7F1200462FA0EF20CFA07F05A402CFA69
:1012900004F13043F0BD80EA010221FA0EF300218F
:1012A00062FA0EF260465A40F0BD8C46B1FBF2F194
:1012B00002FB11C31B0243EA1063B3FBF2FC02FB07
:1012C0001C331B024CEA002043EA1063B3FBF2FC20
:1012D00002FB1C331B024CEA002043EA1063B3FB01
:1012E000F2FC02FB1C331B024CEA002043EA1063B1
:1012F000B3FBF2FC02FB1C324CEA002000237047D7
:1013000010B410F00703DFF8044122684FF6FF0124
:101310000A40DFF8FC1051EA03210A43226010BCA6
:101320007047DFF8E8000068C0F30220704710B48F
:10133000020052B2002A05D40A01364B040064B2FE
:101340001A5508E00A01344B040064B214F00F048B
:10135000234403F8042C10BC704770B4030013F04E
:101360000704D4F10700052801D3042001E0D4F1DB
:101370000700251D072D01D2002500E0E51E0126EE
:1013800016FA00F0401E0140A94016FA05F56D1E40
:101390002A401143080070BC704710B50400601E5D
:1013A000B0F1807F01D301200EE0601E1B49086070
:1013B0000F215FF0FF30FFF7BAFF002018490860E7
:1013C000072018490860002010BD10B50400200057
:1013D000FFF796FF10BD2DE9F04104000D00160047
:1013E0000027FFF79EFF8046320029004046FFF7A6
:1013F000B4FF0100200040B2FFF799FFBDE8F08183
:1014000010B504002000FFF7C8FF10BD0CED00E090
:101410000000FA0500E400E018ED00E014E000E050
:1014200018E000E010E000E07047000010B5CC4C80
:10143000CC4820602000FEF731FF002801D00120B9
:1014400055E000F095F9C8480021C1610021016212
:1014500000214162002141610021C162002101633C
:10146000002141634FF40051C160C0480021016177
:101470000121C160102181605FF480014161012080
:1014800060600420A0601020E0608020B0FA80F04E
:10149000401E20614FF4A06060610020A061002028
:1014A000E061002020622000FEF78EFE002801D0BF
:1014B00001201CE0200000F01BF8002801D00120D2
:1014C00015E0200000F0ACF8002801D001200EE06B
:1014D000200000F04DF8002801D0012007E0200096
:1014E00000F028F8002801D0012000E0002010BD05
:1014F00070B504009C4D4FF48070A8616620286090
:101500000020686241F28836320029002000FEF790
:10151000E7FE002801D001200BE09920286032006E
:1015200029002000FEF7DCFE002801D0012000E0A9
:10153000002070BD1CB504008B494FF440708861D9
:10154000EB2008604FF44060C8615FF04070486273
:101550000A20486100200190002000906A46200087
:10156000FFF768F8002801D0012000E0002016BD38
:1015700030B58FB004004FF4807007908520019043
:1015800000200890002009905FF080700A900020F1
:10159000069001200B9000200C9000200D90002060
:1015A0000E9041F288352A0001A92000FEF798FE2E
:1015B000002801D0012031E02A0069462000FEF712
:1015C00058FF002801D0012028E0200000F09EF8FC
:1015D000002801D0012021E0812001909DF8001019
:1015E00011F00F010A225FF07060B0FA80F08240C3
:1015F00011438DF800102A0001A92000FEF770FEAB
:10160000002801D0012009E02A0069462000FEF7E9
:10161000BDFE002801D0012000E000200FB030BD49
:10162000F0B595B004004FF4807007900020099049
:101630000020069000200C9000200D9000200E90BD
:1016400010201190002013905FF48000149065200A
:101650000190002008905FF080750A9501200B90A2
:101660003F4E41F288373A0001A93000FEF738FEBC
:10167000002801D0012047E03A0069463000FEF71B
:10168000F8FE002801D001203EE006200190002055
:101690000A903A0001A93000FEF722FE002801D08E
:1016A000012031E002200F900220109001201290C2
:1016B000052001900A953B000FAA01A93000FEF712
:1016C00053FF002801D001201EE06120019001207D
:1016D0000B909DF8000010F03F0050F040008DF896
:1016E00000003A0001A93000FEF7FAFD002801D001
:1016F000012009E03A0069463000FEF747FE002865
:1017000001D0012000E0002015B0F0BD70B504004C
:10171000154D4FF44070A8610620286000206862D3
:1017200041F28836320029002000FEF7D9FD00285A
:1017300001D0012013E00D4A022010600220506009
:10174000052028605FF040706862330029002000A7
:10175000FEF70AFF002801D0012000E0002070BD44
:101760000C000020001000A0580000209000002075
:1017700010B586B03648016851F00201016000687A
:1017800010F00200059005983248016851F00201FE
:101790000160016831F0020101602F48016851F0D9
:1017A00002010160016811F00201059105990168CB
:1017B00051F008010160016811F0080105910599D7
:1017C000016851F010010160006810F010000590F0
:1017D0000598402000900A200490022001900120EA
:1017E0000290022003901D4C6946200000F03CF856
:1017F00004200090092004900020029069462000F7
:1018000000F032F84FF40060009009200490144C6E
:101810006946200000F028F84FF48050009009201D
:1018200004906946200000F01FF804200090092071
:10183000049069460B4800F017F84FF400500090F0
:10184000092004906946200000F00EF806B010BD93
:101850003838024018380240303802400004024054
:10186000000C0240001002402DE9F8410022002344
:10187000002400260025102D80F00B81012717FA87
:1018800005F213000A681A4014009C4240F0FF80E1
:101890004A68022A02D04A68122A1FD12A00D208B6
:1018A00000EB8202D2F820C05FF00F0E15F00702A5
:1018B000D2B292001EFA02FE3CEA0E0CD1F810E001
:1018C00015F00702D2B292001EFA02FE5EEA0C0C7C
:1018D00066462A00D20800EB82021662D0F800C0E9
:1018E0005FF0030E2A00D2B252001EFA02F23CEA66
:1018F000020C91F8048018F003082A00D2B25200BA
:1019000018FA02F858EA0C0CC0F800C04A68012A1C
:1019100008D04A68022A05D04A68112A02D04A68CB
:10192000122A1BD186682A00D2B252001EFA02F295
:101930009643D1F80C802A00D2B2520018FA02F86D
:1019400058EA060686604268AF40BA434F68C7F35C
:101950000017AF403A439446C0F804C0C6682A0056
:10196000D2B252001EFA02FE36EA0E068F682A0034
:10197000D2B2520097403E43C6604A68D20040F15E
:101980008680DFF81421176857F4804717601268C3
:1019900012F480420092009ADFF800C12A009208F7
:1019A0005CF822705FF00F0E15F00302D2B29200C5
:1019B0001EFA02FE37EA0E07DFF8E420904201D15A
:1019C000002631E0DFF8DC20904201D101262BE037
:1019D000DFF8D420904201D1022625E0DFF8CC20A8
:1019E000904201D103261FE0DFF8C420904201D1CC
:1019F000042619E02F4A904201D1052614E02E4A10
:101A0000904201D106260FE02C4A904201D10726D0
:101A10000AE02B4A904201D1082605E0294A90426B
:101A200001D1092600E00A26F6B215F00302D2B26F
:101A30009200964037432A0092084CF82270224EBA
:101A40003268A243D1F804C05FEACC3C00D52243FF
:101A500032601E4F3E68A643D1F804C05FEA8C3C5A
:101A600000D526433E601A4F3A68A243D1F804C01D
:101A70005FEACC2C00D522433A60164F3E68A6435D
:101A8000D1F804C05FEA8C2C00D526433E606D1C63
:101A9000F1E6BDE8F1810000443802400838014019
:101AA000000002400004024000080240000C024016
:101AB000001002400014024000180240001C0240C6
:101AC0000020024000240240003C0140043C014050
:101AD000083C01400C3C0140BFF34F8FBFF36F8FB8
:101AE000002049490860BFF34F8FBFF36F8F47480D
:101AF000016851F400310160BFF34F8FBFF36F8F66
:101B00007047BFF34F8FBFF36F8F4048016831F4C8
:101B10000031016000203C490860BFF34F8FBFF3E4
:101B20006F8F704710B4002039490860BFF34F8FA2
:101B300038480168C1F34E32C1F3C900030043F6CF
:101B4000E07010EA421050EA8370334C20601800B5
:101B5000431E0028F3D11000421E0028ECD1BFF331
:101B60004F8F2A48046854F480340460BFF34F8FC9
:101B7000BFF36F8F10BC704710B400202449086079
:101B8000BFF34F8F2148016831F480310160BFF30A
:101B90004F8F20480168C1F34E32C1F3C9000300E2
:101BA00043F6E07010EA421050EA83701B4C20604C
:101BB0001800431E0028F3D11000421E0028ECD16B
:101BC000BFF34F8FBFF36F8F10BC704780B500F02D
:101BD00072F800F07DF800F030F800F027F80028E7
:101BE00001D000F029F800F06CF800200C490860E2
:101BF0000C480D49096801605FF01041096881F3E4
:101C0000088800688047FEE750EF00E014ED00E030
:101C100084ED00E080ED00E060EF00E074EF00E0B4
:101C200010E000E0A80000200400009010B500249F
:101C3000FFF7FCFB204310BDFEE730B591B0002458
:101C4000012005905FF48030069002200B905FF435
:101C500080000C9019200D904FF4D8700E90022047
:101C60000F900820109005A8FEF720FF050028001F
:101C7000C0B2002800D0FEE700F03EF804002000CB
:101C8000C0B2002800D0FEE70F2000900220019093
:101C9000002002904FF4A05003904FF48050049025
:101CA00006216846FFF7E5F80100C9B2002900D017
:101CB000FEE711B030BD80B5FFF70EFFFFF732FF32
:101CC00001BD80B5FFF71DFFFFF756FF01BD000006
:101CD00080B50748016851F4807101600320FFF767
:101CE00074FB0F20FFF7CEF900F004F8002002BDCE
:101CF000003C0240704700007CB500241B4801688E
:101D000051F080510160006810F080500090009800
:101D1000154E306850F480303060FEF755FE0500F7
:101D2000104C2068C00308D4FEF74EFE401B40F262
:101D3000E9318842F4D3032013E0306850F40030D6
:101D40003060FEF741FE06002068800308D4FEF7ED
:101D50003BFE801B40F2E9318842F5D3032000E0CE
:101D6000002076BD04700040007000404038024002
:101D70000F48016851F4700101600E49086850F085
:101D80000100086000200C4A10600A680B480240FD
:101D90000A600B480B4A1060086830F48020086025
:101DA0000020094908605FF000600849086070473A
:101DB00088ED00E00038024008380240FFFFF6FEE0
:101DC00010300024043802400C38024008ED00E0D6
:101DD00030B450F8041B79B10268436802440830FB
:101DE000DC0744BFA9F10104E31852F8045B43F88F
:101DF000045B091FF9D1ECE730BC704710B5074907
:101E000079441831064C7C44163404E00A68081DF5
:101E1000114488470146A142F8D110BD2C000000B2
:101E20004C0000004EF68851CEF20001086840F4E4
:101E300070000860BFF34F8FBFF36F8F4FF00070DB
:101E4000E1EE100A704700008FEBFFFFA4000000D6
:101E50000C0000200000000079FFFFFF0C000000D4
:101E6000B0000000000000200000000000F00DF8AD
:101E7000002801D0FFF7C2FFAFF300800020AFF3CE
:101E80000080FFF7A3FE00F002F80120704700F089
:101E900001B800000746384600F002F8FBE70000F2
:101EA00080B5AFF30080024A11001820ABBEFBE7FB
:101EB0002600020003480168034A1278891801606D
:101EC000704700BFAC000020080000207047FEE70C
:101ED000FEE7FEE7FEE770477047704780B5FFF703
:101EE000E9FF01BD00000000000000000102030442
:101EF000060708090148804701480047711D00088E
:101F0000051F0008AFF30080FFF78CFFFFF7AEFF5F
:101F1000100000000024F40001000000FFF7FEBFE5
:101F2000FFF7FEBFFFF7FEBFFFF7FEBFFFF7FEBFE5
:101F3000FFF7FEBFFFF7FEBFFFF7FEBFFFF7FEBFD5
:101F4000FFF7FEBFFFF7FEBFFFF7FEBFFFF7FEBFC5
:101F5000FFF7FEBFFFF7FEBFFFF7FEBFFFF7FEBFB5
:101F6000FFF7FEBFFFF7FEBFFFF7FEBFFFF7FEBFA5
:101F7000FFF7FEBFFFF7FEBFFFF7FEBFFFF7FEBF95
:101F8000FFF7FEBFFFF7FEBFFFF7FEBFFFF7FEBF85
:101F9000FFF7FEBFFFF7FEBFFFF7FEBFFFF7FEBF75
:101FA000FFF7FEBFFFF7FEBFFFF7FEBFFFF7FEBF65
:101FB000FFF7FEBFFFF7FEBFFFF7FEBFFFF7FEBF55
:101FC000FFF7FEBFFFF7FEBFFFF7FEBFFFF7FEBF45
:101FD000FFF7FEBFFFF7FEBFFFF7FEBFFFF7FEBF35
:101FE000FFF7FEBFFFF7FEBFFFF7FEBFFFF7FEBF25
:101FF000FFF7FEBFFFF7FEBFFFF7FEBFFFF7FEBF15
:10200000FFF7FEBFFFF7FEBFFFF7FEBFFFF7FEBF04
:10201000FFF7FEBFFFF7FEBFFFF7FEBFFFF7FEBFF4
:10202000FFF7FEBFFFF7FEBFFFF7FEBFFFF7FEBFE4
:10203000FFF7FEBFFFF7FEBFFFF7FEBFFFF7FEBFD4
:10204000FFF7FEBFFFF7FEBFFFF7FEBFFFF7FEBFC4
:10205000FFF7FEBFFFF7FEBFFFF7FEBFFFF7FEBFB4
:10206000FFF7FEBFFFF7FEBFFFF7FEBFFFF7FEBFA4
:10207000FFF7FEBFFFF7FEBFFFF7FEBFFFF7FEBF94
:10208000FFF7FEBFFFF7FEBFFFF7FEBFFFF7FEBF84
:10209000FFF7FEBFFFF7FEBFFFF7FEBFFFF7FEBF74
:0420A000FFF7FEBF89
:0200000490006A
:100000000000052025100090F12B0090F32B0090AC
:10001000F52B0090F72B0090F92B009000000000CA
:10002000000000000000000000000000D17F0090F0
:10003000FB2B00900000000071800090D5800090A4
:10004000751000907510009075100090751000905C
:10005000751000907510009075100090751000904C
:10006000751000907510009075100090751000903C
:10007000751000907510009075100090751000902C
:10008000751000907510009075100090751000901C
:10009000751000907510009075100090751000900C
:1000A00075100090751000907510009075100090FC
:1000B00075100090751000907510009075100090EC
:1000C00075100090751000907510009075100090DC
:1000D00075100090751000907510009075100090CC
:1000E00075100090751000907510009075100090BC
:1000F00075100090751000907510009075100090AC
:10010000751000907510009075100090751000909B
:100110007510009075100090FD2B009075100090E8
:10012000751000907510009075100090751000907B
:10013000751000907510009075100090751000906B
:10014000751000907510009075100090751000905B
:10015000751000907510009075100090751000904B
:10016000751000907510009075100090751000903B
:10017000751000907510009075100090751000902B
:10018000751000907510009075100090751000901B
:10019000751000907510009075100090751000900B
:1001A000092C009075100090152C0090751000908F
:1001B00075100090751000907510009075100090EB
:0801C00075100090751000900D
:1001D00010B5054C237833B9044B13B10448AFF381
:1001E00000800123237010BD940200200000000055
:1001F0005C6E029008B5034B1BB103490348AFF393
:10020000008008BD00000000980200205C6E029093
:1002100001F0FF01102A2BDB10F0070F08D010F8B7
:10022000013B013A8B422DD010F0070F42B3F6D1BB
:10023000F0B441EA012141EA014122F007047FF0D4
:1002400000070023F0E80256083C85EA010586EA2B
:10025000010685FA47F5A3FA87F586FA47F6A5FA67
:1002600087F68EB9EED1F0BC01F0FF0102F0070273
:1002700032B110F8013B013A83EA010313B1F8D11E
:100280000020704701387047002D06BF35460338FF
:10029000073815F0010F07D1013015F4807F02BF38
:1002A000013015F4C03F0130F0BC0138704700BF89
:1002B000034613F8012B002AFBD1181A01387047A6
:1002C00081F0004102E000BF83F0004330B54FEA07
:1002D00041044FEA430594EA050F08BF90EA020F74
:1002E0001FBF54EA000C55EA020C7FEA645C7FEA07
:1002F000655C00F0E2804FEA5454D4EB5555B8BF2A
:100300006D420CDD2C4480EA020281EA030382EA9A
:10031000000083EA010180EA020281EA0303362D2C
:1003200088BF30BD11F0004F4FEA01314FF4801CFF
:100330004CEA113102D0404261EB410113F0004F11
:100340004FEA03334CEA133302D0524263EB4303C8
:1003500094EA050F00F0A780A4F10104D5F1200E66
:100360000DDB02FA0EFC22FA05F2801841F10001C1
:1003700003FA0EF2801843FA05F359410EE0A5F195
:1003800020050EF1200E012A03FA0EFC28BF4CF0C6
:10039000020C43FA05F3C01851EBE37101F000457C
:1003A00007D54FF0000EDCF1000C7EEB00006EEB89
:1003B0000101B1F5801F1BD3B1F5001F0CD3490813
:1003C0005FEA30004FEA3C0C04F101044FEA44526A
:1003D00012F5800F80F09A80BCF1004F08BF5FEAF1
:1003E000500C50F1000041EB045141EA050130BDD1
:1003F0005FEA4C0C404141EB0101013C28BFB1F5E3
:10040000801FE9D291F0000F04BF01460020B1FA2D
:1004100081F308BF2033A3F10B03B3F120020CDA00
:100420000C3208DD02F1140CC2F10C0201FA0CF0DE
:1004300021FA02F10CE002F11402D8BFC2F1200C43
:1004400001FA02F120FA0CFCDCBF41EA0C019040F9
:10045000E41AA2BF01EB0451294330BD6FEA040442
:100460001F3C1CDA0C340EDC04F11404C4F120022D
:1004700020FA04F001FA02F340EA030021FA04F33F
:1004800045EA030130BDC4F10C04C4F1200220FA96
:1004900002F001FA04F340EA0300294630BD21FAD4
:1004A00004F0294630BD94F0000F83F4801306BF9A
:1004B00081F480110134013D4EE77FEA645C18BF8E
:1004C0007FEA655C29D094EA050F08BF90EA020F25
:1004D00005D054EA000C04BF1946104630BD91EA1D
:1004E000030F1EBF0021002030BD5FEA545C05D120
:1004F0004000494128BF41F0004130BD14F580045F
:100500003CBF01F5801130BD01F0004545F0FE41D2
:1005100041F470014FF0000030BD7FEA645C1ABF07
:10052000194610467FEA655C1CBF0B46024650EA3E
:10053000013406BF52EA033591EA030F41F400216A
:1005400030BD00BF90F0000F04BF0021704730B5F0
:100550004FF4806404F132044FF000054FF00001C5
:1005600050E700BF90F0000F04BF0021704730B586
:100570004FF4806404F1320410F0004548BF40425B
:100580004FF000013EE700BF42004FEAE2014FEAB0
:1005900031014FEA02701FBF12F07F4393F07F4F8B
:1005A00081F06051704732F07F4208BF704793F08E
:1005B0007F4F04BF41F40021704730B54FF46074A1
:1005C00001F0004521F000411CE700BF50EA0102A4
:1005D00008BF704730B54FF000050AE050EA01024D
:1005E00008BF704730B511F0004502D5404261EBBD
:1005F00041014FF4806404F132045FEA915C3FF4FE
:10060000D8AE4FF003025FEADC0C18BF03325FEA9A
:10061000DC0C18BF033202EBDC02C2F1200300FA4B
:1006200003FC20FA02F001FA03FE40EA0E0021FA70
:1006300002F11444BDE600BF70B54FF0FF0C4CF45E
:10064000E06C1CEA11541DBF1CEA135594EA0C0F10
:1006500095EA0C0F00F0DEF82C4481EA030621EA4B
:100660004C5123EA4C5350EA013518BF52EA033586
:1006700041F4801143F4801338D0A0FB02CE4FF038
:100680000005E1FB02E506F00042E0FB03E54FF068
:100690000006E1FB03569CF0000F18BF4EF0010E60
:1006A000A4F1FF04B6F5007F64F5407404D25FEA5C
:1006B0004E0E6D4146EB060642EAC62141EA55510F
:1006C0004FEAC52040EA5E504FEACE2EB4F1FD0C51
:1006D00088BFBCF5E06F1ED8BEF1004F08BF5FEACF
:1006E000500E50F1000041EB045170BD06F0004681
:1006F00046EA010140EA020081EA0301B4EB5C042E
:10070000C2BFD4EB0C0541EA045170BD41F4801125
:100710004FF0000E013C00F3AB8014F1360FDEBF4A
:10072000002001F0004170BDC4F10004203C35DA26
:100730000C341BDC04F11404C4F1200500FA05F3A9
:1007400020FA04F001FA05F240EA020001F000424A
:1007500021F0004110EBD37021FA04F642EB0601C0
:100760005EEA430E08BF20EAD37070BDC4F10C04EA
:10077000C4F1200500FA04F320FA05F001FA04F2AE
:1007800040EA020001F0004110EBD37041F100019A
:100790005EEA430E08BF20EAD37070BDC4F12005A5
:1007A00000FA05F24EEA020E20FA04F301FA05F20D
:1007B00043EA020321FA04F001F0004121FA04F2B5
:1007C00020EA020000EBD3705EEA430E08BF20EA85
:1007D000D37070BD94F0000F0FD101F000464000BF
:1007E00041EB010111F4801F08BF013CF7D041EA41
:1007F000060195F0000F18BF704703F00046520045
:1008000043EB030313F4801F08BF013DF7D043EA15
:100810000603704794EA0C0F0CEA135518BF95EACB
:100820000C0F0CD050EA410618BF52EA4306D1D152
:1008300081EA030101F000414FF0000070BD50EA71
:10084000410606BF1046194652EA430619D094EAFB
:100850000C0F02D150EA013613D195EA0C0F05D1E5
:1008600052EA03361CBF104619460AD181EA030139
:1008700001F0004141F0FE4141F470014FF00000F1
:1008800070BD41F0FE4141F4780170BD70B54FF08C
:10089000FF0C4CF4E06C1CEA11541DBF1CEA13550C
:1008A00094EA0C0F95EA0C0F00F0A7F8A4EB0504EE
:1008B00081EA030E52EA03354FEA013100F08880E5
:1008C0004FEA03334FF0805545EA131343EA1263AE
:1008D0004FEA022245EA111545EA10654FEA002663
:1008E0000EF000419D4208BF964244F1FD0404F51C
:1008F000407402D25B084FEA3202B61A65EB030578
:100900005B084FEA32024FF480104FF4002CB6EB34
:10091000020E75EB030E22BFB61A754640EA0C00B4
:100920005B084FEA3202B6EB020E75EB030E22BFF4
:10093000B61A754640EA5C005B084FEA3202B6EB35
:10094000020E75EB030E22BFB61A754640EA9C00F4
:100950005B084FEA3202B6EB020E75EB030E22BFC4
:10096000B61A754640EADC0055EA060E18D04FEA82
:10097000051545EA16754FEA06164FEAC30343EA22
:1009800052734FEAC2025FEA1C1CC0D111F4801FEF
:100990000BD141EA00014FF000004FF0004CB6E7E8
:1009A00011F4801F04BF01430020B4F1FD0C88BF87
:1009B000BCF5E06F3FF6AFAEB5EB030C04BFB6EB92
:1009C000020C5FEA500C50F1000041EB045170BD85
:1009D0000EF0004E4EEA113114EB5C04C2BFD4EBB2
:1009E0000C0541EA045170BD41F480114FF0000E36
:1009F000013C90E645EA060E8DE60CEA135594EAB2
:100A00000C0F08BF95EA0C0F3FF43BAF94EA0C0FB4
:100A10000AD150EA01347FF434AF95EA0C0F7FF429
:100A200025AF104619462CE795EA0C0F06D152EA7D
:100A300003353FF4FDAE1046194622E750EA410661
:100A400018BF52EA43067FF4C5AE50EA41047FF472
:100A50000DAF52EA43057FF4EBAE12E74FF0FF3CD7
:100A600006E000BF4FF0010C02E000BF4FF0010CA8
:100A70004DF804CD4FEA410C7FEA6C5C4FEA430C21
:100A800018BF7FEA6C5C1BD001B050EA410C0CBF70
:100A900052EA430C91EA030F02BF90EA020F0020D2
:100AA000704710F1000F91EA030F58BF994208BF39
:100AB00090422CBFD8176FEAE37040F001007047F6
:100AC0004FEA410C7FEA6C5C02D150EA013C07D14D
:100AD0004FEA430C7FEA6C5CD6D152EA033CD3D098
:100AE0005DF8040B704700BF8446104662468C4692
:100AF0001946634600E000BF01B5FFF7B7FF0028C5
:100B000048BF10F1000F01BD4DF808EDFFF7F4FFED
:100B10000CBF012000205DF808FB00BF4DF808ED78
:100B2000FFF7EAFF34BF012000205DF808FB00BF9B
:100B30004DF808EDFFF7E0FF94BF012000205DF8BD
:100B400008FB00BF4DF808EDFFF7CEFF94BF012072
:100B500000205DF808FB00BF4DF808EDFFF7C4FF6B
:100B600034BF012000205DF808FB00BF4FEA410CB4
:100B70007FEA6C5C02D150EA013C0AD14FEA430C97
:100B80007FEA6C5C02D152EA033C02D14FF00000D4
:100B900070474FF0010070474FEA410212F5001212
:100BA00015D211D56FF47873B3EB625212D94FEAB4
:100BB000C12343F0004343EA505311F0004F23FA9E
:100BC00002F018BF404270474FF00000704750EAF3
:100BD000013005D111F0004008BF6FF000407047B0
:100BE0004FF00000704700BF4FEA4102B2F1E0430E
:100BF00024BFB3F5001CDCF1FE5C0DD901F0004C04
:100C00004FEAC0024CEA5070B2F1004F40EB830053
:100C100008BF20F00100704711F0804F21D113F17F
:100C20003872BCBF01F00040704741F480114FEAB8
:100C30005252C2F11802C2F1200C10FA0CF320FA41
:100C400002F018BF40F001004FEAC1234FEAD3235E
:100C500003FA0CFC40EA0C0023FA02F34FEA4303C8
:100C6000CCE77FEA625307D150EA01331EBF4FF051
:100C7000FE4040F44000704701F0004040F0FE406C
:100C800040F40000704700BF7BB972B90029BEBFB5
:100C900000204FF0004106E008BF00281CBF6FF0A5
:100CA00000414FF0FF3000F0BBB9ADF1080C6DE929
:100CB00004CE002909DB002B1ADB00F04DF8DDF82B
:100CC00004E0DDE9022304B07047404261EB4101DA
:100CD000002B1BDB00F040F8DDF804E0DDE9022327
:100CE00004B0404261EB4101524263EB4303704761
:100CF000524263EB430300F02FF8DDF804E0DDE936
:100D0000022304B0404261EB41017047524263EB61
:100D1000430300F021F8DDF804E0DDE9022304B02C
:100D2000524263EB4303704753B94AB9002908BFE5
:100D300000281CBF4FF0FF314FF0FF3000F070B9BA
:100D4000ADF1080C6DE904CE00F006F8DDF804E022
:100D5000DDE9022304B070472DE9F047089E0D46F7
:100D600004460F46002B4AD18A42944665D9B2FA0E
:100D700082F343B102FA03FCC3F120029F4020FA40
:100D800002F217439C404FEA1C4E1FFA8CF5B7FB4A
:100D9000FEF1220C0EFB117742EA074201FB05F03F
:100DA00090420AD91CEB020201F1FF3780F01C814E
:100DB000904240F2198102396244121AA4B2B2FB85
:100DC000FEF00EFB102244EA024400FB05F5A542AA
:100DD0000AD91CEB040400F1FF3280F00781A54220
:100DE00040F204816444023840EA0140641B00215F
:100DF0001EB1DC400023C6E90043BDE8F0878B420A
:100E000008D9002E00F0ED800021C6E90005084653
:100E1000BDE8F087B3FA83F1002949D1AB4202D390
:100E2000824200F2F880841A65EB03020120174623
:100E3000002EE2D0C6E90047DFE702B9FFDEB2FAD2
:100E400082F3002B40F090808A1A4FEA1C471FFA69
:100E50008CFE0121B2FBF7F507FB1520220C42EABC
:100E600000420EFB05F0904208D91CEB020205F18E
:100E7000FF3802D2904200F2CB804546121AA4B24B
:100E8000B2FBF7F007FB102244EA02440EFB00FE1F
:100E9000A64508D91CEB040400F1FF3202D2A64596
:100EA00000F2BB801046A4EB0E0440EA05409FE729
:100EB000C1F120078B4022FA07FC4CEA030C05FA2B
:100EC00001F420FA07F3FD404FEA1C492343B5FB28
:100ED000F9F81FFA8CFE09FB18551C0C44EA05446E
:100EE00008FB0EF5A54202FA01F200FA01F00BD957
:100EF0001CEB040408F1FF3A80F08880A54240F220
:100F00008580A8F102086444641B9DB2B4FBF9F328
:100F100009FB134445EA044403FB0EFEA64508D929
:100F20001CEB040403F1FF356CD2A6456AD9023BE1
:100F3000644443EA0843A3FB0295A4EB0E04AC42CD
:100F4000C846AE4656D353D056B1B0EB080264EB58
:100F50000E0404FA07F7CA40CC401743C6E90074F0
:100F600018460021BDE8F087C3F1200102FA03FC16
:100F700020FA01F225FA01F19D402A434FEA1C476D
:100F80001FFA8CFEB1FBF7F007FB1015110C41EABC
:100F9000054100FB0EF58D4204FA03F408D91CEB61
:100FA000010100F1FF382FD28D422DD90238614462
:100FB000491B92B2B1FBF7F507FB151142EA01425A
:100FC00005FB0EF1914208D91CEB020205F1FF3836
:100FD00016D2914214D9023D6244521A45EA0041A8
:100FE00038E73146304608E73946E6E61046FBE684
:100FF0004845A9D2B9EB020865EB0C0E013BA3E70B
:101000004546EAE72B4694E74046D1E7D0467BE7E2
:10101000023D624432E708460AE76444023842E788
:10102000704700BFDFF834D0002103E00C4B5B5861
:10103000435004310B480C4B42189A42F6D30B4AEA
:1010400002E0002342F8043B094B9A42F9D303F033
:10105000C5FB24F081F901F05BF870470000052022
:10106000EC980290000000209402002094020020DE
:10107000E8380120FEE7704708B500F08FFDBDE8B5
:10108000084000F013BD00F08BBD40687047416020
:10109000704700004FF0E022D2F8FC3D43F080732F
:1010A000C2F8FC3D054B064AD3F8B01F0A43C3F80B
:1010B000B02F1A6842F001021A607047001000E079
:1010C00055CEACC5511A01EB5301B1FBF3F070479B
:1010D000014B5868704700BF001000E0704710B522
:1010E00004460C2122F0D7F9204610BD036810B544
:1010F0001B69044631B19847A26863689B1A18447B
:10110000606010BD9847A060FBE7704730B58DB0B8
:101110000D46144600212C2201A824F071F801A8E4
:1011200003F09EFA9DF8040030B1BDF806300120AE
:101130002B60BDF8103023600DB030BD10B50446F3
:10114000042122F0A8F9204610BD000008B54FF494
:1011500088714FF4F07003F02DFA28B1034B202171
:10116000034A044823F0DEF808BD00BFEC6E02908D
:101170000D6F0290376F0290032823D8DFE800F04C
:10118000020B131A104B102110481A68B2FA82F29F
:10119000520904F019BA0C4B40215A68B2FA82F293
:1011A00052090B48F5E7084B80219A68B2FA82F29F
:1011B0005209F6E7044B40210648DA68B2FA82F297
:1011C0005209E6E7704700BFB00200200004024069
:1011D0000008024000180240032823D8DFE800F08E
:1011E000020B131A104B102110481A68003A18BF4E
:1011F000012204F0E9B90C4B40215A68003A18BFAB
:1012000001220B48F5E7084B80219A68003A18BF85
:101210000122F6E7044B40210648DA68003A18BF7D
:101220000122E6E7704700BFB00200200004024040
:10123000000802400018024003280FD8DFE800F041
:101240000206090B1021064804F0C3B940210548E5
:10125000FAE78021FBE740210348F5E7704700BF2C
:1012600000040240000802400018024008B50328AC
:1012700013D8DFE800F0020A0D0F1021084804F02F
:101280009DF9431E5842584108BD40210548F6E7E4
:101290008021FBE740210448F1E70020F1E700BF8F
:1012A00000040240000802400018024070B5084DDA
:1012B00000240126E0B2FFF7D9FF18B12B68012BFB
:1012C00018BF2E6001340435052CF3D170BD00BF6A
:1012D000B0020020012380F8781080F87930704740
:1012E0000020704741640039024B18BF012119707A
:1012F000704700BFAF2C012000207047836B0BB1FB
:101300000846184770474FF6FF70704740680368FB
:101310009B6918477047000038B5044600F07EFD11
:10132000084923682046084DD3F88C30984700239D
:10133000284684F84A30FFF7ADFE0123256184F882
:10134000703038BD00F807C0C002002008B503683F
:101350000446D3F880309847236820469B6F98470F
:1013600000F032F9236820461B6F98474FF48051F4
:10137000064804F02EF90821054804F02AF900F087
:1013800023F9236820461B6F9847F8E700200240A6
:101390000028024010B504460AF0CEFA2368204621
:1013A000D3F8AC30BDE81040184700F0F1BC00F0B5
:1013B000F5BC000070B500F04FFD10490023C1F8E6
:1013C0008430BFF34F8FD1F8803043F6E074C3F31D
:1013D000C900C3F34E335B0103EA0406024646EA42
:1013E0008275013AC1F87452F9D2203B13F1200FF3
:1013F000F2D1BFF34F8FBFF36F8F70BD00ED00E0F0
:1014000000F0A2BC00F034BD00F03CBD00F0A6BC72
:1014100009F0FEBC10B504467C2122F03CF82046C1
:1014200010BD90F87A301BB1406803681B681847FC
:101430001846704790F834100D4B10B590F878406E
:101440001A788C4209D03AB90A490B4A088814889C
:10145000108001220C801A7010BD002AFCD0064AB0
:101460000449148808880C8010800022F3E700BF2C
:10147000A82C0120A62C0120A42C012070B50D461B
:10148000194635B9094B40F2D221094A094822F0E0
:1014900049FFC0E90F52003A074B18BF01221A70EA
:1014A0000368BDE87040D3F88C3018479C6F0290F9
:1014B000D46F029022700290AE2C012008B5094B27
:1014C0001B888B4203D8084B1B88934205D9074BD6
:1014D0009E21074A074822F025FF074B1980074B3A
:1014E0001A8008BDA42C0120A62C01206770029050
:1014F000CA70029022700290AA2C0120AC2C01200C
:10150000014608B5034B186801B101210AF02EFA13
:10151000012008BDB02C0120034B00225A609A60C4
:10152000024A1A60704700BFC0020020CC6E0290D1
:101530000121002208B5084606F014FA0A4B18608B
:1015400028B90A4B28210A4A0A4822F0EBFE002259
:101550000421012006F0CCFA074B186018B9074B9C
:101560002C21034AF0E708BDD0020020E871029068
:101570003172029060720290CC020020AA72029036
:10158000024B4FF0FF31186806F042BAD00200203B
:10159000014B186806F076BAD0020020024B0021F9
:1015A000186806F035BA00BFD0020020FFF7F0BF80
:1015B0000023034803491A46006806F0DFBA00BF5B
:1015C000CC0200200400002013B50023074C01A921
:1015D0001A46206806F014FB4FF0FF33002201A9E1
:1015E000206806F00DFB02B010BD00BFCC02002049
:1015F00003685B6C18470120704703689B6A1847B3
:101600000D4B82B01A6B42F400021A631A6B02F49B
:1016100000020192019A1A6942F400021A611A69E1
:1016200022F400021A61054B054A1A614FF08062EC
:10163000044B9A6002B0704700380240D81A00206C
:101640008916009000E100E040F2EF3070470000A2
:10165000054B4FF080620360044BC3F88820BFF352
:101660004F8FBFF36F8F70474474029000E100E02A
:1016700010B504464FF45A61FFF7EAFF204621F007
:101680000AFF204610BD0000024B1B685868036823
:101690005B691847B02C012070B504460A4B0C302A
:1016A00000262546602260602672667245F8203B5F
:1016B00029460AF0B1FA04F55A63EE602435AB42CC
:1016C000FBD1204670BD00BF4474029008B50B29C1
:1016D0000BD8DFE801F01206100A0A0A0A08080807
:1016E0000808012008BD0520FCE7054B6521054AD7
:1016F000054822F017FE0020F4E70220F2E700BFC1
:10170000EC720290077302905173029008B50A2997
:1017100009D8DFE801F010060E08080808060606DA
:101720000600012008BD054B8621054A054822F028
:10173000F9FD0020F6E70220F4E700BFEC7202900A
:1017400099730290517302902DE9F84391F81D802E
:101750000C4607464146FFF7B9FF94F81E90054630
:1017600038464946FFF7B2FF494606463846FFF776
:10177000CDFFA18A628B434B521A1A649A61228B65
:10178000521A1A61E28A586342EA014220695A6495
:101790006268D863DA602768802F28D0227F0FD84C
:1017A000202F65D0402F63D0042F1AD045EA026560
:1017B000344BC84545F40035DD615FD0324A44E022
:1017C000B7F5807F04D0B7F5007FEFD12F4900E057
:1017D0002F4941EA0262DA61E2681A625E62586188
:1017E00032E045EA026242F40032DA61F6E7A768C5
:1017F0003A1DDA62217F3A7845EA016545F4003501
:10180000DD615E62586142B1012A21D0214B4FF463
:101810008871214A214822F085FDDA69798822F40D
:101820007F42013922F0100242EA01220121DA61ED
:10183000144BDA6942F02002DA61DA699206FCD4CC
:1018400010229A600029B9D0154A1A60BDE8F883C1
:10185000DA69FF39788822F47F4218BF0121013804
:1018600022F0100242EA002242F01002DA61DFE7C1
:1018700045EA0262034B42F40032B6E740F201222D
:10188000E3E700BF00B002400102010009000200CE
:101890000A000200E4730290FE73029051730290FA
:1018A0000102020038B50C46897FFFF72FFF174B66
:1018B000A58AE28A586342EA054221695A64628B2A
:1018C000D963521B1A642568082D0ED19A611A61DA
:1018D00058620F4A207F42EA0062DA61E2681A62C7
:1018E0000C4A5961D9601A6038BD0022D8611A616A
:1018F000E1680A0A4809C1F3C40102F4784200F41D
:10190000FC6002430A439A63034AECE700B00240DA
:10191000090001000102020001020300034B1A68E2
:10192000D207FCD423229A60704700BF00B0024067
:1019300030B5104C2568ED07FCD423250904FF2B96
:10194000A56041F001014FF0020565636164E06349
:101950000AD00949656241EA0363E361074B2262E9
:101960006061E060236030BDE561039BA363044BCD
:10197000F8E700BF00B002400900010001000200CA
:1019800001000300012070470C2070470C2303FB6B
:101990000100083070470C2303FB0100083070473A
:1019A0000120704740F21C60704740F21C6303FB4B
:1019B00001000830704740F21C6303FB010008304F
:1019C0007047012070471020704700EB011008306D
:1019D000704700EB011008307047084601F01ABB51
:1019E000034B10B50446036008F02BF9204610BDE8
:1019F000FC74029010B50446FFF7F2FF1421204654
:101A000021F049FD204610BD034B10B5044603608C
:101A100008F017F9204610BDC874029010B50446AE
:101A2000FFF7F2FF40F22461204621F034FD20460A
:101A300010BD0000034B10B50446036008F001F927
:101A4000204610BD9474029010B50446FFF7F2FFD3
:101A50001821204621F01FFD204610BD084B10B56F
:101A60000446036000F5CA60FFF7BAFF04F12C00DA
:101A7000FFF7CAFF04F11400FFF7DCFF204610BD9A
:101A80003075029008B50248FFF7E8FF08BD00BFB7
:101A9000D802002010B50446FFF7E0FF4FF4FD61C7
:101AA000204621F0F8FC204610BD00002DE9F3414E
:101AB00001F024F90024054601F024F923460146EB
:101AC00022462846009413F039FB274B274A20462C
:101AD000274D1A6001F028FF264B274A27489A60B5
:101AE00013F094FA2B68BFF35B8FDB0735D42846DD
:101AF00021F0D3FC88B3224C224B04F28C6604F113
:101B0000140004F12C0804F5CA6723606060C4F86F
:101B10000880E760266108F095F81B4B404663613A
:101B200008F090F8194B3846E36208F08BF8184B30
:101B300004F26460C4F8503601F07AFF224604F2E1
:101B40006461304601F06AFF304601F063FA1148E3
:101B500022F006FC284621F0ACFC0F4802B0BDE89C
:101B6000F041FFF7D9BB00BF142D0120FC18002065
:101B7000D402002000190020C00A00200800002024
:101B8000D80200203075029094740290C8740290BC
:101B9000FC740290851A00908018002070470000A5
:101BA0000148FFF7D3BB00BF8018002070B5244E5A
:101BB000244B254C3046254D2360FFF76DFD28460C
:101BC00017F096FD224810F05FFC224B00224FF4E4
:101BD000807121481A8683F858205A6683F870204D
:101BE0005A67DC60C3E912121C49C3E91A121C4986
:101BF00099671C490B604FF4F07101801A4801800D
:101C00004FF488711948C3E90422C3E90622C3E9E5
:101C10000822C3E90A22C3E90E22C3E91022C3E95C
:101C20001422C3E91722C3E901650180104883F833
:101C3000342001800F490A700F4A1A6070BD00BF3E
:101C4000E00A00208C6F0290DC0A002000190020BE
:101C5000C00A002080180020A42C012001000001EF
:101C600000000101B02C0120AA2C0120A62C01208B
:101C7000AC2C0120A82C0120187102900148FFF71C
:101C8000E7BC00BFE00A0020002070478180704759
:101C9000C18070470181704741817047704770472C
:101CA00070477047704710B4C4880368121B84885B
:101CB0005B6D091B12B25DF8044B09B218474FF671
:101CC000FF7383814FF0FF3303621368C3611060B9
:101CD000704790F825201AB190F8242002B11860BE
:101CE0007047002070478B888380012070477047C1
:101CF00080F82610704790F826007047002210B533
:101D0000B1F90840B1F90A10028042808480C18094
:101D100010BD0022028042808280C280704701771D
:101D2000704780ED080A704780F82410704780F8EB
:101D30002510704701207047983070478C307047ED
:101D40008430704770470000034B902283F85A2379
:101D500083F85823704700BF00E100E0094A0A49B0
:101D6000D3680A48C3F30A03013B9BB20B80116995
:101D7000C1F30A01013901801364536B43F001037D
:101D800053637047006801408E1900208C190020B1
:101D9000014BD3F8AC00704700680140024B0122B0
:101DA000C3F8AC105A62704700680140124A536988
:101DB000DB0370B51ED50023C2F88430BFF34F8F0C
:101DC000D2F8803043F6E074C3F3C900C3F34E3356
:101DD0005B0103EA0406014646EA81750139C2F84F
:101DE0007452F9D2203B13F1200FF2D1BFF34F8F81
:101DF000BFF36F8F70BD00BF00ED00E0704770470C
:101E000010B504462C2121F046FB204610BD10B52C
:101E10000446BC2121F03FFB204610BD70B50446AE
:101E200009F04BF823685D6E0FF0B6F901462046C5
:101E3000A84723682046054AD3F888504FF0404110
:101E40000023AC46BDE87040604700BF00FC03C003
:101E500009F01AB809F024B808F0E0BF09F041B958
:101E600090F8252012B103685B691847704700009D
:101E7000034B4FF080629A604FF080729A60704717
:101E800000E100E0084B4FF08062C3F88820BFF308
:101E90004F8FBFF36F8F4FF08072C3F88820BFF36E
:101EA0004F8FBFF36F8F704700E100E0002370B5E4
:101EB000124E05468380124B0360336893F8582016
:101EC0000AB1D86C00B998680368DB6A9847336830
:101ED000B0FA80F4D86C640930B10368DB6A9847C3
:101EE000002808BF44F001042CB9064B2C21064AF7
:101EF000064822F017FA284670BD00BFB02C01201A
:101F0000407602903C7502909A750290D3750290CB
:101F100070B5244E3568BFF35B8F15F001053FD1D6
:101F2000304621F0BAFA00283AD01F4C1F4B04F17A
:101F300034002561E584A562A585C4E90035C4E9BE
:101F4000025510F000FD04F158000BF063FA184B35
:101F50002046A365174B40F8843BFFF7A7FF164BBD
:101F60001648C4F884302433C4F89050C4F88C3038
:101F70006423C4F89C50C4F8A850C4E92835002351
:101F8000C4F8AC30C4F8B030C4F8B430C4F8B830D9
:101F90000B4BC4F8983022F0E3F9304621F089FA6F
:101FA000014870BD8819002090190020A886029071
:101FB00060760290D87602905C860290451D009073
:101FC0003C86029010B5144C236823B3134B144A7B
:101FD0001B6C11888B4213D1124B198803F0BEFF82
:101FE000226892F86A30013382F86A30FFF7E0FA2B
:101FF000206809F0A1FC0020BDE81040FFF7BCB844
:1020000003F0ACFF206803681B6A98470020BDE816
:102010001040FFF7E1B810BDB02C0120006801406E
:102020008E1900208C1900200149002007F06EB99C
:102030000115009008B5642005F07AFCFBE700006C
:1020400007B54FF6FF730190012201A9034805F07F
:10205000A6FA019803B05DF804FB00BF141C002031
:1020600010B594B030220021022408A823F0C8F84B
:102070001422002103A823F0C3F803F08DFF224BA4
:10208000052119201A6F22F018021A671A6C42F003
:1020900080521A641B6C03F080530193019B1B4B0D
:1020A0001A6842F440421A601B6803F440430293EA
:1020B000029B4FF48033CDE9081301230A934FF4B8
:1020C0008003CDE90E434FF4D873CDE9100308A87F
:1020D000CDE9124403F0A0FF00B1FEE703F064FF76
:1020E00000B1FEE70F234FF4A0520590072103A88B
:1020F000CDE903344FF48053CDE9062304F074F99D
:1021000000B1FEE714B010BD00380240007000407E
:1021100080B598B01022002101240BA81C2623F0C2
:102120006FF8032502F062FE4FF00050B84B40F20A
:102130000117ADF82C40CDE90C03B64B0BA80E935C
:1021400002F072FE4FF040438DF82D4000240BA8A2
:102150000C938DF834608DF83740ADF83A4002F0BA
:1021600063FE02230BA88DF837508DF82D3016230F
:10217000ADF83A708DF8343002F056FE4FF010434F
:102180000BA88DF8346004260C938DF82D508DF833
:102190003740ADF83A4002F047FE17230BA88DF800
:1021A0002D608DF834308DF83750ADF83A7002F06C
:1021B0003BFE05230BA88DF838408DF82D301323F6
:1021C0008DF8343002F030FE304602F01DFEBFF3D1
:1021D0004F8FBFF36F8F904AC2F85042BFF34F8FBB
:1021E000BFF36F8F536943F400335361BFF34F8FD5
:1021F000BFF36F8FC2F88440BFF34F8FD2F88030A7
:1022000043F6E074C3F3C900C3F34E335B0103EA42
:102210000406014646EA81750139C2F86052F9D2D6
:10222000203B13F1200FF2D1BFF34F8F536943F4DA
:1022300080335361BFF34F8FBFF36F8F02F0FEFA0D
:102240000024FFF70DFF142200210BA822F0D8FF75
:10225000724B102172481A6B4FF0100801254FF095
:10226000030942F01002082702264FF0400A1A63C1
:102270001A6B02F010020092009A1A6B42F00202EE
:102280001A631A6B02F002020192019A1A6B42F071
:1022900040021A631A6B02F040020292029A1A6B11
:1022A00042F400721A631A6B02F400720392039AEA
:1022B0001A6B42F008021A631A6B02F008020492C9
:1022C000049A1A6B42F480621A631A6B02F48062F9
:1022D0000592059A1A6B42F020021A631A6B02F0FB
:1022E00020020692069A1A6B42F480721A631A6BE5
:1022F00002F480720792079A1A6B42F004021A6382
:102300001A6B02F004020892089A1A6B42F001025A
:102310001A631A6B02F001020992099A1A6B42F0D1
:1023200080021A6300221B6B03F080030A930A9B4E
:1023300003F04AF9002208213A4803F045F9002247
:102340004FF48051384803F03FF90022C02137484C
:1023500003F03AF900224021354803F035F90BA982
:102360002F48CDE90B85CDE90D4902F0A5FF0BA95A
:102370002C48CDE90B75CDE90D4402F09DFF4FF4DB
:1023800080530BA92848CDE90B35CDE90D4402F067
:1023900093FF4FF400630BA923480D96CDE90B344E
:1023A00002F08AFFC0230BA92048CDE90B35CDE907
:1023B0000D4902F081FF0BA91D48CDE90BA5CDE920
:1023C0000D4902F079FF1B481B4B0BA98460C0F834
:1023D00014A08462CDF84480C0E900340423C0E92D
:1023E00003388023C0E90844C0E90634CDE90B88EE
:1023F000CDE90D88CDE90F8804F0E7FC00B1FEE7D8
:1024000002F0BEF802F070F88146B8B1FEE700BFF6
:10241000120000030100010100ED00E0003802405D
:102420000004024000280240002002400008024050
:1024300000180240E01B0020400100A001463422A9
:102440000BA8794C22F0DCFE784B4FF0280E4FF0B1
:10245000350A40F2152240F235212046A4F8349086
:10246000C4F8109084F83690C4E900390923C4E90F
:1024700005E30B23C4E907A340F21B13C4E90923B6
:1024800040F21D13C4E90299C4E90B1303F06EFC7A
:10249000024600B1FEE74FF4F0710B904FF4806CF0
:1024A0004FF48873ADF85C2016938DF85E20CDE96B
:1024B0000C10FF20CDE910020520CDE91421CDE953
:1024C00012C00BA92046CDE90E3603F01AFD00B16B
:1024D000FEE7574B4FF4E132564C18615862C3E99E
:1024E00000420C22C3E90200C3E90520C3E907004A
:1024F000184605F0C8F8814600B1FEE7014642469D
:102500000BA84D4C22F07CFE4FF480334B49204603
:10251000C4F808902561A56184F82090C4F82C9037
:10252000C4F80C90E66184F830906561C4E900134A
:10253000434BA36202F0B8F900B1FEE7CDE90B0509
:102540000D900BA9204602F041FB00B1FEE70BA95C
:102550002046CDE90B7602F039FB00B1FEE73948A1
:102560000126394B0662036000238380C0E90533EE
:1025700002F086FC00B1FEE7344C354BC4E90200A2
:10258000C4E90030C4E90A00C4E90C00204602F0A6
:1025900093FD00B1FEE73146204602F045FE00B152
:1025A000FEE72C4C7F222C4BA061C4E90030FF23B6
:1025B000C4E904002046C4E9022304F0C8FA00B1CB
:1025C000FEE7264942F2100332460B803023C1E970
:1025D000030020468B7004F00DFB054600B1FEE7BA
:1025E0001F490223324620460B7003234B700923F8
:1025F0008B701823CB7004F056FBFEF73DFDFEF701
:102600003AFD05F007F9174A2946174805F03CF945
:10261000164B174A29461860164805F035F9164B2F
:10262000186005F011F9FEE7181B00200068014052
:10263000141C0020001001406C1A002000220140F0
:102640000100000FB41A002000300240D81A002008
:1026500000B00240C01B002000280040501A00209B
:102660004C1A00205C77029035200090681A0020F8
:102670003877029087100090641A00200268034B9C
:102680009A4201D102F0ECB8704700BF0010004040
:10269000FEE700000D4B82B00F216FF001001A6CB5
:1026A00042F080521A641A6C02F080520092009A32
:1026B0005A6C42F480425A6400225B6C03F48043FB
:1026C0000193019B02B002F03FBB00BF0038024003
:1026D00010B588B004461422002103A822F090FD12
:1026E00022681A4B9A422ED103F58B33032403A997
:1026F00017485A6C42F480625A645A6C02F4806241
:102700000092009A1A6B42F020021A631A6B02F0D0
:1027100020020192019A1A6B42F001021A631B6BAC
:1027200003F001030293029B4FF48063CDE903346D
:1027300002F0C2FD012303A90648CDE903340023BA
:10274000059302F0B9FD08B010BD00BF00220140A2
:102750000014024000000240026882B0084B9A4216
:102760000BD1D3F8302803F5006342F480521A638A
:102770001B6B03F480530193019B02B0704700BFB1
:10278000003002400E4B07B502689A4215D1A3F5FE
:10279000F04305215A201A6B42F400021A6300220A
:1027A0001B6B03F400030193019B02F0CDFA5A2046
:1027B00003B05DF804EB02F0F9BA03B05DF804FB76
:1027C00000B0024070B5ACB004461422002106A847
:1027D00022F016FD842200210BA822F011FD2268B0
:1027E000464B9A4240F08880082305200B936423CF
:1027F00010930223CDE9113001230BA8159303F0A8
:10280000CFFE08B1FFF744FF3D4B022400250E2602
:102810005A6C06A93B4842F080625A645A6C02F036
:1028200080620092009A1A6B42F010021A631A6BCF
:1028300002F010020192019A1A6B42F400721A63BC
:102840001A6B02F400720292029A1A6B42F48062CE
:102850001A631A6B02F480620392039A1A6B42F0B5
:1028600040021A631A6B02F040020492049A1A6B37
:1028700042F480721A631B6B03F480730593059B0B
:102880001023CDE90634CDE908540A9602F014FD70
:102890004EF6FF7306A91C480A96CDE90634CDE929
:1028A000085402F009FDF72306A918480A96CDE955
:1028B0000634CDE9085402F0FFFC4FF4805306A91A
:1028C0001348CDE906340923CDE908540A9302F0F0
:1028D000F3FC4FF4464306A90E480A96CDE90634A8
:1028E000CDE9085402F0E8FC58202A46052102F000
:1028F0002BFA582002F05AFA2CB070BD0068014043
:10290000003802400010024000240240002802402B
:10291000001802400020024010B5A2B004468422F4
:10292000002101A822F06CFC22680A4B9A420FD1C8
:10293000202301A801934FF480730D9303F030FE20
:1029400008B1FFF7A5FE044A136F43F40043136771
:1029500022B010BD0028004000380240F0B5ABB0F6
:1029600004461422002104A822F04AFC84220021FB
:1029700009A822F045FC2268204B9A423CD1402312
:1029800009A8099303F00CFE08B1FFF781FE1C4B68
:102990000227002603255A6C072404A9194842F08F
:1029A00010025A645A6C02F010020192019A1A6BDA
:1029B00042F002021A631A6B02F002020292029AB9
:1029C0001A6B42F001021A631B6B089403F00103B7
:1029D0000393039B8023CDE90665CDE9043702F01C
:1029E0006BFC4FF4007304A907480894CDE9043741
:1029F000CDE9066502F060FC2BB0F0BD001001408F
:102A0000003802400004024000000240F0B50023FC
:102A100087B003932A4B1E68002E4ED10122022755
:102A200003250C241A6001A9264B27489A6B42F013
:102A300001029A639B6B03F001030093009B4FF626
:102A40008373CDE90454CDE9013702F035FC48F237
:102A5000331301A91D480594CDE90137CDE903657C
:102A600002F02AFC4CF2037301A919480594CDE940
:102A70000137CDE9036502F01FFC4FF63F0301A9C2
:102A800014480594CDE90137CDE9036502F014FC43
:102A9000242301A910480594CDE90137CDE9036548
:102AA00002F00AFC04230D480DEB03010594CDE967
:102AB0000137CDE9036502F0FFFB07B0F0BD00BFB1
:102AC000A01C002000380240001002400018024004
:102AD000000C024000140240001C024000080240AA
:102AE00008B5144B1A6822BB01224FF683711248B5
:102AF0001A60124A936B23F00103936302F0BEFC49
:102B000048F233110E4802F0B9FC4CF203710D4843
:102B100002F0B4FC4FF63F010B4802F0AFFC242159
:102B20000A4802F0ABFC04210948BDE8084002F065
:102B3000A5BC08BD9C1C00200010024000380240CB
:102B400000180240000C024000140240001C024029
:102B500000080240214B1A6C42F0100270B51A6452
:102B600088B01B6C054601A903A803F0100302936B
:102B7000029B03F0F7FC069B4BBB03F0D3FC184E03
:102B8000184B336040F2E733F360174BB0FBF3F3BD
:102B9000013B3046736000233361B360B36104F0DE
:102BA000D3FA044680B9304604F076F9044658B9A1
:102BB000362002F0FBF80F2D0DD82246294636208C
:102BC00002F0C2F8094B1D60204608B070BD03F04A
:102BD000A9FC4000D3E70124F6E700BF003802401B
:102BE000A41C00200010004040420F0040000020C4
:102BF0007047FEE7FEE7FEE7FEE77047014804F096
:102C00008DB900BFA41C0020014803F01DB900BF0E
:102C1000181B0020014802F07DBA00BFD81A00201E
:102C20000120704708B522F091FB162303604FF096
:102C3000FF3008BD08B522F089FB16230360FEE7CC
:102C400070B50D4614460E46731B9C4201DC2046AF
:102C500070BDAFF3008006F8010BF5E770B50D46C7
:102C600014460E46731B9C4201DC204670BD16F8CC
:102C7000010BFFF7E5F9F5E74FF0FF3070474FF430
:102C8000005300204B6070470120704700207047C0
:102C90000A4A116808B5034609B909491160106864
:102CA000694603448B4206D922F050FB0C23036093
:102CB0004FF0FF3008BD1360FCE700BFF01C0020A0
:102CC000E8380120704710B50446042120F0E3FBEA
:102CD000204610BD012908B506D0022908D059B9EF
:102CE00000F06EFE006808BD00F06AFE4068FAE77A
:102CF00000F066FE8068F6E70020F4E700487047C1
:102D0000947702900720704713B5002451B10368EF
:102D100001AA01948DF803409C680DF10303A047BC
:102D200002B010BD0846FBE7C0897047008A7047B3
:102D3000C088704780887047807A00F07F007047B5
:102D4000807AC00970470020704700009FED010A9B
:102D5000704700BF00000000704710B5044608210E
:102D600020F099FB204610BD7047704700F598731E
:102D70000868496803C370477047704741607047EF
:102D800070470000064BC0F84801C0F84C310023E2
:102D9000C0F8503100F5A273C0F84031704700BF51
:102DA000492E00900123037270477047704710B49A
:102DB00041680346C2689B68541001EB6200D20769
:102DC00048BF0A595DF8044B48BFD35818474368B9
:102DD0002BB183682BB9C06800F00100704718461A
:102DE00070470120704710B504460C2120F053FBBA
:102DF000204610BD10B50446102120F04CFB2046A3
:102E000010BD10B504464FF4AE7120F044FB2046CF
:102E100010BD10B50EF0C0F90368BDE81040DB6BC3
:102E2000184710B50446D0F8400158B10368DB6874
:102E3000984738B1D4F8400103689B68984700234D
:102E4000C4F8403110BD00002DE9F14FD0E9555ACA
:102E50000746A86803681B6A984740F21B639842BC
:102E600005D8464BA321464A464821F05BFA6868DC
:102E700003681B6A98470F2803D8434BA421404A94
:102E8000F2E7E86803681B6A98470B2803D83F4BB2
:102E9000A5213B4AE8E7DFF8FC900EF07DF904300D
:102EA0000EF0B8F9D9F8000010B10368DB68984754
:102EB000D9F8000010B103681B689847DFF8D88084
:102EC000D8F8000010B103685B699847D7F83C0157
:102ED00010B103685B689847D8F8000010B1036828
:102EE0001B689847D7F83C0110B103689B68984766
:102EF000E86800214FF0000B03685B6A9847244B99
:102F00000446C0F804B00360594680F808B0A868C9
:102F100003685B6A9847064600F064FF6868594694
:102F200003685B6A98470546314600F035FFC9F8EB
:102F30000040C7F83C51C8F80060E5B12B1DCAF845
:102F4000003030463368C5F808A0DB68F563984761
:102F50002B6828461B6898472146304610F004FA33
:102F6000236820461B699847236820465B6901B0A7
:102F7000BDE8F04F18472B46E1E700BF30780290DC
:102F8000BE780290C2790290097A0290AC7A0290DF
:102F9000C47B0290F82C0120F42C0120044B1B6808
:102FA00093F858200AB1D86C00B99868704700BFF0
:102FB000B02C0120F8B5044617460E460EF0FCF979
:102FC000104B00251C6029460F4B23600F4BC4E9B2
:102FD00051350F4B1868C4E953550368C4E94F5580
:102FE0009B68C4E955769847284600F09DFCFFF79A
:102FF000D5FF18F0AEF9FFF7D1FF18F025FA2046FB
:10300000F8BD00BF042D0120707B0290587B029018
:10301000B02C0120064BC0F84801C0F84C31002309
:10302000C0F8503100F5A273C0F84031704700BFBE
:10303000492E0090406A7047806A704770478B88BD
:10304000C069DB0A0A6850F823001044704710B5C5
:10305000C2B1137BB3B1547BD27A240204F4E0648E
:103060001443026A98B202EB840213888B4202D1A5
:1030700092F9020010BD05D80138043280B2002850
:10308000F3D1F7E70020F5E710B504462C2120F036
:1030900002FA204610BD000030B58BB00446BDF8E2
:1030A00060500895BDF85C5007959DF85050069506
:1030B0009DF84C5005959DF8485004959DF8445056
:1030C00003959DF8405002959DF83C500195BDF840
:1030D000385000950FF0F4FC064B20462360159BFA
:1030E000E361169B2362199B63621A9BA3620BB078
:1030F00030BD00BFE87B0290704770477047704753
:10310000704730B585B00368044601816D460146BD
:10311000D3F884303C342846984795E8070084E883
:10312000070005B030BD30B585B003680446418165
:103130006D460146D3F884303C342846984795E8DC
:10314000070084E8070005B030BD002202804280FD
:103150008280C280704780F836107047036870B56F
:1031600004461B6B154698472368204629465B6E2C
:10317000BDE87040184700207047806C704770476A
:103180007047704710B504464C2120F084F9204662
:1031900010BD10B5044640F21C6120F07CF92046B9
:1031A00010BD08B5FEF75CFE08BD0000036870B5F1
:1031B0005E6B0446114B8DB21B682BB9104B6C2112
:1031C000104A114821F0AEF81049828D09889142C9
:1031D00003D80F4B6D210B4AF3E713F812200D4B68
:1031E0001B6853F8220003681B6B9847281A334664
:1031F00001B22046BDE87040184700BF082D0120ED
:10320000487C02908A7C0290C57C02900C2D0120A3
:103210000C7D0290102D012000224FF0FF318260C2
:10322000C0E900217047036870B504461B6B154662
:1032300098472368204629465B6BBDE870401847D5
:1032400070B504461D46BDF91060FFF7ECFF23681A
:10325000294620469B6B9847236831462046DB6B06
:10326000BDE87040184700000022C0E90122C0E913
:103270000322C0E90522C0E907224FF4807282844C
:10328000014A0260704700BF907D029010B504466D
:103290002622002121F0B4FF2046FFF7E5FF0A4B6C
:1032A0004FF47F022046A3624FF6FF73A3850023ED
:1032B000C4E90C32054A238722604FF0FF32E363F2
:1032C000A364C4E9102310BD28780290F87D029011
:1032D0002DE9F04F044600254FF6FF76A14604F194
:1032E0006C0A04F1980804F1C40704F52F7B2DED56
:1032F000048B89B00FF08CFE5B4B26222946E563D8
:1033000049F8403B484621F07BFF4846FFF7ACFFB9
:10331000564B06A950462364FF23A56684F8663001
:10332000ADF818600AF0B0FF262229464046ADF8F5
:10333000186021F065FF4046FFF796FF4C4B06A949
:103340004046C4F89830BDF8183084F8C06004F5E1
:10335000D476A4F8BE300BF024FB3846FFF796FF76
:1033600004F58873184608EE903AFFF78FFF04F5CE
:10337000AE73184609EE103AFFF788FF304606F0A4
:1033800013FD584607F0DCF94FF488732A46484687
:10339000294600934FF4F073FFF752FF4FF07F433D
:1033A00049460DF10809A366231D184608EE103A98
:1033B00007F099FA504606A9ADF818500BF0F1FA4B
:1033C0004FF488732A465046294600934FF4F07311
:1033D000FFF736FF504629460AF011FF514618EE16
:1033E000100ADFF8A4A007F07EFA432240460D2120
:1033F000FFF719FF4FF00503404606A9ADF8183056
:103400000BF0CFFA414618EE100A84F8BD5004F2D2
:10341000EC5807F068FA2C221C213846FFF703FF0E
:103420004FF0FF3339464846C4F8F430D4F8C4307E
:10343000A4F8F850D3F88430984704F5807399E8DD
:10344000070083E80700DAF800302BB9094B602148
:10345000094A0A4820F066FF094B1B88052B15D83E
:10346000084B6121044AF4E7887E02901C8A02908E
:10347000848A0290487C02904A7D0290C57C02902A
:103480000C2D01200C7D0290082D01208B4B052175
:10349000186800F085FA8A4A03460821404611F070
:1034A000ADFB3846C4F80C810BF094F94FF00601DF
:1034B00006A8844BADF81C100146384606930BF065
:1034C000A9F9394618EE100A07F00DFA70221821F2
:1034D00018EE900AFFF7A7FE4FF0FF30D4F8103136
:1034E00018EE901AC4F840014846D3F8843004F22C
:1034F000FC57A4F84451984704F5A67399E80700CF
:1035000083E80700DAF80030002B9FD06E490B8863
:10351000032BA5D9694A032104F20C68106800F056
:103520003FFA674A03460821384611F067FB18EE58
:10353000900AC4F8587104270BF04CF906A8614BA7
:10354000014618EE900A0693ADF81C700BF062F974
:1035500018EE901A18EE100A07F0C5F9A9221821E2
:1035600019EE100AFFF75FFE4FF0FF30D4F85C3120
:1035700019EE101AC4F88C014846D3F88430A4F828
:103580009051984704F5CC7399E8070083E8070049
:10359000DAF80030002B3FF459AF4B490B88012B70
:1035A0007FF65EAF454A0121106800F0F9F9444A00
:1035B00003460821404611F021FB19EE100AC4F819
:1035C000A4814FF002080BF005F906AA3D4B19EE55
:1035D000100A1146ADF81C8006930BF01BF919EE8A
:1035E000101A18EE100A07F07EF93046D72218217B
:1035F000FFF719FE1E2330460A2200930C21962362
:1036000006F0B4FB64222B4629463046009506F0AE
:103610002DFC30462D4906F02CFB2A4B3046ADF8E8
:103620001C50069306AB194606F048FB4FF0060106
:103630003046ADF8181006A906F06CFD30463C2166
:1036400006F048FB314618EE100A07F04CF95846D0
:103650001022F021FFF7E7FD7823584601211A4692
:1036600006F032FF424639465846642306F0E1FD33
:1036700057230A225846032106F0CFFD2946584613
:1036800006F08EFE452309224146584606F0B9FD54
:103690002946584606F06AFE0A222B46584611462D
:1036A00006F0D3FD18EE100A594607F01CF9204623
:1036B00009B0BDEC048BBDE8F08F00BF142D0120D4
:1036C000827D0290287802900C2D0120371B0CFF80
:1036D0007047000030B5164D8FB02C68BFF35B8F7C
:1036E00014F0010420D128461FF0D7FEE0B13F239B
:1036F000012210490993104B10480893104B0A946B
:103700000594CDE906430423CDE903320A23CDE92C
:103710000B440093CDE90144FFF7BEFC094820F0BB
:103720001FFE28461FF0C5FE04480FB030BD00BF85
:10373000F41C0020101C10900C970290F81C002024
:10374000B8980290D13600907047000030B5174D00
:103750008FB02C68BFF35B8F14F0010422D1284690
:103760001FF09BFEF0B13F235F2211490993114BDB
:1037700011480893114B0A94079301230194049371
:10378000CDE905330423CDE902431423CDE90B44ED
:1037900000931823FFF780FC094820F0E1FD28463C
:1037A0001FF087FE04480FB030BD00BF241D00206D
:1037B000201C109010970290281D0020BC980290A9
:1037C000493700907047000030B5164D8FB02C6817
:1037D000BFF35B8F14F0010420D128461FF05DFE7B
:1037E000E0B13F23012210490993104B1048089380
:1037F000104B0A940594CDE906430423CDE9033226
:103800002823CDE90B440093CDE90144FFF744FCA4
:10381000094820F0A5FD28461FF04BFE04480FB0D4
:1038200030BD00BF541D002054211090B498029068
:10383000581D0020C0980290C537009000207047A6
:10384000002070470EB403B503AB002153F8042BDE
:1038500001930EF039FC02B05DF804EB03B0704741
:103860000CB407B504AB53F8042B01930EF02CFCF9
:1038700003B05DF804EB02B070470000436C10B574
:10388000044673B3038F2BB9184BC521184A194846
:1038900020F048FDC38E00EB43035B8C0BB310F0AC
:1038A000A7FA238F012B03D8134BCB21134AEEE742
:1038B000E28E40F63F10531C9BB2092B194688BF7D
:1038C000A3F10A0104EB4101498C814209D10A2B81
:1038D00004EB420228BF0023508C04EB43035884BE
:1038E00051842046BDE8104010F084B9B47E0290A7
:1038F000BD7E0290687F0290B27F0290C07F0290EE
:1039000010F041B910B586B002AC84E806001A4642
:103910000AAB214605930193099B0093089B0CF089
:10392000BDFF06B010BD000038B518BB124B1348E0
:103930001C681349B4B122682244026062682244C0
:103940000A60A26814440F4B00221A8000F038F875
:10395000054600F033F80C4B1C600C4B1D600C4B03
:10396000188007E00B4B03600B4B0B600B4B1C6884
:10397000002CE8D138BD00BF841D0020881D002028
:103980008C1D0020901D0020082D0120102D0120ED
:103990000C2D01208021109064211090E8211090BE
:1039A000044B1B6853F82100034B1B6803EB4000DA
:1039B000704700BF8C1D0020881D00200720704725
:1039C00000487047941D002010B5054CFFF7BEFE5F
:1039D0002060FFF7F9FE6060FFF77CFEA06010BD7D
:1039E000941D002010B5002404600C6014601C605D
:1039F00010BD704710B504464FF4AE711FF04BFD7B
:103A0000204610BD10B50446D0F8580100F02CF83F
:103A10002046BDE810400DF05BBC000010B5044628
:103A2000FFF7C8FA014B2046236010BD9C8002902E
