:020000040800F2
:10000000B0080020F51E0008CD1E0008CF1E000815
:10001000D11E0008D31E0008D51E000800000000F5
:10002000000000000000000000000000D71E0008D3
:10003000D91E000800000000DB1E0008DD1E0008BD
:100040001D1F0008211F0008251F0008291F000888
:100050002D1F0008311F0008351F0008391F000838
:100060003D1F0008411F0008451F0008491F0008E8
:100070004D1F0008511F0008551F0008591F000898
:100080005D1F0008611F0008651F0008691F000848
:100090006D1F0008711F0008751F0008791F0008F8
:1000A0007D1F0008811F0008851F0008891F0008A8
:1000B0008D1F0008911F0008951F0008991F000858
:1000C0009D1F0008A11F0008A51F0008A91F000808
:1000D000AD1F0008B11F0008B51F0008B91F0008B8
:1000E000BD1F0008C11F0008C51F0008C91F000868
:1000F000CD1F0008D11F0008D51F0008D91F000818
:10010000DD1F0008E11F0008E51F0008E91F0008C7
:10011000ED1F0008F11F0008F51F0008F91F000877
:10012000FD1F000801200008052000080920000824
:100130000D200008112000081520000819200008D3
:100140001D20000821200008252000082920000883
:100150002D20000831200008352000083920000833
:100160003D200008412000084520000849200008E3
:100170004D20000851200008552000085920000893
:100180005D20000861200008652000086920000843
:100190006D200008712000087520000879200008F3
:1001A0007D200008812000088520000889200008A3
:1001B0008D20000891200008952000089920000853
:1001C0009D200008A12000087CB50400012600F055
:1001D000FBFB0500002C01D101205AE0206A4028D9
:1001E00094F84000012801D1022052E0012084F857
:1001F000400094F8410000280AD1002084F8400013
:10020000200000F0E0FB41F28831200000F0B4FA59
:100210002068006830F4F850A168491E50EA0120B7
:1002200021680860A06C00902B0000222021200093
:1002300000F0A4FA0100C9B2002926D121680A6899
:1002400014490A40616852EA0162E1680A43E169BF
:100250000A43216A0A4321680A6021684A680E49F4
:100260000A40216952EA014261690A43A1690A43CD
:1002700021684A602168096851F001012268116013
:1002800000216164012184F84110002184F84010AC
:10029000C0B276BD2FFFFF00FEF8E0FF10B50400EE
:1002A000002C01D101201AE094F84000012801D16E
:1002B000022014E0012084F8400020680068400813
:1002C000400021680860200000F084FB002060648A
:1002D000002084F84100002084F84000002010BD78
:1002E0002DE9F84304000D0016005FF0010800F04E
:1002F0006BFB0700A8690028E8690028286A002825
:1003000094F84000012801D102203DE0012084F84A
:10031000400094F8410001282FD1002060640220A1
:1003200084F8410000963B0000222021200000F0CC
:1003300025FA81464846C0B2002820D10022290073
:10034000200000F044FA686A002812D100963B00B1
:1003500001220221200000F011FA81464846C0B275
:1003600000280CD102202168C860012084F84100D7
:1003700005E0012084F8410001E05FF0020900205F
:1003800084F840004846C0B2BDE8F2832DE9F84346
:1003900005000C001600002700F016FB80462868B8
:1003A00010F1200995F84000012801D102205EE0FB
:1003B000012085F8400095F84100012850D1002027
:1003C0006864002C45D0122085F841002868006937
:1003D000401CE86228680069401CA8626C622868BA
:1003E000406930F0406029684861E86A002815D00B
:1003F0000096434601220421280000F0BFF90700BF
:100400003800C0B2002809D1686A411C69620078CE
:1004100089F80000E86A401EE862E6E73800C0B2EA
:10042000002812D10096434601220221280000F044
:10043000A5F907003800C0B2002806D102202968BB
:10044000C860280000F04CF90700012085F8410041
:1004500008E0686C50F0080068640120070001E0C3
:1004600002200700002085F840003800C0B2BDE837
:10047000F2832DE9FC4705000C001600002700F070
:10048000A3FA80462868D0F81890286810F1200A4E
:1004900095F84000012801D1022063E0012085F891
:1004A000400095F84100012855D100206864002CD7
:1004B0004AD0222085F8410028680069401CA863C2
:1004C00028680069401C68632C632868406930F024
:1004D000406050F08060296848612868C0F8189032
:1004E000A86B002815D0009643460122062128005B
:1004F00000F044F907003800C0B2002809D1286B89
:10050000411C29639AF800100170A86B401EA86373
:10051000E6E73800C0B2002812D100964346012217
:100520000221280000F02AF907003800C0B2002894
:1005300006D102202968C860280000F0D1F8070021
:10054000012085F8410008E0686C50F008006864FC
:100550000120070001E002200700002085F840008C
:100560003800C0B2BDE8F6872DE9FC4704000D0055
:1005700016001F005FF0010800F026FA8146A86906
:100580000028E8690028286A002894F8400001281B
:1005900001D102204CE0012084F8400094F8410091
:1005A00001283ED100206064422084F84100009779
:1005B0004B4600222021200000F0E0F88246504601
:1005C000C0B200282FD13068216888627068216825
:1005D0004862B0682168C8622068016831F440014F
:1005E0003069014351F4800120680160F068A8621D
:1005F0005FF000622900200000F0E9F800974B4608
:1006000001220821200000F0B9F882465046C0B20D
:10061000002808D108202168C860012084F8410022
:1006200001E05FF0020A002084F840005046C0B2AA
:10063000BDE8F6872DE9F84304000D0016005FF0D1
:10064000010800F0C1F90700A8690028E86900283E
:10065000286A002894F84000012801D102203DE0DA
:10066000012084F8400094F8410001282FD1002097
:100670006064822084F84100A06C00903B0000225E
:100680002021200000F07AF881464846C0B20028B8
:100690001FD12068016831F00801706801432068AB
:1006A0000160706808280BD1306821680863102049
:1006B0002168C8602068006850F4801021680860D4
:1006C0005FF040622900200000F081F801E05FF057
:1006D0000209002084F840004846C0B2BDE8F28319
:1006E0007CB50400002500F06FF9060094F8410085
:1006F00080073ED5002084F840002068006840074D
:1007000011D52068006830F0040021680860E06BB3
:1007100000F07EF905002800C0B2002803D0606C0C
:1007200050F0040060642068006850F00200216806
:100730000860A06C0090330001220221200000F02C
:100740001DF805002800C0B200280BD10220216846
:10075000C860A06C0090330000222021200000F02F
:100760000DF805002800C0B2002802D1012084F84D
:1007700041002800C0B276BD816470472DE9F04188
:1007800005000E0090461F00069C286880683042D5
:1007900001D0012000E000204146C0B2C9B2884229
:1007A00012D014F1010FF0D0002C04D000F00CF99D
:1007B000C01B8442E9D2042085F84100686C50F0E7
:1007C00001006864012000E00020BDE8F08110B461
:1007D0004B6A002B06D0B2F1406F03D08B6A5B1ED0
:1007E000046823618B69002B79D00B6A002B3ED003
:1007F0008B680468E361CB69002B20D0CC6A0B6B5B
:100800001C434B6B1C434B6A1C434B6954EA8344A7
:100810000B691C430B6A1C43CB681C43CB691C430C
:100820008B691C430B681C43144303685C61B2F181
:10083000406F00F0C6804B680468A361C1E0CC6AD9
:100840000B6B1C434B6B1C434B6A1C434B6954EAB8
:1008500083440B691C430B6A1C43CB691C438B69A3
:100860001C430B681C43144303685C61A9E0CB691B
:10087000002B1ED0CC6A0B6B1C434B6B1C434B6A8A
:100880001C434B6954EA83440B6A1C43CB681C43EA
:10089000CB691C438B691C430B681C4314430368DE
:1008A0005C61B2F1406F00F08C804B680468A3611A
:1008B00087E0CC6A0B6B1C434B6B1C434B6A1C439D
:1008C0004B6954EA83440B6A1C43CB691C438B6914
:1008D0001C430B681C43144303685C6171E00B6AA2
:1008E000002B39D08B680468E361CB69002B1DD0E5
:1008F000CC6A0B6B1C434B6B1C434B6A1C434B6910
:1009000054EA83440B691C430B6A1C43CB681C43A9
:10091000CB691C438B691C43144303685C61B2F1CF
:10092000406F4ED04B680468A3614AE0CC6A0B6B01
:100930001C434B6B1C434B6A1C434B6954EA834476
:100940000B691C430B6A1C43CB691C438B691C431A
:10095000144303685C6134E0CB69002B1BD0CC6A84
:100960000B6B1C434B6B1C434B6A1C434B6954EA97
:1009700083440B6A1C43CB681C43CB691C438B69C3
:100980001C43144303685C61B2F1406F19D04B689B
:100990000468A36115E04B6A002B12D0CC6A0B6B84
:1009A0001C434B6B1C434B6A1C434B6954EA834406
:1009B0000B6A1C43CB691C438B691C4314430368BB
:1009C0005C6110BC7047704701480068704700BF09
:1009D000AC000020704730B4002513E050F8042B21
:1009E000D30744BFA9F101039A18091F042942F84B
:1009F000045BFAD213468C0744BF15809B1CC907C1
:100A000048BF1D7050F8041B0029E7D130BC704767
:100A100070B50400A56DFFF7D7FF060094F8350008
:100A2000022806D080206065002084F83400012070
:100A30003BE02068006830F01600216808602068FC
:100A4000406930F0800021684861206C002802D1A4
:100A5000A06C002805D02068006830F008002168EC
:100A6000086020680068400840002168086020682D
:100A70000068C0070ED5FFF7A7FF801B0628F6D336
:100A800020206065002084F83400032084F83500BD
:100A900003200AE03F21E06D8140A960002084F836
:100AA0003400012084F83500002070BD2DE9FC41A0
:100AB00004000026002C01D10120D8E12078C007D5
:100AC0006DD5DFF89405016811F00C01042909D0F7
:100AD000006810F00C0008280ED1DFF880050068CF
:100AE000400209D5DFF86C050068800357D56068BF
:100AF000002854D10120BAE16068B0F5803F06D1EA
:100B0000DFF85005016851F48031016026E060682B
:100B100000280AD1DFF83C05016831F4803101601A
:100B2000016831F48021016018E06068B0F5A02F01
:100B30000AD1DFF82005016851F4802101600168C5
:100B400051F48031016009E0DFF80805016831F4F3
:100B500080310160016831F4802101606068002803
:100B60000ED0FFF731FF0500DFF8E80400688003CE
:100B700015D4FFF729FF401B6528F5D3032076E144
:100B8000FFF722FF0500DFF8CC040068800306D5DC
:100B9000FFF71AFF401B6528F5D3032067E1207893
:100BA000800752D5DFF8B004016811F00C0F09D0AE
:100BB000006810F00C00082816D1DFF8A0040068C7
:100BC000400211D4DFF88C040168890704D5E1687C
:100BD000012901D001204AE1016831F0F8012269C0
:100BE00051EAC201016030E0E06800281AD0DFF865
:100BF0006474386850F001003860FFF7E5FE0500C6
:100C00003868800706D4FFF7DFFE401B0328F7D3C0
:100C100003202CE1386830F0F800216950EAC10067
:100C2000386012E0DFF82C74386840084000386003
:100C3000FFF7CAFE05003868800706D5FFF7C4FE37
:100C4000401B0328F7D3032011E12078000728D5A3
:100C50006069002812D0DFF80874386850F001008D
:100C60003860FFF7B1FE05003868800719D4FFF738
:100C7000ABFE401B0328F7D30320F8E0DFF8E07356
:100C80003868400840003860FFF79EFE050038686D
:100C9000800706D5FFF798FE401B0328F7D30320F3
:100CA000E5E02078400740F18780DFF8C0733868BE
:100CB000C0000AD4386850F080503860386810F0AE
:100CC00080500090009801200600DFF8A483D8F837
:100CD0000000C00513D4D8F8000050F48070C8F8A4
:100CE0000000FFF771FE0500D8F80000C00506D42B
:100CF000FFF76AFE401B6528F6D30320B7E0A06823
:100D0000012806D1DFF86C03016851F00101016090
:100D100025E0A06800280AD1DFF8580301684908D7
:100D200049000160016831F00401016017E0A0682A
:100D300005280AD1DFF83C03016851F00401016085
:100D4000016851F00101016009E0DFF82803016842
:100D5000490849000160016831F004010160A068A0
:100D6000002810D0FFF730FE0500DFF80803006808
:100D7000800719D4FFF728FE401B41F289318842D1
:100D8000F3D3032073E0FFF71FFE0500DFF8E40252
:100D90000068800708D5FFF717FE401B41F2893134
:100DA0008842F3D3032062E03000C0B2012803D1AF
:100DB000386830F080503860A069002856D0DFF8DD
:100DC0009802006810F00C0008284DD0A069022895
:100DD00037D1DFF88072386830F080703860FFF704
:100DE000F3FD80463868800107D5FFF7EDFDB0EBD5
:100DF00008000328F6D3032039E0E169206A0143A3
:100E0000606A51EA8011A06A4008401E51EA004120
:100E1000E06A51EA006151F00051DFF840020160E0
:100E2000386850F080703860FFF7CEFD05003868F4
:100E300080011BD4FFF7C8FD401B0328F7D3032014
:100E400015E0DFF81072386830F080703860FFF716
:100E5000BBFD05003868800108D5FFF7B5FD401BD4
:100E60000328F7D3032002E0012000E00020BDE8C2
:100E7000F6812DE9F04104000D000026002C01D17F
:100E800001209FE0DFF8F071386810F00F00A842F1
:100E90000BD238680009000128433860386810F028
:100EA0000F00A84201D001208CE02078800719D5DE
:100EB0002078400705D5DFF8A001016851F4E05122
:100EC00001602078000705D5DFF88C01016851F436
:100ED00060410160DFF880110A6832F0F002A0681A
:100EE00002430A602078C00737D56068012806D120
:100EF000DFF860010068800311D4012062E06068BF
:100F0000022806D1DFF84C010068800107D40120D7
:100F100058E050480068800701D4012052E0DFF813
:100F20003881D8F800108908890060680143C8F842
:100F30000010FFF749FD0600D8F8000010F00C0083
:100F40006168B0EB810F08D0FFF73EFD801B41F2D6
:100F500089318842F0D3032034E0386810F00F0064
:100F600085420BD238680009000128433860386890
:100F700010F00F00A84201D0012023E020784007A4
:100F800006D535490A6832F4E052E06802430A6047
:100F90002078000707D53048016831F460412269A4
:100FA00051EAC201016000F00FF834492A4A126880
:100FB000C2F30312895CC8402B4908600F2000F07F
:100FC00061F80020BDE8F0812DE9F0410024002502
:100FD000002600272048006810F00C00002804D0EC
:100FE000042804D0082804D031E01E4830E024480A
:100FF0002EE0DFF86880D8F8000010F03F00040011
:10100000D8F8000040020CD5D8F80000C0F38810D2
:101010001B49A1FB00012200002300F059F8050044
:101020000BE0D8F80000C0F388100E49A1FB0001C6
:101030002200002300F04CF80500D8F80000C0F3AF
:101040000140401C40000600B5FBF6F000E00548FA
:10105000BDE8F08100380240083802400438024000
:10106000743802400024F40004000020403802409C
:101070000070004070380240003C0240E41E00084E
:1010800040787D0110B504004FF47A700D4909785D
:10109000B0FBF1F00C490968B1FBF0F000F0B0F9D9
:1010A000002801D001200CE0102C09D200222100E0
:1010B0005FF0FF3000F08FF904480460002000E08A
:1010C000012010BD080000200400002000000020C6
:1010D000BBBBE1B1B2F5803F80F07E80022A1ED911
:1010E0008C46B1FBF2F102FB11C31B0443EA10432F
:1010F000B3FBF2FC02FB1C3380B240EA0343B3FBB8
:10110000F2F002FB103240EA0C4000237047022A42
:1011100005D98446B0FBF2F002FB10C270474AB119
:1011200005D100F0010249085FEA30007047002253
:101130000023704700F078B90B0002000021002066
:101140007047904271EB030CF6D3B3F5803F2FD27A
:10115000F0B5B3FA83F7B1FA81F4A7F10F0E3D1B96
:101160005340CEF1200602FA0EF2F3415340B5F19E
:101170000F0746D80F3C2C444140C4F12006A04044
:10118000F1414140B1FBF3F603FB1611A2FB06450A
:10119000001BA94102D2761E8018594180EA010243
:1011A00021FA0EF362FA0EF200215A403046F0BDE9
:1011B00030B4B1FBF3FC03FB1C11A2FB0C45001B7C
:1011C000A94103D2ACF1010C8018594130BC024650
:1011D0000B46604600217047B2F1807F65D3F0B5C1
:1011E000B2FA82F7B1FA81F4C7F10F063D1B22FA79
:1011F00006F307F1110EF24120355A40B5F10F0701
:10120000B8D94140C4F12006A040F1414140B1FBB2
:10121000F3FC03FB1C11A2FB0C45001BA94103D2EC
:10122000BCF1010C801859410F2F12D30F3FC90395
:1012300041EA5041B1FBF3F603FB1611A2FB064550
:10124000D4EBC030A94102D2761E8018594146EA3B
:10125000CC3C07B34140C7F12006B840F1414140C2
:10126000B1FBF3F603FB1611A2FB0645001BA941D7
:1012700002D2761E8018594180EA010221FA0EF34B
:10128000C7F1200462FA0EF20CFA07F05A402CFA69
:1012900004F13043F0BD80EA010221FA0EF300218F
:1012A00062FA0EF260465A40F0BD8C46B1FBF2F194
:1012B00002FB11C31B0243EA1063B3FBF2FC02FB07
:1012C0001C331B024CEA002043EA1063B3FBF2FC20
:1012D00002FB1C331B024CEA002043EA1063B3FB01
:1012E000F2FC02FB1C331B024CEA002043EA1063B1
:1012F000B3FBF2FC02FB1C324CEA002000237047D7
:1013000010B410F00703DFF8044122684FF6FF0124
:101310000A40DFF8FC1051EA03210A43226010BCA6
:101320007047DFF8E8000068C0F30220704710B48F
:10133000020052B2002A05D40A01364B040064B2FE
:101340001A5508E00A01344B040064B214F00F048B
:10135000234403F8042C10BC704770B4030013F04E
:101360000704D4F10700052801D3042001E0D4F1DB
:101370000700251D072D01D2002500E0E51E0126EE
:1013800016FA00F0401E0140A94016FA05F56D1E40
:101390002A401143080070BC704710B50400601E5D
:1013A000B0F1807F01D301200EE0601E1B49086070
:1013B0000F215FF0FF30FFF7BAFF002018490860E7
:1013C000072018490860002010BD10B50400200057
:1013D000FFF796FF10BD2DE9F04104000D00160047
:1013E0000027FFF79EFF8046320029004046FFF7A6
:1013F000B4FF0100200040B2FFF799FFBDE8F08183
:1014000010B504002000FFF7C8FF10BD0CED00E090
:101410000000FA0500E400E018ED00E014E000E050
:1014200018E000E010E000E07047000010B5CC4C80
:10143000CC4820602000FEF731FF002801D00120B9
:1014400055E000F095F9C8480021C1610021016212
:1014500000214162002141610021C162002101633C
:10146000002141634FF40051C160C0480021016177
:101470000121C160102181605FF480014161012080
:1014800060600420A0601020E0608020B0FA80F04E
:10149000401E20614FF4A06060610020A061002028
:1014A000E061002020622000FEF78EFE002801D0BF
:1014B00001201CE0200000F01BF8002801D00120D2
:1014C00015E0200000F0ACF8002801D001200EE06B
:1014D000200000F04DF8002801D0012007E0200096
:1014E00000F028F8002801D0012000E0002010BD05
:1014F00070B504009C4D4FF48070A8616620286090
:101500000020686241F28836320029002000FEF790
:10151000E7FE002801D001200BE09920286032006E
:1015200029002000FEF7DCFE002801D0012000E0A9
:10153000002070BD1CB504008B494FF440708861D9
:10154000EB2008604FF44060C8615FF04070486273
:101550000A20486100200190002000906A46200087
:10156000FFF768F8002801D0012000E0002016BD38
:1015700030B58FB004004FF4807007908520019043
:1015800000200890002009905FF080700A900020F1
:10159000069001200B9000200C9000200D90002060
:1015A0000E9041F288352A0001A92000FEF798FE2E
:1015B000002801D0012031E02A0069462000FEF712
:1015C00058FF002801D0012028E0200000F09EF8FC
:1015D000002801D0012021E0812001909DF8001019
:1015E00011F00F010A225FF07060B0FA80F08240C3
:1015F00011438DF800102A0001A92000FEF770FEAB
:10160000002801D0012009E02A0069462000FEF7E9
:10161000BDFE002801D0012000E000200FB030BD49
:10162000F0B595B004004FF4807007900020099049
:101630000020069000200C9000200D9000200E90BD
:1016400010201190002013905FF48000149065200A
:101650000190002008905FF080750A9501200B90A2
:101660003F4E41F288373A0001A93000FEF738FEBC
:10167000002801D0012047E03A0069463000FEF71B
:10168000F8FE002801D001203EE006200190002055
:101690000A903A0001A93000FEF722FE002801D08E
:1016A000012031E002200F900220109001201290C2
:1016B000052001900A953B000FAA01A93000FEF712
:1016C00053FF002801D001201EE06120019001207D
:1016D0000B909DF8000010F03F0050F040008DF896
:1016E00000003A0001A93000FEF7FAFD002801D001
:1016F000012009E03A0069463000FEF747FE002865
:1017000001D0012000E0002015B0F0BD70B504004C
:10171000154D4FF44070A8610620286000206862D3
:1017200041F28836320029002000FEF7D9FD00285A
:1017300001D0012013E00D4A022010600220506009
:10174000052028605FF040706862330029002000A7
:10175000FEF70AFF002801D0012000E0002070BD44
:101760000C000020001000A0580000209000002075
:1017700010B586B03648016851F00201016000687A
:1017800010F00200059005983248016851F00201FE
:101790000160016831F0020101602F48016851F0D9
:1017A00002010160016811F00201059105990168CB
:1017B00051F008010160016811F0080105910599D7
:1017C000016851F010010160006810F010000590F0
:1017D0000598402000900A200490022001900120EA
:1017E0000290022003901D4C6946200000F03CF856
:1017F00004200090092004900020029069462000F7
:1018000000F032F84FF40060009009200490144C6E
:101810006946200000F028F84FF48050009009201D
:1018200004906946200000F01FF804200090092071
:10183000049069460B4800F017F84FF400500090F0
:10184000092004906946200000F00EF806B010BD93
:101850003838024018380240303802400004024054
:10186000000C0240001002402DE9F8410022002344
:10187000002400260025102D80F00B81012717FA87
:1018800005F213000A681A4014009C4240F0FF80E1
:101890004A68022A02D04A68122A1FD12A00D208B6
:1018A00000EB8202D2F820C05FF00F0E15F00702A5
:1018B000D2B292001EFA02FE3CEA0E0CD1F810E001
:1018C00015F00702D2B292001EFA02FE5EEA0C0C7C
:1018D00066462A00D20800EB82021662D0F800C0E9
:1018E0005FF0030E2A00D2B252001EFA02F23CEA66
:1018F000020C91F8048018F003082A00D2B25200BA
:1019000018FA02F858EA0C0CC0F800C04A68012A1C
:1019100008D04A68022A05D04A68112A02D04A68CB
:10192000122A1BD186682A00D2B252001EFA02F295
:101930009643D1F80C802A00D2B2520018FA02F86D
:1019400058EA060686604268AF40BA434F68C7F35C
:101950000017AF403A439446C0F804C0C6682A0056
:10196000D2B252001EFA02FE36EA0E068F682A0034
:10197000D2B2520097403E43C6604A68D20040F15E
:101980008680DFF81421176857F4804717601268C3
:1019900012F480420092009ADFF800C12A009208F7
:1019A0005CF822705FF00F0E15F00302D2B29200C5
:1019B0001EFA02FE37EA0E07DFF8E420904201D15A
:1019C000002631E0DFF8DC20904201D101262BE037
:1019D000DFF8D420904201D1022625E0DFF8CC20A8
:1019E000904201D103261FE0DFF8C420904201D1CC
:1019F000042619E02F4A904201D1052614E02E4A10
:101A0000904201D106260FE02C4A904201D10726D0
:101A10000AE02B4A904201D1082605E0294A90426B
:101A200001D1092600E00A26F6B215F00302D2B26F
:101A30009200964037432A0092084CF82270224EBA
:101A40003268A243D1F804C05FEACC3C00D52243FF
:101A500032601E4F3E68A643D1F804C05FEA8C3C5A
:101A600000D526433E601A4F3A68A243D1F804C01D
:101A70005FEACC2C00D522433A60164F3E68A6435D
:101A8000D1F804C05FEA8C2C00D526433E606D1C63
:101A9000F1E6BDE8F1810000443802400838014019
:101AA000000002400004024000080240000C024016
:101AB000001002400014024000180240001C0240C6
:101AC0000020024000240240003C0140043C014050
:101AD000083C01400C3C0140BFF34F8FBFF36F8FB8
:101AE000002049490860BFF34F8FBFF36F8F47480D
:101AF000016851F400310160BFF34F8FBFF36F8F66
:101B00007047BFF34F8FBFF36F8F4048016831F4C8
:101B10000031016000203C490860BFF34F8FBFF3E4
:101B20006F8F704710B4002039490860BFF34F8FA2
:101B300038480168C1F34E32C1F3C900030043F6CF
:101B4000E07010EA421050EA8370334C20601800B5
:101B5000431E0028F3D11000421E0028ECD1BFF331
:101B60004F8F2A48046854F480340460BFF34F8FC9
:101B7000BFF36F8F10BC704710B400202449086079
:101B8000BFF34F8F2148016831F480310160BFF30A
:101B90004F8F20480168C1F34E32C1F3C9000300E2
:101BA00043F6E07010EA421050EA83701B4C20604C
:101BB0001800431E0028F3D11000421E0028ECD16B
:101BC000BFF34F8FBFF36F8F10BC704780B500F02D
:101BD00072F800F07DF800F030F800F027F80028E7
:101BE00001D000F029F800F06CF800200C490860E2
:101BF0000C480D49096801605FF01041096881F3E4
:101C0000088800688047FEE750EF00E014ED00E030
:101C100084ED00E080ED00E060EF00E074EF00E0B4
:101C200010E000E0A80000200400009010B500249F
:101C3000FFF7FCFB204310BDFEE730B591B0002458
:101C4000012005905FF48030069002200B905FF435
:101C500080000C9019200D904FF4D8700E90022047
:101C60000F900820109005A8FEF720FF050028001F
:101C7000C0B2002800D0FEE700F03EF804002000CB
:101C8000C0B2002800D0FEE70F2000900220019093
:101C9000002002904FF4A05003904FF48050049025
:101CA00006216846FFF7E5F80100C9B2002900D017
:101CB000FEE711B030BD80B5FFF70EFFFFF732FF32
:101CC00001BD80B5FFF71DFFFFF756FF01BD000006
:101CD00080B50748016851F4807101600320FFF767
:101CE00074FB0F20FFF7CEF900F004F8002002BDCE
:101CF000003C0240704700007CB500241B4801688E
:101D000051F080510160006810F080500090009800
:101D1000154E306850F480303060FEF755FE0500F7
:101D2000104C2068C00308D4FEF74EFE401B40F262
:101D3000E9318842F4D3032013E0306850F40030D6
:101D40003060FEF741FE06002068800308D4FEF7ED
:101D50003BFE801B40F2E9318842F5D3032000E0CE
:101D6000002076BD04700040007000404038024002
:101D70000F48016851F4700101600E49086850F085
:101D80000100086000200C4A10600A680B480240FD
:101D90000A600B480B4A1060086830F48020086025
:101DA0000020094908605FF000600849086070473A
:101DB00088ED00E00038024008380240FFFFF6FEE0
:101DC00010300024043802400C38024008ED00E0D6
:101DD00030B450F8041B79B10268436802440830FB
:101DE000DC0744BFA9F10104E31852F8045B43F88F
:101DF000045B091FF9D1ECE730BC704710B5074907
:101E000079441831064C7C44163404E00A68081DF5
:101E1000114488470146A142F8D110BD2C000000B2
:101E20004C0000004EF68851CEF20001086840F4E4
:101E300070000860BFF34F8FBFF36F8F4FF00070DB
:101E4000E1EE100A704700008FEBFFFFA4000000D6
:101E50000C0000200000000079FFFFFF0C000000D4
:101E6000B0000000000000200000000000F00DF8AD
:101E7000002801D0FFF7C2FFAFF300800020AFF3CE
:101E80000080FFF7A3FE00F002F80120704700F089
:101E900001B800000746384600F002F8FBE70000F2
:101EA00080B5AFF30080024A11001820ABBEFBE7FB
:101EB0002600020003480168034A1278891801606D
:101EC000704700BFAC000020080000207047FEE70C
:101ED000FEE7FEE7FEE770477047704780B5FFF703
:101EE000E9FF01BD00000000000000000102030442
:101EF000060708090148804701480047711D00088E
:101F0000051F0008AFF30080FFF78CFFFFF7AEFF5F
:101F1000100000000024F40001000000FFF7FEBFE5
:101F2000FFF7FEBFFFF7FEBFFFF7FEBFFFF7FEBFE5
:101F3000FFF7FEBFFFF7FEBFFFF7FEBFFFF7FEBFD5
:101F4000FFF7FEBFFFF7FEBFFFF7FEBFFFF7FEBFC5
:101F5000FFF7FEBFFFF7FEBFFFF7FEBFFFF7FEBFB5
:101F6000FFF7FEBFFFF7FEBFFFF7FEBFFFF7FEBFA5
:101F7000FFF7FEBFFFF7FEBFFFF7FEBFFFF7FEBF95
:101F8000FFF7FEBFFFF7FEBFFFF7FEBFFFF7FEBF85
:101F9000FFF7FEBFFFF7FEBFFFF7FEBFFFF7FEBF75
:101FA000FFF7FEBFFFF7FEBFFFF7FEBFFFF7FEBF65
:101FB000FFF7FEBFFFF7FEBFFFF7FEBFFFF7FEBF55
:101FC000FFF7FEBFFFF7FEBFFFF7FEBFFFF7FEBF45
:101FD000FFF7FEBFFFF7FEBFFFF7FEBFFFF7FEBF35
:101FE000FFF7FEBFFFF7FEBFFFF7FEBFFFF7FEBF25
:101FF000FFF7FEBFFFF7FEBFFFF7FEBFFFF7FEBF15
:10200000FFF7FEBFFFF7FEBFFFF7FEBFFFF7FEBF04
:10201000FFF7FEBFFFF7FEBFFFF7FEBFFFF7FEBFF4
:10202000FFF7FEBFFFF7FEBFFFF7FEBFFFF7FEBFE4
:10203000FFF7FEBFFFF7FEBFFFF7FEBFFFF7FEBFD4
:10204000FFF7FEBFFFF7FEBFFFF7FEBFFFF7FEBFC4
:10205000FFF7FEBFFFF7FEBFFFF7FEBFFFF7FEBFB4
:10206000FFF7FEBFFFF7FEBFFFF7FEBFFFF7FEBFA4
:10207000FFF7FEBFFFF7FEBFFFF7FEBFFFF7FEBF94
:10208000FFF7FEBFFFF7FEBFFFF7FEBFFFF7FEBF84
:10209000FFF7FEBFFFF7FEBFFFF7FEBFFFF7FEBF74
:0420A000FFF7FEBF89
:0200000490006A
:1000000000000520990F0090AD2A0090AF2A0090C3
:10001000B12A0090B32A0090B52A00900000000099
:10002000000000000000000000000000F17A0090D5
:10003000B72A009000000000917B0090F57B0090B3
:10004000E90F0090E90F0090E90F0090E90F009090
:10005000E90F0090E90F0090E90F0090E90F009080
:10006000E90F0090E90F0090E90F0090E90F009070
:10007000E90F0090E90F0090E90F0090E90F009060
:10008000E90F0090E90F0090E90F0090E90F009050
:10009000E90F0090E90F0090E90F0090E90F009040
:1000A000E90F0090E90F0090E90F0090E90F009030
:1000B000E90F0090E90F0090E90F0090E90F009020
:1000C000E90F0090E90F0090E90F0090E90F009010
:1000D000E90F0090E90F0090E90F0090E90F009000
:1000E000E90F0090E90F0090E90F0090E90F0090F0
:1000F000E90F0090E90F0090E90F0090E90F0090E0
:10010000E90F0090E90F0090E90F0090E90F0090CF
:10011000E90F0090E90F0090B92A0090E90F0090D4
:10012000E90F0090E90F0090E90F0090E90F0090AF
:10013000E90F0090E90F0090E90F0090E90F00909F
:10014000E90F0090E90F0090E90F0090E90F00908F
:10015000E90F0090E90F0090E90F0090E90F00907F
:10016000E90F0090E90F0090E90F0090E90F00906F
:10017000E90F0090E90F0090E90F0090E90F00905F
:10018000E90F0090E90F0090E90F0090E90F00904F
:10019000E90F0090E90F0090E90F0090E90F00903F
:1001A000C52A0090E90F0090D12A0090E90F009035
:1001B000E90F0090E90F0090E90F0090E90F00901F
:0801C000E90F0090E90F009027
:1001D00010B5054C237833B9044B13B10448AFF381
:1001E00000800123237010BD2801002000000000C2
:1001F0007C37029008B5034B1BB103490348AFF3AA
:10020000008008BD000000002C0100207C37029017
:1002100001F0FF01102A2BDB10F0070F08D010F8B7
:10022000013B013A8B422DD010F0070F42B3F6D1BB
:10023000F0B441EA012141EA014122F007047FF0D4
:1002400000070023F0E80256083C85EA010586EA2B
:10025000010685FA47F5A3FA87F586FA47F6A5FA67
:1002600087F68EB9EED1F0BC01F0FF0102F0070273
:1002700032B110F8013B013A83EA010313B1F8D11E
:100280000020704701387047002D06BF35460338FF
:10029000073815F0010F07D1013015F4807F02BF38
:1002A000013015F4C03F0130F0BC0138704700BF89
:1002B00081F0004102E000BF83F0004330B54FEA17
:1002C00041044FEA430594EA050F08BF90EA020F84
:1002D0001FBF54EA000C55EA020C7FEA645C7FEA17
:1002E000655C00F0E2804FEA5454D4EB5555B8BF3A
:1002F0006D420CDD2C4480EA020281EA030382EAAB
:10030000000083EA010180EA020281EA0303362D3C
:1003100088BF30BD11F0004F4FEA01314FF4801C0F
:100320004CEA113102D0404261EB410113F0004F21
:100330004FEA03334CEA133302D0524263EB4303D8
:1003400094EA050F00F0A780A4F10104D5F1200E76
:100350000DDB02FA0EFC22FA05F2801841F10001D1
:1003600003FA0EF2801843FA05F359410EE0A5F1A5
:1003700020050EF1200E012A03FA0EFC28BF4CF0D6
:10038000020C43FA05F3C01851EBE37101F000458C
:1003900007D54FF0000EDCF1000C7EEB00006EEB99
:1003A0000101B1F5801F1BD3B1F5001F0CD3490823
:1003B0005FEA30004FEA3C0C04F101044FEA44527A
:1003C00012F5800F80F09A80BCF1004F08BF5FEA01
:1003D000500C50F1000041EB045141EA050130BDE1
:1003E0005FEA4C0C404141EB0101013C28BFB1F5F3
:1003F000801FE9D291F0000F04BF01460020B1FA3E
:1004000081F308BF2033A3F10B03B3F120020CDA10
:100410000C3208DD02F1140CC2F10C0201FA0CF0EE
:1004200021FA02F10CE002F11402D8BFC2F1200C53
:1004300001FA02F120FA0CFCDCBF41EA0C01904009
:10044000E41AA2BF01EB0451294330BD6FEA040452
:100450001F3C1CDA0C340EDC04F11404C4F120023D
:1004600020FA04F001FA02F340EA030021FA04F34F
:1004700045EA030130BDC4F10C04C4F1200220FAA6
:1004800002F001FA04F340EA0300294630BD21FAE4
:1004900004F0294630BD94F0000F83F4801306BFAA
:1004A00081F480110134013D4EE77FEA645C18BF9E
:1004B0007FEA655C29D094EA050F08BF90EA020F35
:1004C00005D054EA000C04BF1946104630BD91EA2D
:1004D000030F1EBF0021002030BD5FEA545C05D130
:1004E0004000494128BF41F0004130BD14F580046F
:1004F0003CBF01F5801130BD01F0004545F0FE41E3
:1005000041F470014FF0000030BD7FEA645C1ABF17
:10051000194610467FEA655C1CBF0B46024650EA4E
:10052000013406BF52EA033591EA030F41F400217A
:1005300030BD00BF90F0000F04BF0021704730B500
:100540004FF4806404F132044FF000054FF00001D5
:1005500050E700BF90F0000F04BF0021704730B596
:100560004FF4806404F1320410F0004548BF40426B
:100570004FF000013EE700BF42004FEAE2014FEAC0
:1005800031014FEA02701FBF12F07F4393F07F4F9B
:1005900081F06051704732F07F4208BF704793F09E
:1005A0007F4F04BF41F40021704730B54FF46074B1
:1005B00001F0004521F000411CE700BF50EA0102B4
:1005C00008BF704730B54FF000050AE050EA01025D
:1005D00008BF704730B511F0004502D5404261EBCD
:1005E00041014FF4806404F132045FEA915C3FF40E
:1005F000D8AE4FF003025FEADC0C18BF03325FEAAB
:10060000DC0C18BF033202EBDC02C2F1200300FA5B
:1006100003FC20FA02F001FA03FE40EA0E0021FA80
:1006200002F11444BDE600BF70B54FF0FF0C4CF46E
:10063000E06C1CEA11541DBF1CEA135594EA0C0F20
:1006400095EA0C0F00F0DEF82C4481EA030621EA5B
:100650004C5123EA4C5350EA013518BF52EA033596
:1006600041F4801143F4801338D0A0FB02CE4FF048
:100670000005E1FB02E506F00042E0FB03E54FF078
:100680000006E1FB03569CF0000F18BF4EF0010E70
:10069000A4F1FF04B6F5007F64F5407404D25FEA6C
:1006A0004E0E6D4146EB060642EAC62141EA55511F
:1006B0004FEAC52040EA5E504FEACE2EB4F1FD0C61
:1006C00088BFBCF5E06F1ED8BEF1004F08BF5FEADF
:1006D000500E50F1000041EB045170BD06F0004691
:1006E00046EA010140EA020081EA0301B4EB5C043E
:1006F000C2BFD4EB0C0541EA045170BD41F4801136
:100700004FF0000E013C00F3AB8014F1360FDEBF5A
:10071000002001F0004170BDC4F10004203C35DA36
:100720000C341BDC04F11404C4F1200500FA05F3B9
:1007300020FA04F001FA05F240EA020001F000425A
:1007400021F0004110EBD37021FA04F642EB0601D0
:100750005EEA430E08BF20EAD37070BDC4F10C04FA
:10076000C4F1200500FA04F320FA05F001FA04F2BE
:1007700040EA020001F0004110EBD37041F10001AA
:100780005EEA430E08BF20EAD37070BDC4F12005B5
:1007900000FA05F24EEA020E20FA04F301FA05F21D
:1007A00043EA020321FA04F001F0004121FA04F2C5
:1007B00020EA020000EBD3705EEA430E08BF20EA95
:1007C000D37070BD94F0000F0FD101F000464000CF
:1007D00041EB010111F4801F08BF013CF7D041EA51
:1007E000060195F0000F18BF704703F00046520055
:1007F00043EB030313F4801F08BF013DF7D043EA26
:100800000603704794EA0C0F0CEA135518BF95EADB
:100810000C0F0CD050EA410618BF52EA4306D1D162
:1008200081EA030101F000414FF0000070BD50EA81
:10083000410606BF1046194652EA430619D094EA0B
:100840000C0F02D150EA013613D195EA0C0F05D1F5
:1008500052EA03361CBF104619460AD181EA030149
:1008600001F0004141F0FE4141F470014FF0000001
:1008700070BD41F0FE4141F4780170BD70B54FF09C
:10088000FF0C4CF4E06C1CEA11541DBF1CEA13551C
:1008900094EA0C0F95EA0C0F00F0A7F8A4EB0504FE
:1008A00081EA030E52EA03354FEA013100F08880F5
:1008B0004FEA03334FF0805545EA131343EA1263BE
:1008C0004FEA022245EA111545EA10654FEA002673
:1008D0000EF000419D4208BF964244F1FD0404F52C
:1008E000407402D25B084FEA3202B61A65EB030588
:1008F0005B084FEA32024FF480104FF4002CB6EB45
:10090000020E75EB030E22BFB61A754640EA0C00C4
:100910005B084FEA3202B6EB020E75EB030E22BF04
:10092000B61A754640EA5C005B084FEA3202B6EB45
:10093000020E75EB030E22BFB61A754640EA9C0004
:100940005B084FEA3202B6EB020E75EB030E22BFD4
:10095000B61A754640EADC0055EA060E18D04FEA92
:10096000051545EA16754FEA06164FEAC30343EA32
:1009700052734FEAC2025FEA1C1CC0D111F4801FFF
:100980000BD141EA00014FF000004FF0004CB6E7F8
:1009900011F4801F04BF01430020B4F1FD0C88BF97
:1009A000BCF5E06F3FF6AFAEB5EB030C04BFB6EBA2
:1009B000020C5FEA500C50F1000041EB045170BD95
:1009C0000EF0004E4EEA113114EB5C04C2BFD4EBC2
:1009D0000C0541EA045170BD41F480114FF0000E46
:1009E000013C90E645EA060E8DE60CEA135594EAC2
:1009F0000C0F08BF95EA0C0F3FF43BAF94EA0C0FC5
:100A00000AD150EA01347FF434AF95EA0C0F7FF439
:100A100025AF104619462CE795EA0C0F06D152EA8D
:100A200003353FF4FDAE1046194622E750EA410671
:100A300018BF52EA43067FF4C5AE50EA41047FF482
:100A40000DAF52EA43057FF4EBAE12E74FF0FF3CE7
:100A500006E000BF4FF0010C02E000BF4FF0010CB8
:100A60004DF804CD4FEA410C7FEA6C5C4FEA430C31
:100A700018BF7FEA6C5C1BD001B050EA410C0CBF80
:100A800052EA430C91EA030F02BF90EA020F0020E2
:100A9000704710F1000F91EA030F58BF994208BF49
:100AA00090422CBFD8176FEAE37040F00100704706
:100AB0004FEA410C7FEA6C5C02D150EA013C07D15D
:100AC0004FEA430C7FEA6C5CD6D152EA033CD3D0A8
:100AD0005DF8040B704700BF8446104662468C46A2
:100AE0001946634600E000BF01B5FFF7B7FF0028D5
:100AF00048BF10F1000F01BD4DF808EDFFF7F4FFFE
:100B00000CBF012000205DF808FB00BF4DF808ED88
:100B1000FFF7EAFF34BF012000205DF808FB00BFAB
:100B20004DF808EDFFF7E0FF94BF012000205DF8CD
:100B300008FB00BF4DF808EDFFF7CEFF94BF012082
:100B400000205DF808FB00BF4DF808EDFFF7C4FF7B
:100B500034BF012000205DF808FB00BF4FEA4102CE
:100B6000B2F1E04324BFB3F5001CDCF1FE5C0DD90B
:100B700001F0004C4FEAC0024CEA5070B2F1004F55
:100B800040EB830008BF20F00100704711F0804F58
:100B900021D113F13872BCBF01F00040704741F41D
:100BA00080114FEA5252C2F11802C2F1200C10FA21
:100BB0000CF320FA02F018BF40F001004FEAC12305
:100BC0004FEAD32303FA0CFC40EA0C0023FA02F3A9
:100BD0004FEA4303CCE77FEA625307D150EA01337F
:100BE0001EBF4FF0FE4040F44000704701F000404F
:100BF00040F0FE4040F40000704700BF7BB972B97E
:100C00000029BEBF00204FF0004106E008BF0028C9
:100C10001CBF6FF000414FF0FF3000F0BBB9ADF1E9
:100C2000080C6DE904CE002909DB002B1ADB00F06B
:100C30004DF8DDF804E0DDE9022304B070474042DE
:100C400061EB4101002B1BDB00F040F8DDF804E014
:100C5000DDE9022304B0404261EB4101524263EB03
:100C600043037047524263EB430300F02FF8DDF873
:100C700004E0DDE9022304B0404261EB410170472A
:100C8000524263EB430300F021F8DDF804E0DDE9B4
:100C9000022304B0524263EB4303704753B94AB98D
:100CA000002908BF00281CBF4FF0FF314FF0FF3074
:100CB00000F070B9ADF1080C6DE904CE00F006F853
:100CC000DDF804E0DDE9022304B070472DE9F047C8
:100CD000089E0D4604460F46002B4AD18A42944690
:100CE00065D9B2FA82F343B102FA03FCC3F12002E0
:100CF0009F4020FA02F217439C404FEA1C4E1FFA15
:100D00008CF5B7FBFEF1220C0EFB117742EA07428D
:100D100001FB05F090420AD91CEB020201F1FF37FA
:100D200080F01C81904240F2198102396244121A0B
:100D3000A4B2B2FBFEF00EFB102244EA024400FB18
:100D400005F5A5420AD91CEB040400F1FF3280F03E
:100D50000781A54240F204816444023840EA014020
:100D6000641B00211EB1DC400023C6E90043BDE83E
:100D7000F0878B4208D9002E00F0ED800021C6E9F3
:100D800000050846BDE8F087B3FA83F1002949D190
:100D9000AB4202D3824200F2F880841A65EB030270
:100DA00001201746002EE2D0C6E90047DFE702B96E
:100DB000FFDEB2FA82F3002B40F090808A1A4FEAED
:100DC0001C471FFA8CFE0121B2FBF7F507FB15202B
:100DD000220C42EA00420EFB05F0904208D91CEBBF
:100DE000020205F1FF3802D2904200F2CB80454664
:100DF000121AA4B2B2FBF7F007FB102244EA024435
:100E00000EFB00FEA64508D91CEB040400F1FF32DE
:100E100002D2A64500F2BB801046A4EB0E0440EAC5
:100E200005409FE7C1F120078B4022FA07FC4CEAFE
:100E3000030C05FA01F420FA07F3FD404FEA1C49C0
:100E40002343B5FBF9F81FFA8CFE09FB18551C0C5F
:100E500044EA054408FB0EF5A54202FA01F200FA45
:100E600001F00BD91CEB040408F1FF3A80F08880F4
:100E7000A54240F28580A8F102086444641B9DB23B
:100E8000B4FBF9F309FB134445EA044403FB0EFEEB
:100E9000A64508D91CEB040403F1FF356CD2A64526
:100EA0006AD9023B644443EA0843A3FB0295A4EBDE
:100EB0000E04AC42C846AE4656D353D056B1B0EB42
:100EC000080264EB0E0404FA07F7CA40CC4017434B
:100ED000C6E9007418460021BDE8F087C3F120017F
:100EE00002FA03FC20FA01F225FA01F19D402A439F
:100EF0004FEA1C471FFA8CFEB1FBF7F007FB1015F9
:100F0000110C41EA054100FB0EF58D4204FA03F491
:100F100008D91CEB010100F1FF382FD28D422DD9E9
:100F200002386144491B92B2B1FBF7F507FB15117A
:100F300042EA014205FB0EF1914208D91CEB020284
:100F400005F1FF3816D2914214D9023D6244521A7B
:100F500045EA004138E73146304608E73946E6E6DB
:100F60001046FBE64845A9D2B9EB020865EB0C0E2A
:100F7000013BA3E74546EAE72B4694E74046D1E725
:100F8000D0467BE7023D624432E708460AE7644404
:100F9000023842E7704700BFDFF834D0002103E099
:100FA0000C4B5B58435004310B480C4B42189A428F
:100FB000F6D30B4A02E0002342F8043B094B9A4265
:100FC000F9D303F033FB21F05DFE01F053F87047D5
:100FD000000005201C5B029000000020280100207A
:100FE0002801002028340120FEE7704708B500F0F2
:100FF0008FFDBDE8084000F013BD00F08BBD4068D8
:1010000070474160704700004FF0E022D2F8FC3D8D
:1010100043F08073C2F8FC3D054B064AD3F8B01F7D
:101020000A43C3F8B02F1A6842F001021A607047F1
:10103000001000E055CEACC5511A01EB5301B1FBD5
:10104000F3F07047014B5868704700BF001000E094
:10105000704710B504460C2120F00DFC204610BD51
:10106000036810B51B69044631B19847A2686368EC
:101070009B1A1844606010BD9847A060FBE770475A
:1010800030B58DB00D46144600212C2201A821F068
:1010900050FD01A803F00CFA9DF8040030B1BDF832
:1010A000063001202B60BDF8103023600DB030BD3C
:1010B00010B50446042120F0DEFB204610BD0000E0
:1010C00008B54FF488714FF4F07003F09BF928B124
:1010D000034B2021034A044821F014FB08BD00BF44
:1010E000083802902938029053380290032823D8F8
:1010F000DFE800F0020B131A104B102110481A6899
:10110000B2FA82F2520904F087B90C4B40215A68B6
:10111000B2FA82F252090B48F5E7084B80219A682F
:10112000B2FA82F25209F6E7044B40210648DA6827
:10113000B2FA82F25209E6E7704700BF440100208C
:10114000000402400008024000180240032823D88F
:10115000DFE800F0020B131A104B102110481A6838
:10116000003A18BF012204F057B90C4B40215A68CD
:10117000003A18BF01220B48F5E7084B80219A6816
:10118000003A18BF0122F6E7044B40210648DA680E
:10119000003A18BF0122E6E7704700BF4401002073
:1011A00000040240000802400018024003280FD843
:1011B000DFE800F00206090B1021064804F031B9FF
:1011C00040210548FAE78021FBE740210348F5E785
:1011D000704700BF000402400008024000180240AF
:1011E00008B5032813D8DFE800F0020A0D0F10211C
:1011F000084804F00BF9431E5842584108BD4021ED
:101200000548F6E78021FBE740210448F1E700208C
:10121000F1E700BF0004024000080240001802404D
:1012200070B5084D00240126E0B2FFF7D9FF18B1D0
:101230002B68012B18BF2E6001340435052CF3D127
:1012400070BD00BF44010020012380F8781080F8B1
:10125000793070470020704741640039024B18BF55
:1012600001211970704700BFEF270120002070474F
:10127000836B0BB10846184770474FF6FF707047F5
:10128000406803689B6918477047000038B50446FA
:1012900000F07EFD084923682046084DD3F88C30C5
:1012A00098470023284684F84A30FFF7ADFE012313
:1012B000256184F8703038BD00F807C05401002063
:1012C00008B503680446D3F8803098472368204661
:1012D0009B6F984700F032F9236820461B6F9847B0
:1012E0004FF48051064804F09CF80821054804F0AA
:1012F00098F800F023F9236820461B6F9847F8E719
:10130000002002400028024010B5044609F028FDE4
:1013100023682046D3F8AC30BDE81040184700F0F1
:10132000F1BC00F0F5BC000070B500F04FFD1049B5
:101330000023C1F88430BFF34F8FD1F8803043F6DB
:10134000E074C3F3C900C3F34E335B0103EA040640
:10135000024646EA8275013AC1F87452F9D2203B3E
:1013600013F1200FF2D1BFF34F8FBFF36F8F70BD1A
:1013700000ED00E000F0A2BC00F034BD00F03CBD88
:1013800000F0A6BC08F058BF10B504467C2120F040
:1013900072FA204610BD90F87A301BB1406803689D
:1013A0001B6818471846704790F834100D4B10B55D
:1013B00090F878401A788C4209D03AB90A490B4A19
:1013C00008881488108001220C801A7010BD002A31
:1013D000FCD0064A0449148808880C80108000223A
:1013E000F3E700BFE8270120E6270120E4270120DA
:1013F00070B50D46194635B9094B40F2D221094A5C
:10140000094821F07FF9C0E90F52003A074B18BF95
:1014100001221A700368BDE87040D3F88C30184779
:10142000B8380290F03802903E390290EE27012041
:1014300008B5094B1B888B4203D8084B1B88934285
:1014400005D9074B9E21074A074821F05BF9074B56
:101450001980074B1A8008BDE4270120E6270120E8
:1014600083390290E63902903E390290EA27012042
:10147000EC270120014608B5034B186801B1012192
:1014800009F088FC012008BDF0270120034B002251
:101490005A609A60024A1A60704700BF54010020E7
:1014A000E83702900121002208B5084605F0EEFF5A
:1014B0000A4B186028B90A4B28210A4A0A4821F029
:1014C00021F900220421012006F0A6F8074B18603C
:1014D00018B9074B2C21034AF0E708BD640100202E
:1014E000043B02904D3B02907C3B02906001002047
:1014F000C63B0290024B4FF0FF31186806F01CB853
:1015000064010020014B186806F050B86401002007
:10151000024B0021186806F00FB800BF64010020DC
:10152000FFF7F0BF0023034803491A46006806F09E
:10153000B9B800BF600100200400002013B50023EB
:10154000074C01A91A46206806F0EEF84FF0FF3369
:10155000002201A9206806F0E7F802B010BD00BF24
:101560006001002003685B6C184701207047036826
:101570009B6A18470D4B82B01A6B42F400021A6343
:101580001A6B02F400020192019A1A6942F40002F5
:101590001A611A6922F400021A61054B054A1A61A0
:1015A0004FF08062044B9A6002B0704700380240EE
:1015B00038160020FD15009000E100E040F2EF3009
:1015C00070470000054B4FF080620360044BC3F886
:1015D0008820BFF34F8FBFF36F8F7047603D02903D
:1015E00000E100E010B504464FF45A61FFF7EAFF4E
:1015F000204620F040F9204610BD0000024B1B6839
:10160000586803685B691847F027012070B50446E5
:101610000A4B0C30002625466022606026726672F6
:1016200045F8203B294609F00BFD04F55A63EE60AE
:101630002435AB42FBD1204670BD00BF603D029017
:1016400008B50B290BD8DFE801F01206100A0A0AC8
:101650000A0808080808012008BD0520FCE7054B1A
:101660006521054A054821F04DF80020F4E70220E5
:10167000F2E700BF083C0290233C02906D3C0290D0
:1016800008B50A2909D8DFE801F010060E08080895
:10169000080606060600012008BD054B8621054AFE
:1016A000054821F02FF80020F6E70220F4E700BFFC
:1016B000083C0290B53C02906D3C02902DE9F84345
:1016C00091F81D800C4607464146FFF7B9FF94F894
:1016D0001E90054638464946FFF7B2FF4946064682
:1016E0003846FFF7CDFFA18A628B434B521A1A642A
:1016F0009A61228B521A1A61E28A586342EA0142C5
:1017000020695A646268D863DA602768802F28D01D
:10171000227F0FD8202F65D0402F63D0042F1AD0FE
:1017200045EA0265344BC84545F40035DD615FD0BC
:10173000324A44E0B7F5807F04D0B7F5007FEFD19F
:101740002F4900E02F4941EA0262DA61E2681A6239
:101750005E62586132E045EA026242F40032DA61C8
:10176000F6E7A7683A1DDA62217F3A7845EA016513
:1017700045F40035DD615E62586142B1012A21D035
:10178000214B4FF48871214A214820F0BBFFDA69D0
:10179000798822F47F42013922F0100242EA0122C4
:1017A0000121DA61144BDA6942F02002DA61DA6968
:1017B0009206FCD410229A600029B9D0154A1A600A
:1017C000BDE8F883DA69FF39788822F47F4218BFD0
:1017D0000121013822F0100242EA002242F01002F8
:1017E000DA61DFE745EA0262034B42F40032B6E712
:1017F00040F20122E3E700BF00B002400102010015
:10180000090002000A000200003D02901A3D029009
:101810006D3C02900102020038B50C46897FFFF74B
:101820002FFF174BA58AE28A586342EA05422169D5
:101830005A64628BD963521B1A642568082D0ED135
:101840009A611A6158620F4A207F42EA0062DA61A7
:10185000E2681A620C4A5961D9601A6038BD0022E8
:10186000D8611A61E1680A0A4809C1F3C40102F4A7
:10187000784200F4FC6002430A439A63034AECE7AF
:1018800000B0024009000100010202000102030051
:10189000034B1A68D207FCD423229A60704700BF1A
:1018A00000B0024030B5104C2568ED07FCD423256C
:1018B0000904FF2BA56041F001014FF002056563AB
:1018C0006164E0630AD00949656241EA0363E36148
:1018D000074B22626061E060236030BDE561039BDD
:1018E000A363044BF8E700BF00B002400900010009
:1018F0000100020001000300012070470C20704726
:101900000C2303FB0100083070470C2303FB01008C
:1019100008307047012070474FF43B7070474FF418
:101920003B7303FB0100083070474FF43B7303FB2C
:10193000010008307047012070471020704700EB0D
:1019400001100830704700EB01100830704708465E
:1019500001F0BCBA034B10B50446036007F001FF69
:10196000204610BD183E029010B50446FFF7F2FF66
:10197000142120461FF07FFF204610BD034B10B5F9
:101980000446036007F0EDFE204610BDE43D0290E2
:1019900010B50446FFF7F2FF4FF43D7120461FF0EB
:1019A0006AFF204610BD0000034B10B504460360DB
:1019B00007F0D7FE204610BDB03D029010B504469A
:1019C000FFF7F2FF182120461FF055FF204610BDFB
:1019D000084B10B50446036000F54870FFF7BAFFE6
:1019E00004F12C00FFF7CAFF04F11400FFF7DCFF3D
:1019F000204610BD4C3E029008B50248FFF7E8FFB4
:101A000008BD00BF7001002010B50446FFF7E0FFDD
:101A10004FF4996120461FF02EFF204610BD0000B4
:101A20002DE9F34101F0C8F80024054601F0C8F89B
:101A30002346014622462846009411F06FFD274BAD
:101A4000274A2046274D1A6001F086FE264B274A7A
:101A500027489A6011F0CAFC2B68BFF35B8FDB0745
:101A600035D428461FF009FF88B3224C224B04F5D9
:101A70005A7604F1140004F12C0804F54877236029
:101A80006060C4F80880E760266107F06BFE1B4BBE
:101A90004046636107F066FE194B3846E36207F083
:101AA00061FE184B04F54E70C4F8203301F0D8FEE7
:101AB000224604F54E71304601F0C8FE304601F072
:101AC00005FA114820F03CFE28461FF0E2FE0F48C0
:101AD00002B0BDE8F041FFF7D9BB00BF5428012098
:101AE00074140020680100207814002038060020BB
:101AF00008000020700100204C3E0290B03D029092
:101B0000E43D0290183E0290F9190090F81300206D
:101B1000704700000148FFF7D3BB00BFF813002057
:101B200070B5244E244B254C3046254D2360FFF7DD
:101B30006DFD284615F0CCFF22480EF0E7FF224B42
:101B400000224FF4807121481A8683F858205A6683
:101B500083F870205A67DC60C3E912121C49C3E99C
:101B60001A121C4999671C490B604FF4F0710180EF
:101B70001A4801804FF488711948C3E90422C3E967
:101B80000622C3E90822C3E90A22C3E90E22C3E9F7
:101B90001022C3E91422C3E91722C3E901650180B9
:101BA000104883F8342001800F490A700F4A1A60E8
:101BB00070BD00BF58060020A838029054060020CF
:101BC0007814002038060020F8130020E4270120B4
:101BD0000100000100000101F0270120EA27012097
:101BE000E6270120EC270120E8270120343A029063
:101BF0000148FFF7E7BC00BF5806002000207047EF
:101C000081807047C1807047018170474181704772
:101C10007047704770477047704710B4C4880368B6
:101C2000121B84885B6D091B12B25DF8044B09B26C
:101C300018474FF6FF7383814FF0FF330362136839
:101C4000C3611060704790F825201AB190F82420E5
:101C500002B118607047002070478B888380012094
:101C60007047704780F82610704790F8260070473C
:101C7000002210B5B1F90840B1F90A100280428083
:101C80008480C18010BD0022028042808280C28098
:101C900070470177704780ED080A704780F824107C
:101CA000704780F8251070470120704798307047C2
:101CB0008C3070478430704770470000034B90228F
:101CC00083F85A2383F85823704700BF00E100E0EF
:101CD000094A0A49D3680A48C3F30A03013B9BB285
:101CE0000B801169C1F30A01013901801364536B40
:101CF00043F001035363704700680140061500205C
:101D000004150020014BD3F8AC0070470068014077
:101D1000024B0122C3F8AC105A62704700680140C0
:101D2000124A5369DB0370B51ED50023C2F8843014
:101D3000BFF34F8FD2F8803043F6E074C3F3C9008D
:101D4000C3F34E335B0103EA0406014646EA81759C
:101D50000139C2F87452F9D2203B13F1200FF2D1AD
:101D6000BFF34F8FBFF36F8F70BD00BF00ED00E07A
:101D70007047704710B504462C211FF07CFD2046AB
:101D800010BD10B50446BC211FF075FD204610BDE6
:101D900070B5044608F0A5FA23685D6E0DF03EFDAF
:101DA00001462046A84723682046054AD3F88850B4
:101DB0004FF040410023AC46BDE87040604700BF93
:101DC00000FC03C008F074BA08F07EBA08F03ABA12
:101DD00008F09BBB90F8252012B103685B69184797
:101DE00070470000034B4FF080629A604FF08072A2
:101DF0009A60704700E100E0084B4FF08062C3F842
:101E00008820BFF34F8FBFF36F8F4FF08072C3F8FE
:101E10008820BFF34F8FBFF36F8F704700E100E062
:101E2000002370B5124E05468380124B0360336861
:101E300093F858200AB1D86C00B998680368DB6A37
:101E400098473368B0FA80F4D86C640930B10368FD
:101E5000DB6A9847002808BF44F001042CB9064B00
:101E60002C21064A064820F04DFC284670BD00BFD4
:101E7000F02701205C3F0290583E0290B63E02904F
:101E8000EF3E029070B5244E3568BFF35B8F15F0BE
:101E900001053FD130461FF0F0FC00283AD01F4C1E
:101EA0001F4B04F134002561E584A562A585C4E9D2
:101EB0000035C4E902550FF088F804F158000AF023
:101EC000BDFC184B2046A365174B40F8843BFFF739
:101ED000A7FF164B1648C4F884302433C4F890503A
:101EE000C4F88C306423C4F89C50C4F8A850C4E9EA
:101EF00028350023C4F8AC30C4F8B030C4F8B4308E
:101F0000C4F8B8300B4BC4F8983020F019FC3046B8
:101F10001FF0BFFC014870BD00150020081500200F
:101F2000144E02907C3F0290F43F0290C84D029004
:101F3000B91C0090A84D029010B5144C236823B32F
:101F4000134B144A1B6C11888B4213D1124B198806
:101F500003F02CFF226892F86A30013382F86A306D
:101F6000FFF7E0FA206808F0FBFE0020BDE8104013
:101F7000FFF7BCB803F01AFF206803681B6A984794
:101F80000020BDE81040FFF7E1B810BDF0270120A8
:101F900000680140061500200415002001490020BA
:101FA00006F044BF7514009008B5642005F054FA9B
:101FB000FBE7000007B54FF6FF730190012201A96E
:101FC000034805F080F8019803B05DF804FB00BFFA
:101FD0005417002010B594B01022002102240AA842
:101FE00020F0A7FD1422002103A820F0A2FD1F4B22
:101FF000012119201A6C42F080521A641B6C03F004
:1020000080530193019B1A4B1A6842F440421A60B4
:102010001B6803F440430293029B4FF48033CDE9E5
:1020200008134FF48003CDE90E434FF4D873CDE984
:10203000100308A8CDE9124403F00EFF00B1FEE73B
:1020400003F0D2FE00B1FEE70F234FF4A05205903B
:10205000072103A8CDE903344FF48053CDE90623CB
:1020600004F0E2F800B1FEE714B010BD0038024001
:102070000070004080B59AB01022002101240DA804
:102080001C2620F056FD032502F0D8FD4FF000502D
:10209000B84B40F20117ADF83440CDE90E03B64B12
:1020A0000DA8109302F0E8FD4FF040438DF8354045
:1020B00000240DA80E938DF83C608DF83F40ADF8DC
:1020C000424002F0D9FD02230DA88DF83F508DF853
:1020D00035301623ADF842708DF83C3002F0CCFD5F
:1020E0004FF010430DA88DF83C6004260E938DF838
:1020F00035508DF83F40ADF8424002F0BDFD17234A
:102100000DA88DF835608DF83C308DF83F50ADF856
:10211000427002F0B1FD05230DA88DF840408DF806
:10212000353013238DF83C3002F0A6FD304602F026
:1021300093FDBFF34F8FBFF36F8F904AC2F85042A9
:10214000BFF34F8FBFF36F8F536943F40033536175
:10215000BFF34F8FBFF36F8FC2F88440BFF34F8F31
:10216000D2F8803043F6E074C3F3C900C3F34E33B2
:102170005B0103EA0406014646EA81750139C2F8AB
:102180006052F9D2203B13F1200FF2D1BFF34F8FF1
:10219000536943F480335361BFF34F8FBFF36F8FA5
:1021A00002F074FA0024FFF715FF142200210DA895
:1021B00020F0BFFC724B102172481A6B4FF01008D0
:1021C00001254FF0030942F01002082702264FF0C4
:1021D000400A1A631A6B02F010020292029A1A6BFA
:1021E00042F002021A631A6B02F002020392039A8F
:1021F0001A6B42F040021A631A6B02F0400204921A
:10220000049A1A6B42F400721A631A6B02F4007299
:102210000592059A1A6B42F008021A631A6B02F0D3
:1022200008020692069A1A6B42F480621A631A6BCD
:1022300002F480620792079A1A6B42F020021A6336
:102240001A6B02F020020892089A1A6B42F480720C
:102250001A631A6B02F480720992099A1A6B42F09F
:1022600001021A631A6B02F001020A920A9A1A6BAF
:1022700042F080021A631A6B02F080020B920B9AF2
:102280001A6B42F004021A6300221B6B03F0040372
:102290000C930C9B03F0C0F8002208213A4803F08D
:1022A000BBF800224FF48051384803F0B5F8002203
:1022B000C021374803F0B0F800224021354803F030
:1022C000ABF80DA92F48CDE90D85CDE90F4902F0F6
:1022D0001BFF0DA92C48CDE90D75CDE90F4402F087
:1022E00013FF4FF480530DA92848CDE90D35CDE9F2
:1022F0000F4402F009FF4FF400630DA923480F9625
:10230000CDE90D3402F000FFC0230DA92048CDE92E
:102310000D35CDE90F4902F0F7FE0DA91D48CDE9B5
:102320000DA5CDE90F4902F0EFFE1B481B4B0DA98F
:102330008460C0F814A08462CDF84C80C0E90034F9
:102340000423C0E903388023C0E90844C0E9063407
:10235000CDE90D88CDE90F88CDE9118804F0CAFADE
:1023600000B1FEE702F034F801F0E6FF8146B8B1B3
:10237000FEE700BF120000030100010100ED00E0D4
:1023800000380240000402400028024000200240C1
:10239000000802400018024020170020400100A061
:1023A00034220146644C4FF0350A0DEB020020F058
:1023B000C0FB624B4FF0280E40F2152240F235214F
:1023C0002046A4F83490C4F8109084F83690C4E9FC
:1023D00000390923C4E905E30B23C4E907A340F24C
:1023E0001B13C4E9092340F21D13C4E90299C4E98F
:1023F0000B1303F0E3FB024600B1FEE74FF4F0716C
:102400000D904FF4806C4FF48873ADF864201893EE
:102410008DF86620CDE90E10FF20CDE912020520CF
:10242000CDE91621CDE914C00DA92046CDE910361D
:1024300003F08FFC00B1FEE7414B4FF4E13241491C
:1024400018615862C3E900120C22C3E90200C3E913
:102450000520C3E90700184604F0A9FE814600B133
:10246000FEE7424601460DA8374C20F062FB4FF4D0
:102470008033364A2046C4F808902561A56184F867
:102480002090C4F82C90C4F80C90E66184F8309049
:102490006561C4E900232E4BA36202F02DF900B15F
:1024A000FEE7CDE90D050F900DA9204602F0B6FA22
:1024B00000B1FEE70DA92046CDE90D7602F0AEFA97
:1024C00000B1FEE723480125234B0562036000238A
:1024D0008380C0E9053302F0FBFB00B1FEE71F4C2F
:1024E0001F4BC4E90200C4E90030C4E90A00C4E992
:1024F0000C00204602F008FD00B1FEE72946204608
:1025000002F0BAFD00B1FEE70190FEF76FFDFEF7A5
:102510006CFD04F013FF134A0199134804F048FFBF
:10252000124B134A18600199124804F041FF124BF4
:10253000186004F01DFFFEE77816002000680140D7
:102540005417002000100140CC150020002201404B
:102550000100000F14160020003002403816002041
:1025600000B0024078400290A91F0090C8150020DA
:1025700054400290FB0F0090C41500200268034BEA
:102580009A4201D102F094B8704700BF0010004099
:10259000FEE700000D4B82B00F216FF001001A6CB6
:1025A00042F080521A641A6C02F080520092009A33
:1025B0005A6C42F480425A6400225B6C03F48043FC
:1025C0000193019B02B002F0E7BA00BF003802405D
:1025D00010B588B004461422002103A820F0A9FAFF
:1025E00022681A4B9A422ED103F58B33032403A998
:1025F00017485A6C42F480625A645A6C02F4806242
:102600000092009A1A6B42F020021A631A6B02F0D1
:1026100020020192019A1A6B42F001021A631B6BAD
:1026200003F001030293029B4FF48063CDE903346E
:1026300002F06AFD012303A90648CDE90334002313
:10264000059302F061FD08B010BD00BF00220140FB
:102650000014024000000240026882B0084B9A4217
:102660000BD1D3F8302803F5006342F480521A638B
:102670001B6B03F480530193019B02B0704700BFB2
:10268000003002400E4B07B502689A4215D1A3F5FF
:10269000F04305215A201A6B42F400021A6300220B
:1026A0001B6B03F400030193019B02F075FA5A209F
:1026B00003B05DF804EB02F0A1BA03B05DF804FBCF
:1026C00000B0024070B5ACB004461422002106A848
:1026D00020F02FFA842200210BA820F02AFA226889
:1026E000464B9A4240F08880082305200B936423D0
:1026F00010930223CDE9113001230BA8159303F0A9
:102700006FFE08B1FFF744FF3D4B022400250E2663
:102710005A6C06A93B4842F080625A645A6C02F037
:1027200080620092009A1A6B42F010021A631A6BD0
:1027300002F010020192019A1A6B42F400721A63BD
:102740001A6B02F400720292029A1A6B42F48062CF
:102750001A631A6B02F480620392039A1A6B42F0B6
:1027600040021A631A6B02F040020492049A1A6B38
:1027700042F480721A631B6B03F480730593059B0C
:102780001023CDE90634CDE908540A9602F0BCFCCA
:102790004EF6FF7306A91C480A96CDE90634CDE92A
:1027A000085402F0B1FCF72306A918480A96CDE9AF
:1027B0000634CDE9085402F0A7FC4FF4805306A973
:1027C0001348CDE906340923CDE908540A9302F0F1
:1027D0009BFC4FF4464306A90E480A96CDE9063401
:1027E000CDE9085402F090FC58202A46052102F059
:1027F000D3F9582002F002FA2CB070BD00680140F5
:10280000003802400010024000240240002802402C
:102810000018024000200240F0B5ABB0044614227C
:10282000002104A820F085F98422002109A820F0C5
:1028300080F92268204B9A423CD1402309A8099391
:1028400003F0CEFD08B1FFF7A3FE1C4B02270026C4
:1028500003255A6C072404A9194842F010025A644F
:102860005A6C02F010020192019A1A6B42F00202B5
:102870001A631A6B02F002020292029A1A6B42F079
:1028800001021A631B6B089403F001030393039B7B
:102890008023CDE90665CDE9043702F035FC4FF41D
:1028A000007304A907480894CDE90437CDE906650B
:1028B00002F02AFC2BB0F0BD0010014000380240AD
:1028C0000004024000000240F0B5002387B00393EB
:1028D0002A4B1E68002E4ED10122022703250C240C
:1028E0001A6001A9264B27489A6B42F001029A63AD
:1028F0009B6B03F001030093009B4FF68373CDE9BC
:102900000454CDE9013702F0FFFB48F2331301A96B
:102910001D480594CDE90137CDE9036502F0F4FBCC
:102920004CF2037301A919480594CDE90137CDE9AB
:10293000036502F0E9FB4FF63F0301A91448059433
:10294000CDE90137CDE9036502F0DEFB242301A9BF
:1029500010480594CDE90137CDE9036502F0D4FBB9
:1029600004230D480DEB03010594CDE90137CDE9B2
:10297000036502F0C9FB07B0F0BD00BFE0170020FF
:10298000003802400010024000180240000C0240D3
:1029900000140240001C02400008024008B5144B1D
:1029A0001A6822BB01224FF6837112481A60124A3C
:1029B000936B23F00103936302F088FC48F2331118
:1029C0000E4802F083FC4CF203710D4802F07EFCCD
:1029D0004FF63F010B4802F079FC24210A4802F02F
:1029E00075FC04210948BDE8084002F06FBC08BD31
:1029F000DC1700200010024000380240001802409E
:102A0000000C024000140240001C0240000802407A
:102A1000214B1A6C42F0100270B51A6488B01B6C1E
:102A2000054601A903A803F010030293029B03F0DB
:102A3000B9FC069B4BBB03F095FC184E184B33605A
:102A400040F2E733F360174BB0FBF3F3013B304642
:102A5000736000233361B360B36104F009F9044685
:102A600080B9304603F0ACFF044658B9362002F076
:102A7000C5F80F2D0DD822462946362002F08CF8D5
:102A8000094B1D60204608B070BD03F06BFC400090
:102A9000D3E70124F6E700BF00380240E417002026
:102AA0000010004040420F00400000207047FEE749
:102AB000FEE7FEE7FEE77047014803F0C3BF00BF33
:102AC000E4170020014803F0E7B800BF78160020A3
:102AD000014802F047BA00BF3816002001207047B5
:102AE00008B520F0C9F8162303604FF0FF3008BD89
:102AF00008B520F0C1F816230360FEE770B50D4657
:102B000014460E46731B9C4201DC204670BDAFF399
:102B1000008006F8010BF5E770B50D4614460E4629
:102B2000731B9C4201DC204670BD16F8010BFFF7B9
:102B300041FAF5E74FF0FF3070474FF400530020A3
:102B40004B60704701207047002070470A4A1168A7
:102B500008B5034609B9094911601068694603447C
:102B60008B4206D920F088F80C2303604FF0FF3029
:102B700008BD1360FCE700BF301800202834012096
:102B8000704710B5044604211EF075FE204610BDA6
:102B9000012908B506D0022908D059B900F028FE4D
:102BA000006808BD00F024FE4068FAE700F020FE4F
:102BB0008068F6E70020F4E700487047B0400290D4
:102BC0000320704713B5002451B1036801AA019492
:102BD0008DF803409C680DF10303A04702B010BDBF
:102BE0000846FBE7C0897047008A7047C088704775
:102BF00080887047807A00F07F007047807AC00933
:102C000070470020704700009FED010A704700BF29
:102C100000000000704710B5044608211EF02BFE8E
:102C2000204610BD7047704700F5987308684968E2
:102C300003C370477047704741607047704700009A
:102C4000064BC0F84801C0F84C310023C0F85031A1
:102C500000F5A273C0F84031704700BF052D009009
:102C60000123037270477047704710B441680346F0
:102C7000C2689B68541001EB6200D20748BF0A5932
:102C80005DF8044B48BFD358184743682BB183689D
:102C90002BB9C06800F0010070471846704701204A
:102CA000704710B504460C211EF0E5FD204610BD0E
:102CB00010B5044610211EF0DEFD204610BD10B5F3
:102CC00004464FF4AE711EF0D6FD204610BD10B57F
:102CD0000CF0A4FD0368BDE81040DB6B184710B58D
:102CE0000446D0F8400158B10368DB68984738B112
:102CF000D4F8400103689B6898470023C4F840312A
:102D000010BD00002DE9F14FD0E9555A0746A868DB
:102D100003681B6A9847B0F53B7F05D2454BA3215A
:102D2000454A46481FF0EEFC686803681B6A9847EE
:102D30000F2803D8424BA4213F4AF2E7E868036812
:102D40001B6A98470B2803D83E4BA5213A4AE8E76F
:102D5000DFF8F8900CF062FD04300CF09DFDD9F81E
:102D6000000010B10368DB689847D9F8000010B183
:102D700003681B689847DFF8D880D8F8000010B1C6
:102D800003685B699847D7F83C0110B103685B683A
:102D90009847D8F8000010B103681B689847D7F827
:102DA0003C0110B103689B689847E86800214FF028
:102DB000000B03685B6A9847234B0446C0F804B0D5
:102DC0000360594680F808B0A86803685B6A9847B2
:102DD000064600F033FF6868594603685B6A984707
:102DE0000546314600F004FFC9F80040C7F83C51E1
:102DF000C8F80060E5B12B1DCAF8003030463368D2
:102E0000C5F808A0DB68F56398472B6828461B685F
:102E10009847214630460EF0E9FD236820461B699D
:102E20009847236820465B6901B0BDE8F04F18471A
:102E30002B46E1E7FC4002908A4102908E420290CC
:102E4000D5420290784302909044029038280120A5
:102E500034280120044B1B6893F858200AB1D86C21
:102E600000B99868704700BFF0270120F8B5044604
:102E700017460E460CF0E2FD104B00251C6029465B
:102E80000F4B23600F4BC4E951350F4B1868C4E951
:102E900053550368C4E94F559B68C4E95576984774
:102EA000284600F059FCFFF7D5FF16F042FCFFF76B
:102EB000D1FF16F0B9FC2046F8BD00BF4428012020
:102EC0003C44029024440290F0270120064BC0F8B5
:102ED0004801C0F84C310023C0F8503100F5A2730E
:102EE000C0F84031704700BF052D0090406A704720
:102EF000806A704770478B88C069DB0A0A6850F89F
:102F000023001044704710B5C2B1137BB3B1547B9A
:102F1000D27A240204F4E0641443026A98B202EB09
:102F2000840213888B4202D192F9020010BD05D8A9
:102F30000138043280B20028F3D1F7E70020F5E72A
:102F400010B504462C211EF096FC204610BD000052
:102F500030B58BB00446BDF860500895BDF85C50A4
:102F600007959DF8505006959DF84C5005959DF895
:102F7000485004959DF8445003959DF840500295A3
:102F80009DF83C500195BDF8385000950EF0DAF8E8
:102F9000064B20462360159BE361169B2362199B19
:102FA00063621A9BA3620BB030BD00BFB4440290B1
:102FB0007047704770477047704730B585B00368F9
:102FC000044601816D460146D3F884303C342846DE
:102FD000984795E8070084E8070005B030BD30B594
:102FE00085B00368044641816D460146D3F88430BC
:102FF0003C342846984795E8070084E8070005B068
:1030000030BD0022028042808280C280704780F8FA
:1030100036107047036870B504461B6B1546984719
:103020002368204629465B6EBDE8704018470020A3
:103030007047806C704770477047704710B5044602
:103040004C211EF018FC204610BD10B504464FF46C
:103050003B711EF010FC204610BD08B5FEF7BAFE0D
:1030600008BD0000036870B55E6B0446114B8DB25D
:103070001B682BB9104B6C21104A11481FF042FB02
:103080001049828D0988914203D80F4B6D210B4A5C
:10309000F3E713F812200D4B1B6853F82200036866
:1030A0001B6B9847281A334601B22046BDE8704092
:1030B000184700BF48280120144502905645029049
:1030C000914502904C280120D845029050280120BB
:1030D00000224FF0FF318260C0E900217047036891
:1030E00070B504461B6B1546984723682046294651
:1030F0005B6BBDE87040184770B504461D46BDF9CE
:103100001060FFF7ECFF2368294620469B6B984729
:10311000236831462046DB6BBDE87040184700004D
:103120000022C0E90122C0E90322C0E90522C0E96A
:1031300007224FF480728284014A0260704700BF08
:103140005C46029010B50446262200211FF0F1FCD7
:103150002046FFF7E5FF0A4B4FF47F022046A362AB
:103160004FF6FF73A3850023C4E90C32054A238779
:1031700022604FF0FF32E363A364C4E9102310BD63
:10318000F4400290C44602902DE9F04F0446002519
:103190004FF6FF76A14604F16C0A04F1980804F199
:1031A000C40704F5D47B2DED028B89B00EF072FAC2
:1031B000C64B26222946E56349F8403B48461FF0A6
:1031C000B8FC4846FFF7ACFFC14B06A95046236444
:1031D000FF23A56684F86630ADF8186009F096FB09
:1031E000262229464046ADF818601FF0A2FC404652
:1031F000FFF796FFB74B06A94046C4F89830BDF8D4
:10320000183084F8C060261DA4F8BE3009F00BFF0A
:103210003846FFF797FF04F58873184608EE103A12
:10322000FFF790FF04F5AE73184608EE903AFFF7EB
:1032300089FF584606F048FB4FF488732A464846F3
:10324000294600934FF4F073FFF756FF4FF07F438A
:1032500049463046A3660DF1080906F059FD50466F
:1032600006A9ADF8185009F0DEFE4FF488732A461F
:103270005046294600934FF4F073FFF73DFF504648
:10328000294609F0FEFA51463046DFF86CA206F0F6
:103290003FFD432240460D21FFF721FF4FF0010380
:1032A000404606A9ADF8183009F0BDFE414630464B
:1032B00084F8BD5004F52F7806F02AFD2C221C213D
:1032C0003846FFF70CFF4FF0FF3339464846C4F845
:1032D000F430D4F8C430A4F8F850D3F884309847C8
:1032E00004F5807399E8070083E80700DAF80030F6
:1032F0002BB9794B6021794A79481FF003FA794B51
:103300001B88052B03D8784B6121744AF4E7774B6F
:103310000521186800F05CFA754A0346082140460A
:103320000FF05CFE3846C4F80C8109F095FDDFF81B
:10333000CC810623384606A9CDF81880ADF81C309C
:1033400009F0AAFD3946304606F0E2FC7022182149
:1033500018EE100AFFF7C3FE4FF0FF32D4F8103119
:1033600018EE101A4846C4F84021D3F8843004F50A
:103370003377A4F84451984704F5A67399E80700F9
:1033800083E80700DAF80030002BB2D0554A1388E2
:10339000032BB8D9554B0321186800F019FA544A89
:1033A0000346082138460FF019FE18EE100AC4F83B
:1033B000587104F5377709F04FFD042306A918EE7C
:1033C000100AADF81C30CDF8188009F065FD18EE34
:1033D000101A304606F09CFCA922182118EE900A1B
:1033E000FFF77DFE4FF0FF31D4F85C314846C4F85A
:1033F0008C1118EE901AD3F88430A4F890519847A5
:1034000004F5CC7399E8070083E80700DAF8003088
:10341000002B3FF46EAF334A1388012B7FF673AF56
:10342000324B0121186800F0D3F9314A03460821D4
:1034300038460FF0D3FD18EE900AC4F8A4710227A5
:1034400009F00AFD06A918EE900ACDF81880ADF82B
:103450001C7009F021FD18EE901A304606F058FC59
:1034600058466F2240F20911FFF739FE1E235846D5
:103470000A2200930C21962306F008FA2B466422B8
:1034800029465846009506F081FA5846194906F033
:1034900080F906A95846CDF81880ADF81C5006F002
:1034A0009DF906A95846ADF8187006F0C3FB5846BA
:1034B0003C2106F09FF93046594606F029FC20468B
:1034C00009B0BDEC028BBDE8F08F00BF54470290FD
:1034D0004C4F0290B44F0290144502901646029051
:1034E000914502904C280120D84502905428012093
:1034F0004E460290371B0CFF48280120F4400290F2
:103500007047000030B5164D8FB02C68BFF35B8F4D
:1035100014F0010420D128461EF0AFF9E0B13F239A
:10352000012210490993104B10480893104B0A943C
:103530000594CDE906430423CDE903320A23CDE9FE
:103540000B440093CDE90144FFF702FD09481FF049
:10355000F7F828461EF09DF904480FB030BD00BFB3
:1035600034180020101C10903C590290381800208C
:10357000E85A0290013500907047000030B5174DB1
:103580008FB02C68BFF35B8F14F0010422D1284662
:103590001EF073F9F0B13F235F2211490993114BDB
:1035A00011480893114B0A94079301230194049343
:1035B000CDE905330423CDE902431423CDE90B44BF
:1035C00000931823FFF7C4FC09481FF0B9F82846F8
:1035D0001EF05FF904480FB030BD00BF6418002032
:1035E000201C10904059029068180020EC5A02905C
:1035F000793500907047000030B5164D8FB02C68BB
:10360000BFF35B8F14F0010420D128461EF035F97A
:10361000E0B13F23012210490993104B1048089351
:10362000104B0A940594CDE906430423CDE90332F7
:103630002823CDE90B440093CDE90144FFF788FC32
:1036400009481FF07DF828461EF023F904480FB002
:1036500030BD00BF9418002054211090E45A02900D
:1036600098180020F05A0290F5350090002070471D
:10367000002070470EB403B503AB002153F8042BB0
:1036800001930DF063F802B05DF804EB03B07047EE
:103690000CB407B504AB53F8042B01930DF056F8A6
:1036A00003B05DF804EB02B070470000436C10B546
:1036B000044673B3038F2BB9184BC521184A194818
:1036C0001FF020F8C38E00EB43035B8C0BB30EF0AE
:1036D000D1FE238F012B03D8134BCB21134AEEE7E6
:1036E000E28E40F63F10531C9BB2092B194688BF4F
:1036F000A3F10A0104EB4101498C814209D10A2B53
:1037000004EB420228BF0023508C04EB430358848F
:1037100051842046BDE810400EF0AEBD80470290B7
:1037200089470290344802907E4802908C4802906B
:103730000EF06BBD10B586B002AC84E806001A46E8
:103740000AAB214605930193099B0093089B0BF05C
:10375000E7FB06B010BD000038B518BB124B13488C
:103760001C681349B4B12268224402606268224492
:103770000A60A26814440F4B00221A8000F038F847
:10378000054600F033F80C4B1C600C4B1D600C4BD5
:10379000188007E00B4B03600B4B0B600B4B1C6856
:1037A000002CE8D138BD00BFC4180020C818002084
:1037B000CC180020D01800204828012050280120D3
:1037C0004C2801208021109064211090E821109055
:1037D000044B1B6853F82100034B1B6803EB4000AC
:1037E000704700BFCC180020C81800200720704781
:1037F00000487047D418002010B5054CFFF7BEFEF6
:103800002060FFF7F9FE6060FFF77CFEA06010BD4E
:10381000D418002010B5002404600C6014601C60F3
:1038200010BD704710B504464FF4AE711EF023F87A
:10383000204610BD10B50446D0F8580100F02CF811
:103840002046BDE810400CF085B8000010B50446D5
:10385000FFF70CFB014B2046236010BD6849029026
:103860000A49002241600A490260816009490262F6
:10387000C160642130B50024002501618461002409
:103880004261C161C0E90A4530BD00BF0000284166
:103890000000D04000401C462DE9F0432DED068B82
:1038A0009FEDA98A85B04FF000080446F0EE48AAC3
:1038B0004FF47A77B0EE48AAA44DF0EE488ACDF8DE
:1038C0000C800122052369462846CDF80080CDE909
:1038D000012301F0A3F808B1FEF75AFE284600F0D4
:1038E000B1FF0A21284601F042F8284601F093F87A
:1038F00009EE100A284601F01FF8B8EE499AF7EED3
:10390000007A0823694628463AEE09AA009338EE61
:10391000278A01F083F808B1FEF73AFE2846013FF6
:1039200000F090FF0A212846BFB201F020F8284697
:1039300001F071F806462846B6B200F0FDFF07EE2A
:10394000906AF8EEE77A7AEEA7AA002FB9D1142090
:10395000DFED7F9A00F0BEFE636901336361636946
:10396000012B40F3A280B5EEC08A7A4BA361F1EE41
:1039700010FA40F39A8018EE100AFCF7FDFD02469B
:103980000B4675481FF080F8CAEE887A17EE900A49
:10399000FCF7F2FD8046894602460B466F481FF051
:1039A00073F8404649465EA3D3E90023FCF73CFE8A
:1039B000FDF7D4F809EE100AFCF7DEFD02460B46CF
:1039C00067481FF061F8CAEE087A9FED667ADFED6E
:1039D000666A67EE877AB0EE687AA7EEA67ADFEDC0
:1039E000637A39EE679A84ED017A9FED617AC9EEC8
:1039F000077A9FED607A77EE877A9FED5F7A67EEC0
:103A0000877A9FED5E7A87EE878AD4ED067A38EE64
:103A1000698A68EE277A84ED028A17EE900AFCF72D
:103A2000ABFD41A3D3E90023FCF728FFFDF796F88F
