:020000040800F2
:10000000B0080020F51E0008CD1E0008CF1E000815
:10001000D11E0008D31E0008D51E000800000000F5
:10002000000000000000000000000000D71E0008D3
:10003000D91E000800000000DB1E0008DD1E0008BD
:100040001D1F0008211F0008251F0008291F000888
:100050002D1F0008311F0008351F0008391F000838
:100060003D1F0008411F0008451F0008491F0008E8
:100070004D1F0008511F0008551F0008591F000898
:100080005D1F0008611F0008651F0008691F000848
:100090006D1F0008711F0008751F0008791F0008F8
:1000A0007D1F0008811F0008851F0008891F0008A8
:1000B0008D1F0008911F0008951F0008991F000858
:1000C0009D1F0008A11F0008A51F0008A91F000808
:1000D000AD1F0008B11F0008B51F0008B91F0008B8
:1000E000BD1F0008C11F0008C51F0008C91F000868
:1000F000CD1F0008D11F0008D51F0008D91F000818
:10010000DD1F0008E11F0008E51F0008E91F0008C7
:10011000ED1F0008F11F0008F51F0008F91F000877
:10012000FD1F000801200008052000080920000824
:100130000D200008112000081520000819200008D3
:100140001D20000821200008252000082920000883
:100150002D20000831200008352000083920000833
:100160003D200008412000084520000849200008E3
:100170004D20000851200008552000085920000893
:100180005D20000861200008652000086920000843
:100190006D200008712000087520000879200008F3
:1001A0007D200008812000088520000889200008A3
:1001B0008D20000891200008952000089920000853
:1001C0009D200008A12000087CB50400012600F055
:1001D000FBFB0500002C01D101205AE0206A4028D9
:1001E00094F84000012801D1022052E0012084F857
:1001F000400094F8410000280AD1002084F8400013
:10020000200000F0E0FB41F28831200000F0B4FA59
:100210002068006830F4F850A168491E50EA0120B7
:1002200021680860A06C00902B0000222021200093
:1002300000F0A4FA0100C9B2002926D121680A6899
:1002400014490A40616852EA0162E1680A43E169BF
:100250000A43216A0A4321680A6021684A680E49F4
:100260000A40216952EA014261690A43A1690A43CD
:1002700021684A602168096851F001012268116013
:1002800000216164012184F84110002184F84010AC
:10029000C0B276BD2FFFFF00FEF8E0FF10B50400EE
:1002A000002C01D101201AE094F84000012801D16E
:1002B000022014E0012084F8400020680068400813
:1002C000400021680860200000F084FB002060648A
:1002D000002084F84100002084F84000002010BD78
:1002E0002DE9F84304000D0016005FF0010800F04E
:1002F0006BFB0700A8690028E8690028286A002825
:1003000094F84000012801D102203DE0012084F84A
:10031000400094F8410001282FD1002060640220A1
:1003200084F8410000963B0000222021200000F0CC
:1003300025FA81464846C0B2002820D10022290073
:10034000200000F044FA686A002812D100963B00B1
:1003500001220221200000F011FA81464846C0B275
:1003600000280CD102202168C860012084F84100D7
:1003700005E0012084F8410001E05FF0020900205F
:1003800084F840004846C0B2BDE8F2832DE9F84346
:1003900005000C001600002700F016FB80462868B8
:1003A00010F1200995F84000012801D102205EE0FB
:1003B000012085F8400095F84100012850D1002027
:1003C0006864002C45D0122085F841002868006937
:1003D000401CE86228680069401CA8626C622868BA
:1003E000406930F0406029684861E86A002815D00B
:1003F0000096434601220421280000F0BFF90700BF
:100400003800C0B2002809D1686A411C69620078CE
:1004100089F80000E86A401EE862E6E73800C0B2EA
:10042000002812D10096434601220221280000F044
:10043000A5F907003800C0B2002806D102202968BB
:10044000C860280000F04CF90700012085F8410041
:1004500008E0686C50F0080068640120070001E0C3
:1004600002200700002085F840003800C0B2BDE837
:10047000F2832DE9FC4705000C001600002700F070
:10048000A3FA80462868D0F81890286810F1200A4E
:1004900095F84000012801D1022063E0012085F891
:1004A000400095F84100012855D100206864002CD7
:1004B0004AD0222085F8410028680069401CA863C2
:1004C00028680069401C68632C632868406930F024
:1004D000406050F08060296848612868C0F8189032
:1004E000A86B002815D0009643460122062128005B
:1004F00000F044F907003800C0B2002809D1286B89
:10050000411C29639AF800100170A86B401EA86373
:10051000E6E73800C0B2002812D100964346012217
:100520000221280000F02AF907003800C0B2002894
:1005300006D102202968C860280000F0D1F8070021
:10054000012085F8410008E0686C50F008006864FC
:100550000120070001E002200700002085F840008C
:100560003800C0B2BDE8F6872DE9FC4704000D0055
:1005700016001F005FF0010800F026FA8146A86906
:100580000028E8690028286A002894F8400001281B
:1005900001D102204CE0012084F8400094F8410091
:1005A00001283ED100206064422084F84100009779
:1005B0004B4600222021200000F0E0F88246504601
:1005C000C0B200282FD13068216888627068216825
:1005D0004862B0682168C8622068016831F440014F
:1005E0003069014351F4800120680160F068A8621D
:1005F0005FF000622900200000F0E9F800974B4608
:1006000001220821200000F0B9F882465046C0B20D
:10061000002808D108202168C860012084F8410022
:1006200001E05FF0020A002084F840005046C0B2AA
:10063000BDE8F6872DE9F84304000D0016005FF0D1
:10064000010800F0C1F90700A8690028E86900283E
:10065000286A002894F84000012801D102203DE0DA
:10066000012084F8400094F8410001282FD1002097
:100670006064822084F84100A06C00903B0000225E
:100680002021200000F07AF881464846C0B20028B8
:100690001FD12068016831F00801706801432068AB
:1006A0000160706808280BD1306821680863102049
:1006B0002168C8602068006850F4801021680860D4
:1006C0005FF040622900200000F081F801E05FF057
:1006D0000209002084F840004846C0B2BDE8F28319
:1006E0007CB50400002500F06FF9060094F8410085
:1006F00080073ED5002084F840002068006840074D
:1007000011D52068006830F0040021680860E06BB3
:1007100000F07EF905002800C0B2002803D0606C0C
:1007200050F0040060642068006850F00200216806
:100730000860A06C0090330001220221200000F02C
:100740001DF805002800C0B200280BD10220216846
:10075000C860A06C0090330000222021200000F02F
:100760000DF805002800C0B2002802D1012084F84D
:1007700041002800C0B276BD816470472DE9F04188
:1007800005000E0090461F00069C286880683042D5
:1007900001D0012000E000204146C0B2C9B2884229
:1007A00012D014F1010FF0D0002C04D000F00CF99D
:1007B000C01B8442E9D2042085F84100686C50F0E7
:1007C00001006864012000E00020BDE8F08110B461
:1007D0004B6A002B06D0B2F1406F03D08B6A5B1ED0
:1007E000046823618B69002B79D00B6A002B3ED003
:1007F0008B680468E361CB69002B20D0CC6A0B6B5B
:100800001C434B6B1C434B6A1C434B6954EA8344A7
:100810000B691C430B6A1C43CB681C43CB691C430C
:100820008B691C430B681C43144303685C61B2F181
:10083000406F00F0C6804B680468A361C1E0CC6AD9
:100840000B6B1C434B6B1C434B6A1C434B6954EAB8
:1008500083440B691C430B6A1C43CB691C438B69A3
:100860001C430B681C43144303685C61A9E0CB691B
:10087000002B1ED0CC6A0B6B1C434B6B1C434B6A8A
:100880001C434B6954EA83440B6A1C43CB681C43EA
:10089000CB691C438B691C430B681C4314430368DE
:1008A0005C61B2F1406F00F08C804B680468A3611A
:1008B00087E0CC6A0B6B1C434B6B1C434B6A1C439D
:1008C0004B6954EA83440B6A1C43CB691C438B6914
:1008D0001C430B681C43144303685C6171E00B6AA2
:1008E000002B39D08B680468E361CB69002B1DD0E5
:1008F000CC6A0B6B1C434B6B1C434B6A1C434B6910
:1009000054EA83440B691C430B6A1C43CB681C43A9
:10091000CB691C438B691C43144303685C61B2F1CF
:10092000406F4ED04B680468A3614AE0CC6A0B6B01
:100930001C434B6B1C434B6A1C434B6954EA834476
:100940000B691C430B6A1C43CB691C438B691C431A
:10095000144303685C6134E0CB69002B1BD0CC6A84
:100960000B6B1C434B6B1C434B6A1C434B6954EA97
:1009700083440B6A1C43CB681C43CB691C438B69C3
:100980001C43144303685C61B2F1406F19D04B689B
:100990000468A36115E04B6A002B12D0CC6A0B6B84
:1009A0001C434B6B1C434B6A1C434B6954EA834406
:1009B0000B6A1C43CB691C438B691C4314430368BB
:1009C0005C6110BC7047704701480068704700BF09
:1009D000AC000020704730B4002513E050F8042B21
:1009E000D30744BFA9F101039A18091F042942F84B
:1009F000045BFAD213468C0744BF15809B1CC907C1
:100A000048BF1D7050F8041B0029E7D130BC704767
:100A100070B50400A56DFFF7D7FF060094F8350008
:100A2000022806D080206065002084F83400012070
:100A30003BE02068006830F01600216808602068FC
:100A4000406930F0800021684861206C002802D1A4
:100A5000A06C002805D02068006830F008002168EC
:100A6000086020680068400840002168086020682D
:100A70000068C0070ED5FFF7A7FF801B0628F6D336
:100A800020206065002084F83400032084F83500BD
:100A900003200AE03F21E06D8140A960002084F836
:100AA0003400012084F83500002070BD2DE9FC41A0
:100AB00004000026002C01D10120D8E12078C007D5
:100AC0006DD5DFF89405016811F00C01042909D0F7
:100AD000006810F00C0008280ED1DFF880050068CF
:100AE000400209D5DFF86C050068800357D56068BF
:100AF000002854D10120BAE16068B0F5803F06D1EA
:100B0000DFF85005016851F48031016026E060682B
:100B100000280AD1DFF83C05016831F4803101601A
:100B2000016831F48021016018E06068B0F5A02F01
:100B30000AD1DFF82005016851F4802101600168C5
:100B400051F48031016009E0DFF80805016831F4F3
:100B500080310160016831F4802101606068002803
:100B60000ED0FFF731FF0500DFF8E80400688003CE
:100B700015D4FFF729FF401B6528F5D3032076E144
:100B8000FFF722FF0500DFF8CC040068800306D5DC
:100B9000FFF71AFF401B6528F5D3032067E1207893
:100BA000800752D5DFF8B004016811F00C0F09D0AE
:100BB000006810F00C00082816D1DFF8A0040068C7
:100BC000400211D4DFF88C040168890704D5E1687C
:100BD000012901D001204AE1016831F0F8012269C0
:100BE00051EAC201016030E0E06800281AD0DFF865
:100BF0006474386850F001003860FFF7E5FE0500C6
:100C00003868800706D4FFF7DFFE401B0328F7D3C0
:100C100003202CE1386830F0F800216950EAC10067
:100C2000386012E0DFF82C74386840084000386003
:100C3000FFF7CAFE05003868800706D5FFF7C4FE37
:100C4000401B0328F7D3032011E12078000728D5A3
:100C50006069002812D0DFF80874386850F001008D
:100C60003860FFF7B1FE05003868800719D4FFF738
:100C7000ABFE401B0328F7D30320F8E0DFF8E07356
:100C80003868400840003860FFF79EFE050038686D
:100C9000800706D5FFF798FE401B0328F7D30320F3
:100CA000E5E02078400740F18780DFF8C0733868BE
:100CB000C0000AD4386850F080503860386810F0AE
:100CC00080500090009801200600DFF8A483D8F837
:100CD0000000C00513D4D8F8000050F48070C8F8A4
:100CE0000000FFF771FE0500D8F80000C00506D42B
:100CF000FFF76AFE401B6528F6D30320B7E0A06823
:100D0000012806D1DFF86C03016851F00101016090
:100D100025E0A06800280AD1DFF8580301684908D7
:100D200049000160016831F00401016017E0A0682A
:100D300005280AD1DFF83C03016851F00401016085
:100D4000016851F00101016009E0DFF82803016842
:100D5000490849000160016831F004010160A068A0
:100D6000002810D0FFF730FE0500DFF80803006808
:100D7000800719D4FFF728FE401B41F289318842D1
:100D8000F3D3032073E0FFF71FFE0500DFF8E40252
:100D90000068800708D5FFF717FE401B41F2893134
:100DA0008842F3D3032062E03000C0B2012803D1AF
:100DB000386830F080503860A069002856D0DFF8DD
:100DC0009802006810F00C0008284DD0A069022895
:100DD00037D1DFF88072386830F080703860FFF704
:100DE000F3FD80463868800107D5FFF7EDFDB0EBD5
:100DF00008000328F6D3032039E0E169206A0143A3
:100E0000606A51EA8011A06A4008401E51EA004120
:100E1000E06A51EA006151F00051DFF840020160E0
:100E2000386850F080703860FFF7CEFD05003868F4
:100E300080011BD4FFF7C8FD401B0328F7D3032014
:100E400015E0DFF81072386830F080703860FFF716
:100E5000BBFD05003868800108D5FFF7B5FD401BD4
:100E60000328F7D3032002E0012000E00020BDE8C2
:100E7000F6812DE9F04104000D000026002C01D17F
:100E800001209FE0DFF8F071386810F00F00A842F1
:100E90000BD238680009000128433860386810F028
:100EA0000F00A84201D001208CE02078800719D5DE
:100EB0002078400705D5DFF8A001016851F4E05122
:100EC00001602078000705D5DFF88C01016851F436
:100ED00060410160DFF880110A6832F0F002A0681A
:100EE00002430A602078C00737D56068012806D120
:100EF000DFF860010068800311D4012062E06068BF
:100F0000022806D1DFF84C010068800107D40120D7
:100F100058E050480068800701D4012052E0DFF813
:100F20003881D8F800108908890060680143C8F842
:100F30000010FFF749FD0600D8F8000010F00C0083
:100F40006168B0EB810F08D0FFF73EFD801B41F2D6
:100F500089318842F0D3032034E0386810F00F0064
:100F600085420BD238680009000128433860386890
:100F700010F00F00A84201D0012023E020784007A4
:100F800006D535490A6832F4E052E06802430A6047
:100F90002078000707D53048016831F460412269A4
:100FA00051EAC201016000F00FF834492A4A126880
:100FB000C2F30312895CC8402B4908600F2000F07F
:100FC00061F80020BDE8F0812DE9F0410024002502
:100FD000002600272048006810F00C00002804D0EC
:100FE000042804D0082804D031E01E4830E024480A
:100FF0002EE0DFF86880D8F8000010F03F00040011
:10100000D8F8000040020CD5D8F80000C0F38810D2
:101010001B49A1FB00012200002300F059F8050044
:101020000BE0D8F80000C0F388100E49A1FB0001C6
:101030002200002300F04CF80500D8F80000C0F3AF
:101040000140401C40000600B5FBF6F000E00548FA
:10105000BDE8F08100380240083802400438024000
:10106000743802400024F40004000020403802409C
:101070000070004070380240003C0240E41E00084E
:1010800040787D0110B504004FF47A700D4909785D
:10109000B0FBF1F00C490968B1FBF0F000F0B0F9D9
:1010A000002801D001200CE0102C09D200222100E0
:1010B0005FF0FF3000F08FF904480460002000E08A
:1010C000012010BD080000200400002000000020C6
:1010D000BBBBE1B1B2F5803F80F07E80022A1ED911
:1010E0008C46B1FBF2F102FB11C31B0443EA10432F
:1010F000B3FBF2FC02FB1C3380B240EA0343B3FBB8
:10110000F2F002FB103240EA0C4000237047022A42
:1011100005D98446B0FBF2F002FB10C270474AB119
:1011200005D100F0010249085FEA30007047002253
:101130000023704700F078B90B0002000021002066
:101140007047904271EB030CF6D3B3F5803F2FD27A
:10115000F0B5B3FA83F7B1FA81F4A7F10F0E3D1B96
:101160005340CEF1200602FA0EF2F3415340B5F19E
:101170000F0746D80F3C2C444140C4F12006A04044
:10118000F1414140B1FBF3F603FB1611A2FB06450A
:10119000001BA94102D2761E8018594180EA010243
:1011A00021FA0EF362FA0EF200215A403046F0BDE9
:1011B00030B4B1FBF3FC03FB1C11A2FB0C45001B7C
:1011C000A94103D2ACF1010C8018594130BC024650
:1011D0000B46604600217047B2F1807F65D3F0B5C1
:1011E000B2FA82F7B1FA81F4C7F10F063D1B22FA79
:1011F00006F307F1110EF24120355A40B5F10F0701
:10120000B8D94140C4F12006A040F1414140B1FBB2
:10121000F3FC03FB1C11A2FB0C45001BA94103D2EC
:10122000BCF1010C801859410F2F12D30F3FC90395
:1012300041EA5041B1FBF3F603FB1611A2FB064550
:10124000D4EBC030A94102D2761E8018594146EA3B
:10125000CC3C07B34140C7F12006B840F1414140C2
:10126000B1FBF3F603FB1611A2FB0645001BA941D7
:1012700002D2761E8018594180EA010221FA0EF34B
:10128000C7F1200462FA0EF20CFA07F05A402CFA69
:1012900004F13043F0BD80EA010221FA0EF300218F
:1012A00062FA0EF260465A40F0BD8C46B1FBF2F194
:1012B00002FB11C31B0243EA1063B3FBF2FC02FB07
:1012C0001C331B024CEA002043EA1063B3FBF2FC20
:1012D00002FB1C331B024CEA002043EA1063B3FB01
:1012E000F2FC02FB1C331B024CEA002043EA1063B1
:1012F000B3FBF2FC02FB1C324CEA002000237047D7
:1013000010B410F00703DFF8044122684FF6FF0124
:101310000A40DFF8FC1051EA03210A43226010BCA6
:101320007047DFF8E8000068C0F30220704710B48F
:10133000020052B2002A05D40A01364B040064B2FE
:101340001A5508E00A01344B040064B214F00F048B
:10135000234403F8042C10BC704770B4030013F04E
:101360000704D4F10700052801D3042001E0D4F1DB
:101370000700251D072D01D2002500E0E51E0126EE
:1013800016FA00F0401E0140A94016FA05F56D1E40
:101390002A401143080070BC704710B50400601E5D
:1013A000B0F1807F01D301200EE0601E1B49086070
:1013B0000F215FF0FF30FFF7BAFF002018490860E7
:1013C000072018490860002010BD10B50400200057
:1013D000FFF796FF10BD2DE9F04104000D00160047
:1013E0000027FFF79EFF8046320029004046FFF7A6
:1013F000B4FF0100200040B2FFF799FFBDE8F08183
:1014000010B504002000FFF7C8FF10BD0CED00E090
:101410000000FA0500E400E018ED00E014E000E050
:1014200018E000E010E000E07047000010B5CC4C80
:10143000CC4820602000FEF731FF002801D00120B9
:1014400055E000F095F9C8480021C1610021016212
:1014500000214162002141610021C162002101633C
:10146000002141634FF40051C160C0480021016177
:101470000121C160102181605FF480014161012080
:1014800060600420A0601020E0608020B0FA80F04E
:10149000401E20614FF4A06060610020A061002028
:1014A000E061002020622000FEF78EFE002801D0BF
:1014B00001201CE0200000F01BF8002801D00120D2
:1014C00015E0200000F0ACF8002801D001200EE06B
:1014D000200000F04DF8002801D0012007E0200096
:1014E00000F028F8002801D0012000E0002010BD05
:1014F00070B504009C4D4FF48070A8616620286090
:101500000020686241F28836320029002000FEF790
:10151000E7FE002801D001200BE09920286032006E
:1015200029002000FEF7DCFE002801D0012000E0A9
:10153000002070BD1CB504008B494FF440708861D9
:10154000EB2008604FF44060C8615FF04070486273
:101550000A20486100200190002000906A46200087
:10156000FFF768F8002801D0012000E0002016BD38
:1015700030B58FB004004FF4807007908520019043
:1015800000200890002009905FF080700A900020F1
:10159000069001200B9000200C9000200D90002060
:1015A0000E9041F288352A0001A92000FEF798FE2E
:1015B000002801D0012031E02A0069462000FEF712
:1015C00058FF002801D0012028E0200000F09EF8FC
:1015D000002801D0012021E0812001909DF8001019
:1015E00011F00F010A225FF07060B0FA80F08240C3
:1015F00011438DF800102A0001A92000FEF770FEAB
:10160000002801D0012009E02A0069462000FEF7E9
:10161000BDFE002801D0012000E000200FB030BD49
:10162000F0B595B004004FF4807007900020099049
:101630000020069000200C9000200D9000200E90BD
:1016400010201190002013905FF48000149065200A
:101650000190002008905FF080750A9501200B90A2
:101660003F4E41F288373A0001A93000FEF738FEBC
:10167000002801D0012047E03A0069463000FEF71B
:10168000F8FE002801D001203EE006200190002055
:101690000A903A0001A93000FEF722FE002801D08E
:1016A000012031E002200F900220109001201290C2
:1016B000052001900A953B000FAA01A93000FEF712
:1016C00053FF002801D001201EE06120019001207D
:1016D0000B909DF8000010F03F0050F040008DF896
:1016E00000003A0001A93000FEF7FAFD002801D001
:1016F000012009E03A0069463000FEF747FE002865
:1017000001D0012000E0002015B0F0BD70B504004C
:10171000154D4FF44070A8610620286000206862D3
:1017200041F28836320029002000FEF7D9FD00285A
:1017300001D0012013E00D4A022010600220506009
:10174000052028605FF040706862330029002000A7
:10175000FEF70AFF002801D0012000E0002070BD44
:101760000C000020001000A0580000209000002075
:1017700010B586B03648016851F00201016000687A
:1017800010F00200059005983248016851F00201FE
:101790000160016831F0020101602F48016851F0D9
:1017A00002010160016811F00201059105990168CB
:1017B00051F008010160016811F0080105910599D7
:1017C000016851F010010160006810F010000590F0
:1017D0000598402000900A200490022001900120EA
:1017E0000290022003901D4C6946200000F03CF856
:1017F00004200090092004900020029069462000F7
:1018000000F032F84FF40060009009200490144C6E
:101810006946200000F028F84FF48050009009201D
:1018200004906946200000F01FF804200090092071
:10183000049069460B4800F017F84FF400500090F0
:10184000092004906946200000F00EF806B010BD93
:101850003838024018380240303802400004024054
:10186000000C0240001002402DE9F8410022002344
:10187000002400260025102D80F00B81012717FA87
:1018800005F213000A681A4014009C4240F0FF80E1
:101890004A68022A02D04A68122A1FD12A00D208B6
:1018A00000EB8202D2F820C05FF00F0E15F00702A5
:1018B000D2B292001EFA02FE3CEA0E0CD1F810E001
:1018C00015F00702D2B292001EFA02FE5EEA0C0C7C
:1018D00066462A00D20800EB82021662D0F800C0E9
:1018E0005FF0030E2A00D2B252001EFA02F23CEA66
:1018F000020C91F8048018F003082A00D2B25200BA
:1019000018FA02F858EA0C0CC0F800C04A68012A1C
:1019100008D04A68022A05D04A68112A02D04A68CB
:10192000122A1BD186682A00D2B252001EFA02F295
:101930009643D1F80C802A00D2B2520018FA02F86D
:1019400058EA060686604268AF40BA434F68C7F35C
:101950000017AF403A439446C0F804C0C6682A0056
:10196000D2B252001EFA02FE36EA0E068F682A0034
:10197000D2B2520097403E43C6604A68D20040F15E
:101980008680DFF81421176857F4804717601268C3
:1019900012F480420092009ADFF800C12A009208F7
:1019A0005CF822705FF00F0E15F00302D2B29200C5
:1019B0001EFA02FE37EA0E07DFF8E420904201D15A
:1019C000002631E0DFF8DC20904201D101262BE037
:1019D000DFF8D420904201D1022625E0DFF8CC20A8
:1019E000904201D103261FE0DFF8C420904201D1CC
:1019F000042619E02F4A904201D1052614E02E4A10
:101A0000904201D106260FE02C4A904201D10726D0
:101A10000AE02B4A904201D1082605E0294A90426B
:101A200001D1092600E00A26F6B215F00302D2B26F
:101A30009200964037432A0092084CF82270224EBA
:101A40003268A243D1F804C05FEACC3C00D52243FF
:101A500032601E4F3E68A643D1F804C05FEA8C3C5A
:101A600000D526433E601A4F3A68A243D1F804C01D
:101A70005FEACC2C00D522433A60164F3E68A6435D
:101A8000D1F804C05FEA8C2C00D526433E606D1C63
:101A9000F1E6BDE8F1810000443802400838014019
:101AA000000002400004024000080240000C024016
:101AB000001002400014024000180240001C0240C6
:101AC0000020024000240240003C0140043C014050
:101AD000083C01400C3C0140BFF34F8FBFF36F8FB8
:101AE000002049490860BFF34F8FBFF36F8F47480D
:101AF000016851F400310160BFF34F8FBFF36F8F66
:101B00007047BFF34F8FBFF36F8F4048016831F4C8
:101B10000031016000203C490860BFF34F8FBFF3E4
:101B20006F8F704710B4002039490860BFF34F8FA2
:101B300038480168C1F34E32C1F3C900030043F6CF
:101B4000E07010EA421050EA8370334C20601800B5
:101B5000431E0028F3D11000421E0028ECD1BFF331
:101B60004F8F2A48046854F480340460BFF34F8FC9
:101B7000BFF36F8F10BC704710B400202449086079
:101B8000BFF34F8F2148016831F480310160BFF30A
:101B90004F8F20480168C1F34E32C1F3C9000300E2
:101BA00043F6E07010EA421050EA83701B4C20604C
:101BB0001800431E0028F3D11000421E0028ECD16B
:101BC000BFF34F8FBFF36F8F10BC704780B500F02D
:101BD00072F800F07DF800F030F800F027F80028E7
:101BE00001D000F029F800F06CF800200C490860E2
:101BF0000C480D49096801605FF01041096881F3E4
:101C0000088800688047FEE750EF00E014ED00E030
:101C100084ED00E080ED00E060EF00E074EF00E0B4
:101C200010E000E0A80000200400009010B500249F
:101C3000FFF7FCFB204310BDFEE730B591B0002458
:101C4000012005905FF48030069002200B905FF435
:101C500080000C9019200D904FF4D8700E90022047
:101C60000F900820109005A8FEF720FF050028001F
:101C7000C0B2002800D0FEE700F03EF804002000CB
:101C8000C0B2002800D0FEE70F2000900220019093
:101C9000002002904FF4A05003904FF48050049025
:101CA00006216846FFF7E5F80100C9B2002900D017
:101CB000FEE711B030BD80B5FFF70EFFFFF732FF32
:101CC00001BD80B5FFF71DFFFFF756FF01BD000006
:101CD00080B50748016851F4807101600320FFF767
:101CE00074FB0F20FFF7CEF900F004F8002002BDCE
:101CF000003C0240704700007CB500241B4801688E
:101D000051F080510160006810F080500090009800
:101D1000154E306850F480303060FEF755FE0500F7
:101D2000104C2068C00308D4FEF74EFE401B40F262
:101D3000E9318842F4D3032013E0306850F40030D6
:101D40003060FEF741FE06002068800308D4FEF7ED
:101D50003BFE801B40F2E9318842F5D3032000E0CE
:101D6000002076BD04700040007000404038024002
:101D70000F48016851F4700101600E49086850F085
:101D80000100086000200C4A10600A680B480240FD
:101D90000A600B480B4A1060086830F48020086025
:101DA0000020094908605FF000600849086070473A
:101DB00088ED00E00038024008380240FFFFF6FEE0
:101DC00010300024043802400C38024008ED00E0D6
:101DD00030B450F8041B79B10268436802440830FB
:101DE000DC0744BFA9F10104E31852F8045B43F88F
:101DF000045B091FF9D1ECE730BC704710B5074907
:101E000079441831064C7C44163404E00A68081DF5
:101E1000114488470146A142F8D110BD2C000000B2
:101E20004C0000004EF68851CEF20001086840F4E4
:101E300070000860BFF34F8FBFF36F8F4FF00070DB
:101E4000E1EE100A704700008FEBFFFFA4000000D6
:101E50000C0000200000000079FFFFFF0C000000D4
:101E6000B0000000000000200000000000F00DF8AD
:101E7000002801D0FFF7C2FFAFF300800020AFF3CE
:101E80000080FFF7A3FE00F002F80120704700F089
:101E900001B800000746384600F002F8FBE70000F2
:101EA00080B5AFF30080024A11001820ABBEFBE7FB
:101EB0002600020003480168034A1278891801606D
:101EC000704700BFAC000020080000207047FEE70C
:101ED000FEE7FEE7FEE770477047704780B5FFF703
:101EE000E9FF01BD00000000000000000102030442
:101EF000060708090148804701480047711D00088E
:101F0000051F0008AFF30080FFF78CFFFFF7AEFF5F
:101F1000100000000024F40001000000FFF7FEBFE5
:101F2000FFF7FEBFFFF7FEBFFFF7FEBFFFF7FEBFE5
:101F3000FFF7FEBFFFF7FEBFFFF7FEBFFFF7FEBFD5
:101F4000FFF7FEBFFFF7FEBFFFF7FEBFFFF7FEBFC5
:101F5000FFF7FEBFFFF7FEBFFFF7FEBFFFF7FEBFB5
:101F6000FFF7FEBFFFF7FEBFFFF7FEBFFFF7FEBFA5
:101F7000FFF7FEBFFFF7FEBFFFF7FEBFFFF7FEBF95
:101F8000FFF7FEBFFFF7FEBFFFF7FEBFFFF7FEBF85
:101F9000FFF7FEBFFFF7FEBFFFF7FEBFFFF7FEBF75
:101FA000FFF7FEBFFFF7FEBFFFF7FEBFFFF7FEBF65
:101FB000FFF7FEBFFFF7FEBFFFF7FEBFFFF7FEBF55
:101FC000FFF7FEBFFFF7FEBFFFF7FEBFFFF7FEBF45
:101FD000FFF7FEBFFFF7FEBFFFF7FEBFFFF7FEBF35
:101FE000FFF7FEBFFFF7FEBFFFF7FEBFFFF7FEBF25
:101FF000FFF7FEBFFFF7FEBFFFF7FEBFFFF7FEBF15
:10200000FFF7FEBFFFF7FEBFFFF7FEBFFFF7FEBF04
:10201000FFF7FEBFFFF7FEBFFFF7FEBFFFF7FEBFF4
:10202000FFF7FEBFFFF7FEBFFFF7FEBFFFF7FEBFE4
:10203000FFF7FEBFFFF7FEBFFFF7FEBFFFF7FEBFD4
:10204000FFF7FEBFFFF7FEBFFFF7FEBFFFF7FEBFC4
:10205000FFF7FEBFFFF7FEBFFFF7FEBFFFF7FEBFB4
:10206000FFF7FEBFFFF7FEBFFFF7FEBFFFF7FEBFA4
:10207000FFF7FEBFFFF7FEBFFFF7FEBFFFF7FEBF94
:10208000FFF7FEBFFFF7FEBFFFF7FEBFFFF7FEBF84
:10209000FFF7FEBFFFF7FEBFFFF7FEBFFFF7FEBF74
:0420A000FFF7FEBF89
:0200000490006A
:1000000000000520A99B0090E53D0090E73D009091
:10001000E93D0090EB3D0090ED3D009000000000B8
:10002000000000000000000000000000C18F0090F0
:10003000EF3D00900000000061900090C59000909E
:10004000F99B0090F99B0090F99B0090F99B009020
:10005000F99B0090F99B0090F99B0090F99B009010
:10006000F99B0090F99B0090F99B0090F99B009000
:10007000F99B0090F99B0090F99B0090F99B0090F0
:10008000F99B0090F99B0090F99B0090F99B0090E0
:10009000F99B0090F99B0090F99B0090F99B0090D0
:1000A000F99B0090F99B0090F99B0090F99B0090C0
:1000B000F99B0090F99B0090F99B0090F99B0090B0
:1000C000F99B0090F99B0090F99B0090F99B0090A0
:1000D000F99B0090F99B0090F99B0090F99B009090
:1000E000F99B0090F99B0090F99B0090F99B009080
:1000F000F99B0090F99B0090F99B0090F99B009070
:10010000F99B0090F99B0090F99B0090F99B00905F
:10011000F99B0090F99B0090F13D0090F99B0090B5
:10012000F99B0090F99B0090F99B0090F99B00903F
:10013000F99B0090F99B0090F99B0090F99B00902F
:10014000F99B0090F99B0090F99B0090F99B00901F
:10015000F99B0090F99B0090F99B0090F99B00900F
:10016000F99B0090F99B0090F99B0090F99B0090FF
:10017000F99B0090F99B0090F99B0090F99B0090EF
:10018000F99B0090F99B0090F99B0090F99B0090DF
:10019000F99B0090F99B0090F99B0090F99B0090CF
:1001A000FD3D0090F99B0090093E0090F99B009066
:1001B000F99B0090F99B0090F99B0090F99B0090AF
:0801C000F99B0090F99B0090EF
:1001D00010B5054C237833B9044B13B10448AFF381
:1001E00000800123237010BD3001002000000000BA
:1001F000B844029008B5034B1BB103490348AFF361
:10020000008008BD0000000034010020B8440290C6
:1002100081F0004102E000BF83F0004330B54FEAB7
:1002200041044FEA430594EA050F08BF90EA020F24
:100230001FBF54EA000C55EA020C7FEA645C7FEAB7
:10024000655C00F0E2804FEA5454D4EB5555B8BFDA
:100250006D420CDD2C4480EA020281EA030382EA4B
:10026000000083EA010180EA020281EA0303362DDD
:1002700088BF30BD11F0004F4FEA01314FF4801CB0
:100280004CEA113102D0404261EB410113F0004FC2
:100290004FEA03334CEA133302D0524263EB430379
:1002A00094EA050F00F0A780A4F10104D5F1200E17
:1002B0000DDB02FA0EFC22FA05F2801841F1000172
:1002C00003FA0EF2801843FA05F359410EE0A5F146
:1002D00020050EF1200E012A03FA0EFC28BF4CF077
:1002E000020C43FA05F3C01851EBE37101F000452D
:1002F00007D54FF0000EDCF1000C7EEB00006EEB3A
:100300000101B1F5801F1BD3B1F5001F0CD34908C3
:100310005FEA30004FEA3C0C04F101044FEA44521A
:1003200012F5800F80F09A80BCF1004F08BF5FEAA1
:10033000500C50F1000041EB045141EA050130BD81
:100340005FEA4C0C404141EB010111F4801FA4F124
:100350000104E9D191F0000F04BF01460020B1FA79
:1003600081F308BF2033A3F10B03B3F120020CDAB1
:100370000C3208DD02F1140CC2F10C0201FA0CF08F
:1003800021FA02F10CE002F11402D8BFC2F1200CF4
:1003900001FA02F120FA0CFCDCBF41EA0C019040AA
:1003A000E41AA2BF01EB0451294330BD6FEA0404F3
:1003B0001F3C1CDA0C340EDC04F11404C4F12002DE
:1003C00020FA04F001FA02F340EA030021FA04F3F0
:1003D00045EA030130BDC4F10C04C4F1200220FA47
:1003E00002F001FA04F340EA0300294630BD21FA85
:1003F00004F0294630BD94F0000F83F4801306BF4B
:1004000081F480110134013D4EE77FEA645C18BF3E
:100410007FEA655C29D094EA050F08BF90EA020FD5
:1004200005D054EA000C04BF1946104630BD91EACD
:10043000030F1EBF0021002030BD5FEA545C05D1D0
:100440004000494128BF41F0004130BD14F580040F
:100450003CBF01F5801130BD01F0004545F0FE4183
:1004600041F470014FF0000030BD7FEA645C1ABFB8
:10047000194610467FEA655C1CBF0B46024650EAEF
:10048000013406BF52EA033591EA030F41F400211B
:1004900030BD00BF90F0000F04BF0021704730B5A1
:1004A0004FF4806404F132044FF000054FF0000176
:1004B00050E700BF90F0000F04BF0021704730B537
:1004C0004FF4806404F1320410F0004548BF40420C
:1004D0004FF000013EE700BF42004FEAE2014FEA61
:1004E00031014FEA02701FBF12F07F4393F07F4F3C
:1004F00081F06051704732F07F4208BF704793F03F
:100500007F4F04BF41F40021704730B54FF4607451
:1005100001F0004521F000411CE700BF50EA010254
:1005200008BF704730B54FF000050AE050EA0102FD
:1005300008BF704730B511F0004502D5404261EB6D
:1005400041014FF4806404F132045FEA915C3FF4AE
:10055000D8AE4FF003025FEADC0C18BF03325FEA4B
:10056000DC0C18BF033202EBDC02C2F1200300FAFC
:1005700003FC20FA02F001FA03FE40EA0E0021FA21
:1005800002F11444BDE600BF70B54FF0FF0C4CF40F
:10059000E06C1CEA11541DBF1CEA135594EA0C0FC1
:1005A00095EA0C0F00F0DEF82C4481EA030621EAFC
:1005B0004C5123EA4C5350EA013518BF52EA033537
:1005C00041F4801143F4801338D0A0FB02CE4FF0E9
:1005D0000005E1FB02E506F00042E0FB03E54FF019
:1005E0000006E1FB03569CF0000F18BF4EF0010E11
:1005F000A4F1FF04B6F5007F64F5407404D25FEA0D
:100600004E0E6D4146EB060642EAC62141EA5551BF
:100610004FEAC52040EA5E504FEACE2EB4F1FD0C01
:1006200088BFBCF5E06F1ED8BEF1004F08BF5FEA7F
:10063000500E50F1000041EB045170BD06F0004631
:1006400046EA010140EA020081EA0301B4EB5C04DE
:10065000C2BFD4EB0C0541EA045170BD41F48011D6
:100660004FF0000E013C00F3AB8014F1360FDEBFFB
:10067000002001F0004170BDC4F10004203C35DAD7
:100680000C341BDC04F11404C4F1200500FA05F35A
:1006900020FA04F001FA05F240EA020001F00042FB
:1006A00021F0004110EBD37021FA04F642EB060171
:1006B0005EEA430E08BF20EAD37070BDC4F10C049B
:1006C000C4F1200500FA04F320FA05F001FA04F25F
:1006D00040EA020001F0004110EBD37041F100014B
:1006E0005EEA430E08BF20EAD37070BDC4F1200556
:1006F00000FA05F24EEA020E20FA04F301FA05F2BE
:1007000043EA020321FA04F001F0004121FA04F265
:1007100020EA020000EBD3705EEA430E08BF20EA35
:10072000D37070BD94F0000F0FD101F0004640006F
:1007300041EB010111F4801F08BF013CF7D041EAF1
:10074000060195F0000F18BF704703F000465200F5
:1007500043EB030313F4801F08BF013DF7D043EAC6
:100760000603704794EA0C0F0CEA135518BF95EA7C
:100770000C0F0CD050EA410618BF52EA4306D1D103
:1007800081EA030101F000414FF0000070BD50EA22
:10079000410606BF1046194652EA430619D094EAAC
:1007A0000C0F02D150EA013613D195EA0C0F05D196
:1007B00052EA03361CBF104619460AD181EA0301EA
:1007C00001F0004141F0FE4141F470014FF00000A2
:1007D00070BD41F0FE4141F4780170BD70B54FF03D
:1007E000FF0C4CF4E06C1CEA11541DBF1CEA1355BD
:1007F00094EA0C0F95EA0C0F00F0A7F8A4EB05049F
:1008000081EA030E52EA03354FEA013100F0888095
:100810004FEA03334FF0805545EA131343EA12635E
:100820004FEA022245EA111545EA10654FEA002613
:100830000EF000419D4208BF964244F1FD0404F5CC
:10084000407402D25B084FEA3202B61A65EB030528
:100850005B084FEA32024FF480104FF4002CB6EBE5
:10086000020E75EB030E22BFB61A754640EA0C0065
:100870005B084FEA3202B6EB020E75EB030E22BFA5
:10088000B61A754640EA5C005B084FEA3202B6EBE6
:10089000020E75EB030E22BFB61A754640EA9C00A5
:1008A0005B084FEA3202B6EB020E75EB030E22BF75
:1008B000B61A754640EADC0055EA060E18D04FEA33
:1008C000051545EA16754FEA06164FEAC30343EAD3
:1008D00052734FEAC2025FEA1C1CC0D111F4801FA0
:1008E0000BD141EA00014FF000004FF0004CB6E799
:1008F00011F4801F04BF01430020B4F1FD0C88BF38
:10090000BCF5E06F3FF6AFAEB5EB030C04BFB6EB42
:10091000020C5FEA500C50F1000041EB045170BD35
:100920000EF0004E4EEA113114EB5C04C2BFD4EB62
:100930000C0541EA045170BD41F480114FF0000EE6
:10094000013C90E645EA060E8DE60CEA135594EA62
:100950000C0F08BF95EA0C0F3FF43BAF94EA0C0F65
:100960000AD150EA01347FF434AF95EA0C0F7FF4DA
:1009700025AF104619462CE795EA0C0F06D152EA2E
:1009800003353FF4FDAE1046194622E750EA410612
:1009900018BF52EA43067FF4C5AE50EA41047FF423
:1009A0000DAF52EA43057FF4EBAE12E74FF0FF3C88
:1009B00006E000BF4FF0010C02E000BF4FF0010C59
:1009C0004DF804CD4FEA410C7FEA6C5C4FEA430CD2
:1009D00018BF7FEA6C5C1BD001B050EA410C0CBF21
:1009E00052EA430C91EA030F02BF90EA020F002083
:1009F000704710F1000F91EA030F58BF994208BFEA
:100A000090422CBFD8176FEAE37040F001007047A6
:100A10004FEA410C7FEA6C5C02D150EA013C07D1FD
:100A20004FEA430C7FEA6C5CD6D152EA033CD3D048
:100A30005DF8040B704700BF8446104662468C4642
:100A40001946634600E000BF01B5FFF7B7FF002875
:100A500048BF10F1000F01BD4DF808EDFFF7F4FF9E
:100A60000CBF012000205DF808FB00BF4DF808ED29
:100A7000FFF7EAFF34BF012000205DF808FB00BF4C
:100A80004DF808EDFFF7E0FF94BF012000205DF86E
:100A900008FB00BF4DF808EDFFF7CEFF94BF012023
:100AA00000205DF808FB00BF4DF808EDFFF7C4FF1C
:100AB00034BF012000205DF808FB00BF4FEA41026F
:100AC000B2F1E04324BFB3F5001CDCF1FE5C0DD9AC
:100AD00001F0004C4FEAC0024CEA5070B2F1004FF6
:100AE00040EB830008BF20F00100704711F0804FF9
:100AF00021D113F13872BCBF01F00040704741F4BE
:100B000080114FEA5252C2F11802C2F1200C10FAC1
:100B10000CF320FA02F018BF40F001004FEAC123A5
:100B20004FEAD32303FA0CFC40EA0C0023FA02F349
:100B30004FEA4303CCE77FEA625307D150EA01331F
:100B40001EBF4FF0FE4040F44000704701F00040EF
:100B500040F0FE4040F40000704700BF7BB972B91E
:100B60000029BEBF00204FF0004106E008BF00286A
:100B70001CBF6FF000414FF0FF3000F0BDB9ADF188
:100B8000080C6DE904CE002909DB002B1ADB00F00C
:100B90004DF8DDF804E0DDE9022304B0704740427F
:100BA00061EB4101002B1BDB00F040F8DDF804E0B5
:100BB000DDE9022304B0404261EB4101524263EBA4
:100BC00043037047524263EB430300F02FF8DDF814
:100BD00004E0DDE9022304B0404261EB41017047CB
:100BE000524263EB430300F021F8DDF804E0DDE955
:100BF000022304B0524263EB4303704753B94AB92E
:100C0000002908BF00281CBF4FF0FF314FF0FF3014
:100C100000F072B9ADF1080C6DE904CE00F006F8F1
:100C2000DDF804E0DDE9022304B070472DE9F04768
:100C3000089E04468846002B4BD18A42154667D948
:100C4000B2FA82F24AB1C2F1200701FA02F320FAA5
:100C500007F7954047EA030894404FEA154E230CE6
:100C6000B8FBFEF71FFA85FC0EFB178843EA084322
:100C700007FB0CF1994209D9EB1807F1FF3080F01E
:100C80001B81994240F21881023F2B445B1AA4B2A7
:100C9000B3FBFEF00EFB103344EA034400FB0CFCF4
:100CA000A44509D92C1900F1FF3380F00781A44530
:100CB00040F2048102382C4440EA0740A4EB0C04C3
:100CC00000271EB1D4400023C6E900433946BDE8E1
:100CD000F0878B4209D9002E00F0EB800027C6E98F
:100CE000000138463946BDE8F087B3FA83F7002F94
:100CF00047D18B4202D3824200F2FA80841A61EB20
:100D0000030301209846002EE0D0C6E90048DDE745
:100D100002B9FFDEB2FA82F2002A40F08F80491B4E
:100D20004FEA154E1FFA85F80127B1FBFEFC230C94
:100D30000EFB1C1143EA014308FB0CF1994207D951
:100D4000EB180CF1FF3002D2994200F2CD808446BC
:100D5000591AA3B2B1FBFEF00EFB101443EA04448F
:100D600008FB00F8A04507D92C1900F1FF3302D287
:100D7000A04500F2B6801846A4EB080440EA0C40F7
:100D80009FE7C7F1200CBB4022FA0CFE4EEA030E8F
:100D900001FA07F420FA0CF521FA0CF34FEA1E4889
:100DA0002543B3FBF8F92C0C08FB19331FFA8EFA14
:100DB00044EA034309FB0AF49C4202FA07F200FAF0
:100DC00007F10BD91EEB030309F1FF3080F0878098
:100DD0009C4240F28480A9F1020973441B1BADB20E
:100DE000B3FBF8F008FB103345EA034400FB0AFAB2
:100DF000A24508D91EEB040400F1FF336BD2A245D3
:100E000069D90238744440EA0940A0FB0289A4EB86
:100E10000A044C45C2464B4654D351D0002E69D0EB
:100E2000B1EB0A0564EB030404FA0CFCFD40FC4042
:100E30004CEA0505C6E90054002747E7C2F1200344
:100E400020FA03F7954001FA02F021FA03F34FEA82
:100E5000154E3843010CB3FBFEF71FFA85F80EFB65
:100E6000173341EA034107FB08F38B4204FA02F40B
:100E700007D9691807F1FF3C2FD28B422DD9023FC9
:100E80002944CB1A81B2B3FBFEF00EFB103341EACA
:100E9000034100FB08F38B4207D9691800F1FF3CBE
:100EA00017D28B4215D902382944C91A40EA07479C
:100EB0003BE73746304609E70746E7E61846FBE6D4
:100EC0004145ABD2B8EB020A69EB0E02013813467A
:100ED000A4E76046E9E7184695E76746D1E781460B
:100EE0007CE702382C4447E7ACF1020C2B442FE797
:100EF000384608E73746E9E6704700BF00000000C3
:100F000001F0FF01102A2BDB10F0070F08D010F8BA
:100F1000013B013A8B422DD010F0070F42B3F6D1BE
:100F2000F0B441EA012141EA014122F007047FF0D7
:100F300000070023F0E80256083C85EA010586EA2E
:100F4000010685FA47F5A3FA87F586FA47F6A5FA6A
:100F500087F68EB9EED1F0BC01F0FF0102F0070276
:100F600032B110F8013B013A83EA010313B1F8D121
:100F70000020704701387047002D06BF3546033802
:100F8000073815F0010F07D1013015F4807F02BF3B
:100F9000013015F4C03F0130F0BC0138704700BF8C
:100FA0007047043870477047C0680368DB6A1847A9
:100FB000A0F10400FFF7F8BFC06803681B6B184777
:100FC000A0F10400FFF7F8BFC06803685B6B184727
:100FD000A0F10400FFF7F8BFC06803689B6B1847D7
:100FE000A0F10400FFF7F8BF10B50446102121F06E
:100FF00025F9204610BDA0F10400F5E70022C160EC
:101000008260044A10B502F1080430320460426084
:1010100010BD00BF1C450290704770477047704775
:10102000034B10B50446036000F0B5FA204610BD2E
:101030007445029010B50446FFF7F2FF4FF43B7180
:10104000204621F0FBF8204610BD000010B50446F4
:1010500000F058FB014B2046236010BD7445029000
:1010600000F09ABA13B502AB0446074A00F52F7098
:1010700043F8041D082112F08BFC04F1C4000FF0AA
:1010800062FF02B010BD00BF6445029013B502AB11
:101090000446074A00F5337043F8041D082112F096
:1010A00077FC04F588700FF04EFF02B010BD00BF52
:1010B0006445029013B502AB0446074A00F5377049
:1010C00043F8041D082112F063FC04F5AE700FF024
:1010D0003AFF02B010BD00BF6445029000F5D47025
:1010E00008F0F8BD084900224160084902608160AB
:1010F00007490262C160642110B5002401614261A8
:101100008461C16110BD00BF000028410000D040D3
:1011100000401C46000000002DE9F0432DED068B39
:101120009FEDAF8A002385B00446B0EE489A4FF495
:101130007A76B0EE48AA9846F0EE488AA94D039315
:101140000122052369462846CDF80080CDE9012318
:1011500005F0EAFB08B102F08DFB284605F0EEFA37
:101160000A21284605F087FB284605F0D9FB09EE41
:10117000900A284605F060FBF8EE699AF7EE007ACF
:101180000823694628463AEE29AA009338EE278AB2
:1011900005F0CAFB08B102F06DFB2846013E05F0E0
:1011A000CDFA0A212846B6B205F065FB284605F0BF
:1011B000B7FB07462846BFB205F03EFB07EE907A24
:1011C000F8EEE77A39EE279A002EB9D11420DFED38
:1011D000869A02F043FE6369013363616369012B00
:1011E00040F3B980B5EEC08A804BA361F1EE10FAEE
:1011F00040F3B18018EE100AFFF76EF902460B4675
:101200007B4822F0EDFCC9EE087A17EE900AFFF752
:1012100063F98046894602460B46764822F0E0FC98
:101220004046494664A3D3E90023FFF7ADF9FFF731
:1012300045FC09EE100AFFF74FF902460B466E48CF
:1012400022F0CEFCCAEE087A9FED6C7AF0EE686A66
:1012500067EE877A9FED6A7AE7EE876ADFED697A53
:101260009FED697A39EE679AC9EE077A9FED677A42
:10127000C4ED016A77EE877A9FED657A67EE877A2B
:101280009FED647A87EE878AD4ED067A38EE698A14
:1012900068EE277A84ED028A17EE900AFFF71CF9B0
:1012A00047A3D3E90023FFF799FAFFF707FCD4ED32
:1012B000037A07EE100A18EE100A77EE877AC4ED6B
:1012C000037AFFF709F902460B46534822F088FCDF
:1012D000D4ED037AC4ED068AF5EEC07ADFED4F7ADD
:1012E00066616068F1EE10FA48BFC4ED038A94EDC0
:1012F000037AB4EEE77AF1EE10FAC8BFC4ED037AD0
:10130000FFF7EAF830A3D3E90023FFF7AFFB08B1FA
:10131000C4ED018AA0684FF00105FFF7DDF806462D
:101320000F462BA3D3E90023FFF7BEFB00B9054608
:1013300015F0FF0F0FD0304639464FF0010526A3B8
:10134000D3E90023FFF792FB00B9054615F0FF0F24
:1013500018BFC4ED028A94ED037ADFED317ADFED38
:10136000316A37EE677ADFED307A304827EE277A38
:10137000C7EE267A77EEA97AFDEEE77AC4ED047A15
:1013800022F0A2FC2068616803689B689847206887
:10139000A1680368DB6898472068E16803681B69F7
:1013A00098472068216903685B69984705B0BDECE0
:1013B000068BBDE8F08300BF89955889957E4A3F2A
:1013C000CDCCCCCCCCCC0C409A9999999999C93F69
:1013D000333333333333C3BF333333333333C33F25
:1013E00000000000442F01200000C842CDCC4C3E3C
:1013F000B0450290BF450290D2450290295C6242FE
:1014000000008039A69BD43FCDCCCC3C00004842A4
:101410009A5948430000CA42EA45029000401C46DF
:1014200000541C4600501CC60000C6C2F94502907C
:10143000704700F598730868496803C370477047A0
:1014400000F096BB10B504464FF4AE7120F0F6FEE6
:10145000204610BD10B50446D0F85801FFF75CFED9
:101460002046BDE810400EF047BD10B50446D0F848
:10147000400158B10368DB68984738B1D4F840019F
:1014800003689B6898470023C4F8403110BD0000F2
:1014900010B5044600F034FB014B2046236010BD1C
:1014A0001446029090F8252012B103685B69184732
:1014B00070470020704781807047C180704701816C
:1014C0007047418170477047704770477047704759
:1014D000C388D21A8388C91A036812B209B210B439
:1014E0005DF8044B5B6D18474FF6FF7383814FF037
:1014F000FF3303621368C3611060704790F82520C2
:101500001AB190F8242002B11860704770477047F4
:10151000704730B585B00368044601816D460146C9
:10152000D3F884303C342846984795E8070084E88F
:10153000070005B030BD30B585B003680446418171
:101540006D460146D3F884303C342846984795E8E8
:10155000070084E8070005B030BD00220280428009
:101560008280C280704780F83610704770B503687B
:10157000044615461B6B98472368294620465B6E38
:10158000BDE8704018470020704708B5FFF78AFF94
:1015900008BD806C704770477047704710B50446AF
:1015A000082120F04BFE204610BD10B504464C210A
:1015B00020F044FE204610BD10B504464FF43B71A8
:1015C00020F03CFE204610BD70B5036804468DB285
:1015D0005E6B114B1B682BB9104B6C21104A1148E4
:1015E00021F00AFF1049828D0988914203D80F4BE0
:1015F0006D210B4AF3E713F812200D4B1B6853F8CB
:10160000220003681B6B9847291A3346204609B20B
:10161000BDE87040184700BF5425012003470290E1
:10162000F8470290454702905825012086470290CE
:101630005C25012000224FF0FF318260C0E90021CB
:10164000704700000A4A026000228280C280028144
:1016500042818281C28102824282C26102844284CA
:1016600080F82420C0E90522012280F82520704757
:10167000205D029070B50368044615461B6B9847C1
:101680002368294620465B6BBDE87040184770B55B
:1016900004461E46BDF91050FFF7ECFF23683146A3
:1016A00020469A6B9047236829462046DB6BBDE8AD
:1016B0007040184710B504462622002121F017FF7C
:1016C0002046FFF7BFFF4FF6FF720C4B4FF47F0130
:1016D000A2852046A3620023A4F84020A4F842205B
:1016E000074A84F8383084F83930A387E387636485
:1016F0002260A364C4E90C3110BD00BF68460290AB
:10170000784602902DE9F04F04468DB0002510F088
:101710009DFAA146C44B26222946E56304F16C0AD2
:1017200049F8403B484621F0E2FE4846FFF78AFF71
:10173000BE4B0CAE4FF6FF772364FF2304F19808ED
:1017400026F8087D84F8663031465046A5660BF0D1
:1017500099FB262229464046ADF8287021F0C7FEA5
:10176000404604F5D47BFFF76DFFB14B84F8C070A1
:1017700004F1C407C4F898303146BDF8283040461B
:10178000A4F8BE300BF00BFF3846FFF793FF04F5CB
:10179000887318460393FFF78DFF04F5AE73184660
:1017A0000493FFF787FF584608F0FEFA4FF488735A
:1017B0002A464846009329464FF4F073FFF767FF27
:1017C0004FF07F4349460DF11809A366231D1846C3
:1017D000059308F0F3FC50463146ADF828500BF065
:1017E000DEFE4FF488732A465046009329464FF494
:1017F000F073FFF74CFF504629460BF0FEFA5146B6
:10180000201DDFF850A208F0D9FC432240460D21EC
:10181000FFF730FF4FF0010340463146ADF8283066
:101820000BF0BDFE4146201D84F8BD5004F52F7815
:1018300008F0C4FC2C221C213846FFF71BFF4FF098
:10184000FF33A4F8F8503946C4F8F4304846D4F8C9
:10185000C430D3F88430984704F5807399E80700C2
:1018600083E80700DAF800302BB9724B6021724A26
:10187000724821F0C1FD724B1B88052B03D8714BB8
:1018800061216D4AF4E7704B0521186800F062FC95
:101890006E4A03460821404611F07CFE3846C4F8E3
:1018A0000C810BF095FDDFF8B081062338463146F8
:1018B000CDF82880ADF82C300BF0AAFD3946201D5C
:1018C00008F07CFC702218210398FFF7D3FE4FF03C
:1018D000FF32D4F810314846C4F8402104F533777C
:1018E000A4F844510399D3F88430984704F5A673BB
:1018F00099E8070083E80700DAF80030002BB4D03D
:101900004F4A1388032BBAD94F4B0321186800F0B4
:1019100021FC4E4A03460821384611F03BFEC4F82C
:101920005871039804F537770BF052FD04233146C4
:101930000398ADF82C30CDF828800BF069FD0399A1
:10194000201D08F03BFCA92218210498FFF792FE05
:101950004FF0FF31D4F85C314846C4F88C11A4F83C
:1019600090510499D3F88430984704F5CC7399E8E2
:10197000070083E80700DAF80030002B3FF475AF6A
:101980002F4A1388012B7FF67AAF2F4B012118685D
:1019900000F0E0FB2D4A03460821384611F0FAFD1D
:1019A000C4F8A471049802270BF012FD3146049884
:1019B000CDF82880ADF82C700BF02AFD0499201D7D
:1019C00008F0FCFB5846D7221821FFF753FE1E23D0
:1019D00058460A2200930C21962308F0C7F92B469B
:1019E000642229465846009508F040FA584618499E
:1019F00008F03FF931465846CDF82880ADF82C5014
:101A000008F05CF931465846ADF8287008F069FBDB
:101A100058463C2108F05EF9201D594608F0CEFBDF
:101A200020460DB0BDE8F08FCC470290E85B0290F5
:101A3000505C029003470290334802904547029061
:101A4000582501208647029060250120004702901A
:101A5000371B0CFF542501206846029070477047E1
:101A600070474160704770470123037270477047A9
:101A7000704710B4C468034641686210E4079B686D
:101A800001EB020048BF8A585DF8044B48BFD358A9
:101A9000184743682BB183682BB9C06800F0010078
:101AA0007047184670470120704710B504460C2156
:101AB00020F0C4FB204610BD10B504464FF4AE71B3
:101AC00020F0BCFB204610BD10B50446102120F0CC
:101AD000B5FB204610BD10B50EF072F90368BDE8E5
:101AE0001040DB6B18470000044B1B6893F858202C
:101AF0000AB1D86C00B99868704700BFFC24012077
:101B0000F8B5044617460E460EF06AFA144B002547
:101B1000C4F854711C602946124BC4F83C51236030
:101B2000114BC4F84051C4F84431104BC4F848512B
:101B30001868C4F84C51C4F85051C4F8586103688F
:101B40009B689847284600F0CBFAFFF7CDFF18F0C6
:101B5000A4F9FFF7C9FF18F01BFA2046F8BD00BF33
:101B6000502501208C48029074480290FC240120EA
:101B7000064BC0F84801C0F84C310023C0F8503182
:101B800000F5A273C0F84031704700BFD11C00902F
:101B90002DE9F04707469068994688460368154640
:101BA000DDF820A01B6A9847B0F53B7F05D2424B79
:101BB000A321424A424821F01FFC686803681B6A5F
:101BC00098470F2803D83F4BA4213C4AF2E7E86826
:101BD00003681B6A98470B2803D83B4BA521374A5B
:101BE000E8E70EF0EDF804300EF028F9D9F800001F
:101BF00010B10368DB689847D9F8000010B103689A
:101C00001B689847386810B103685B699847D8F833
:101C1000000010B103685B689847386810B103682A
:101C20001B689847D8F8000010B103689B68984774
:101C3000E868002103685B6A9847044620B10023E6
:101C400043600372214B0360A868002103685B6A4C
:101C50009847064608B1FFF7F9F96868002103685C
:101C60005B6A9847054610B13146FFF7C7F9C9F8D6
:101C70000040C8F800503E60E5B12B1DCAF80030A6
:101C80003046C5F808A03368F563DB6898472B68D1
:101C900028461B6898472146304610F083F9236890
:101CA00020461B699847236820465B699847284669
:101CB000BDE8F0872B46E1E7FC480290114B02900B
:101CC0008A490290CB4902906E4A0290E048029005
:101CD00007B5D0F8583100F59E710093044BD0F849
:101CE00054210448FFF754FF03B05DF804FB00BF24
:101CF000442501204025012013B5002249B102AB43
:101D0000019203F8052D0268946801AAA04702B069
:101D100010BD0846FBE7C0897047008A7047C0883D
:101D2000704780887047807A00F07F007047807A23
:101D3000C00970470020704700207047406A704714
:101D4000806A704770478B88C069DB0A0A6850F860
:101D500023001044704710B5C2B1137BB3B1547B5C
:101D6000D27A240204F4E0641443026A98B202EBCB
:101D7000840213888B4202D192F9020010BD05D86B
:101D80000138043280B20028F3D1F7E70020F5E7EC
:101D900010B504462C2120F051FA204610BD000059
:101DA00030B58BB00446BDF860500895BDF85C5066
:101DB00007959DF8505006959DF84C5005959DF857
:101DC000485004959DF8445003959DF84050029565
:101DD0009DF83C500195BDF8385000950FF08EFCF1
:101DE000064B20462360159BE361169B2362199BDB
:101DF00063621A9BA3620BB030BD00BF204C0290FF
:101E000030B5174D8FB02C78BFF35B8F14F0010401
:101E100022D1284620F0EAF9F0B13F2301221149EE
:101E20000993114B0A940893104B05941048CDE97F
:101E300006430423CDE903320A23CDE90B44009382
:101E4000CDE90144FFF7ACFF284620F0DBF9094A51
:101E50000949074820F0EDF905480FB030BD00BF33
:101E60004C010020F81B1090306602902C66029006
:101E70005001002000000020451D009010B50024F6
:101E800004600C6014601C6010BD000030B5174D7C
:101E90008FB02C78BFF35B8F14F0010422D1284659
:101EA00020F0A4F9F0B13F23012211490993114B0D
:101EB0000A940893104B05941048CDE90643042377
:101EC000CDE903322823CDE90B440093CDE9014449
:101ED000FFF766FF284620F095F9094A09490748A7
:101EE00020F0A7F905480FB030BD00BF7C010020ED
:101EF000201C109028660290D86702908001002074
:101F000000000020451D009030B5184D8FB02C7892
:101F1000BFF35B8F14F0010424D1284620F066F94A
:101F200000B33F235F2212490993124B0A9408938E
:101F3000114B01940793012310480493CDE9053315
:101F40000423CDE902431423CDE90B440093182365
:101F5000FFF726FF284620F055F9094A09490748A6
:101F600020F067F905480FB030BD00BFAC0100207C
:101F7000301C109034660290DC670290B0010020A3
:101F800000000020451D0090704710B50446042154
:101F900020F054F9204610BD012908B508D003D31C
:101FA000022909D0002002E000F012F8006808BD04
:101FB00000F00EF84068FAE700F00AF88068F6E7EB
:101FC00000487047944C02900320704707207047E8
:101FD00000487047DC01002010B5054CFFF794FF66
:101FE0002060FFF753FF6060FFF70AFFA06010BD9D
:101FF000DC01002000207047002070470EB403B5BC
:1020000003AB002153F8042B01930EF071FE02B0D4
:102010005DF804EB03B070470CB407B504AB53F89C
:10202000042B01930EF064FE03B05DF804EB02B0E4
:102030007047000010B5436C044673B3038F2BB98F
:10204000184BC521184A194821F0D6F9C38E00EB68
:1020500043035B8C0BB310F0E9FC238F012B03D8F7
:10206000134BCB21134AEEE7E28E40F63F10531C90
:102070009BB2092B194688BFA3F10A0104EB410169
:10208000498C814209D10A2B04EB420228BF00236C
:10209000508C04EB4303588451842046BDE8104023
:1020A00010F0C6BBD04C0290FD4D0290D94C02906E
:1020B0001D4D02902B4D029010F083BB10B586B0E1
:1020C00002AC84E806001A460AAB21460593019348
:1020D000099B0093089B0DF0F5F906B010BD0000B8
:1020E00038B5D8B9114B12481B681249BBB11A68F0
:1020F0009C681A441C4402605A681A440A606CB115
:102100000D4B00221A80FFF763FF0546FFF75EFFC5
:102110000A4B1C600A4B1D600A4B188038BD0A4BE5
:1021200003600A4B0B600A4B1C68E8E7E8010020DB
:10213000EC010020F0010020F401002054250120D2
:102140005C250120582501209421109064211090D5
:1021500090211090044B1B6853F82100034B1B681F
:1021600003EB4000704700BFF0010020EC010020AD
:10217000012380F8781080F879307047002070478C
:1021800041640031024B18BF01211970704700BF34
:10219000FB24012000207047836B0BB108461847D1
:1021A00070474FF6FF707047406803689B69184797
:1021B00000207047B1F904308380012070477047D8
:1021C00080F82610704790F82600704710B500225E
:1021D000B1F90840B1F90A10028042808480C180C0
:1021E00010BD0022028042808280C2807047017749
:1021F00070470162704780F82410704780F82510FE
:10220000704701207047983070478C307047843099
:1022100070470000034B902283F85A2383F8582319
:10222000704700BF00E100E0094A0A49D3680A4844
:10223000C3F30A03013B9BB20B801169C1F30A018E
:10224000013901801364536B43F0010353637047FA
:1022500000680140FE010020FC010020014B986A4B
:10226000704700BF84680140024B0122996243F825
:10227000602C704784680140144AF0B55369DB0351
:1022800023D50023C2F88430BFF34F8FD2F88030BB
:1022900043F6E076C3F3C904C3F34E33A5075B01ED
:1022A00003EA060C284621464CEA0007013900F1F2
:1022B0004040C2F874724F1CF6D1203B13F1200F3E
:1022C000EED1BFF34F8FBFF36F8FF0BD00ED00E095
:1022D0007047704710B504462C211FF0AFFF204611
:1022E00010BD10B50446BC211FF0A8FF204610BD4C
:1022F00010B531B90A4B40F2D2210A4A0A4821F0FE
:102300007BF8C0E90F120032084918BF01220A7099
:1023100019460268BDE81040D2F88C20104700BF73
:10232000A95002909C510290E1500290FA240120A1
:1023300008B5094B1B888B4203D8084B1B88934276
:1023400005D9074B9E21074A074821F055F8074B4E
:102350001980074B1A8008BDF0240120F2240120C7
:102360004650029059510290E1500290F62401200B
:10237000F824012070B5044608F009FA23685D6E60
:102380000DF01EFD01462046A84723682046054A59
:10239000D3F888504FF040410023AC46BDE8704070
:1023A000604700BF00FC03C008F0D8B908F0E2B9EC
:1023B00008F09EB908F0FFBA10B5044608F026FFF1
:1023C00023682046D3F8AC30BDE81040184790F899
:1023D0007A301BB1406803681B681847184670477D
:1023E00010B590F8784090F834100C4B8C421A7865
:1023F00009D03AB90A490B4A08881488108001228A
:102400000C801A7010BD002AFCD0064A04491488BA
:1024100008880C8010800022F3E700BFF42401201C
:10242000F2240120F0240120034B4FF080629A60D7
:102430004FF080729A60704700E100E0084B4FF067
:102440008062C3F88820BFF34F8FBFF36F8F4FF0C8
:102450008072C3F88820BFF34F8FBFF36F8F704730
:1024600000E100E0002370B583800646104B114D5B
:1024700003602A6892F8581009B1D06C00B99068CE
:102480000368DB6A98472B68B0FA80F4D86C64095B
:1024900028B10368DB6A9847002808BF01242CB9DB
:1024A000054B2C21054A064820F0A6FF304670BD9A
:1024B000B04E0290FC2401208C4F029020510290DB
:1024C000EA4F029070B5294E3578BFF35B8F15F057
:1024D000010548D130461FF089FE002843D0244C26
:1024E000244B04F134002561E58425856585A585A7
:1024F000C4E90035C4E902550FF02FF804F1580083
:102500000AF058FC1C4B2046A3651C4B40F8843B4A
:10251000FFF7A8FF1A4B3046C4F89050C4F8843037
:102520002433C4F89C50C4F88C306423C4F8A450FD
:10253000A4F8A030002384F8A850C4F8AC30C4F844
:10254000B030C4F8B430C4F8B8300E4B84F8A95099
:1025500084F8AA50C4F898301FF054FE0A4A204666
:102560000A491FF066FE024870BD00BFF801002056
:1025700000020020B05A0290D04E0290484F0290C4
:10258000645A0290445A029000000020D122009028
:1025900010B5144C236823B3134B144A1B6C1188D9
:1025A0008B4213D1124B198802F0FEF9226892F87F
:1025B0006A30013382F86A3000F036FA206808F099
:1025C00025FE0020BDE8104000F0CCBC02F0ECF984
:1025D000206803681B6A98470020BDE8104000F09F
:1025E000F1BC10BDFC24012000680140FE01002068
:1025F000FC01002003685B6C1847012070470368EA
:102600009B6A18470D4B82B01A6B42F400021A63A2
:102610001A6B02F400020192019A1A6942F4000254
:102620001A611A6922F400021A61054B054A1A61FF
:102630004FF08062044B9A6002B07047003802404D
:10264000403001205526009000E100E040F2EF30DC
:1026500070470000024B1B68586803685B691847A5
:10266000FC24012008B50B280BD8DFE800F0120687
:10267000100A0A0A0A0808080808012008BD0520EF
:10268000FCE7054B6521054A054820F0B5FE002012
:10269000F4E70220F2E700BF04520290D652029003
:1026A0001F52029008B50A2809D8DFE800F010068A
:1026B0000E080808080606060600012008BD054B9E
:1026C0008621054A054820F097FE0020F6E7022003
:1026D000F4E700BF04520290205302901F52029070
:1026E000F8B50C46487FFFF7BDFF0546A77F384683
:1026F000FFF7B8FF06463846FFF7D4FFA38A628B80
:10270000D21A494B1A64A18A628B521A9A61A18A21
:10271000228B521A1A615863A18AE28A42EA014264
:102720005A642269DA636268DA602268402A70D0EB
:1027300010D8042A3BD0202A6BD0237F45EA0365BA
:10274000394B45F40035DD61617FA27F914267D04E
:10275000364A4BE0B2F5807F1BD0B2F5007F23D024
:10276000802AEAD1A068021DDA62227F45EA02656A
:1027700045F40035DD615E6222695A610278EAB192
:10278000012A35D02A4B4FF488712A4A2A4820F072
:1027900033FE217F294A42EA0162DA61E2681A6265
:1027A0005E6222695A6120E0217F254AF3E7227F99
:1027B00045EA026545F40035DD61F1E7D9694288F3
:1027C000501E21F47F42012122F0100242EA002231
:1027D000DA61154BDA6942F02002DA61DA699206B1
:1027E000FCD410229A600029B2D0164A1A60F8BDB3
:1027F000DA69408822F47F42217F013822F01002FA
:10280000FF3942F0100218BF012142EA0022DA61CA
:10281000DFE7237F45EA0365034B45F40035CBE74B
:1028200040F20122E2E700BF00B0024001020100D5
:10283000EA510290985202901F5202900A00020040
:10284000090002000102020010B5887F0C46FFF764
:1028500029FF1C4B5863A18AE28A42EA01425A646A
:102860002269DA63628BA18A521A1A642268082AE2
:1028700016D1A18A628B521A9A61A18A628B521A6E
:102880001A615862104A217F42EA0162DA61E26805
:102890001A6222695A612269DA600C4A1A6010BD14
:1028A0000022D8611A61E1680A0A4809C1F3C4012B
:1028B00002F4784200F4FC6002430A439A63044A3B
:1028C000ECE700BF00B00240090001000102020075
:1028D00001020300054B4FF080620360044BC3F814
:1028E0008820BFF34F8FBFF36F8F70475052029015
:1028F00000E100E010B50446FFF7ECFF4FF45A6129
:1029000020461FF09BFC204610BD000070B5054618
:102910000A4B0C3000262C46602268602E726E72C4
:1029200044F8203B214608F0E1FD05F55A63E660D6
:102930002434A342FBD1284670BD00BF5052029000
:10294000034B1A68D207FCD423229A60704700BF59
:1029500000B0024030B5104C2568ED07FCD42325AB
:102960000904FF2BA56041F001014FF002056563EA
:102970006164E0630AD00949656241EA0363E36187
:10298000074B22626061E060236030BDE561039B1C
:10299000A363044BF8E700BF00B002400900010048
:1029A00001000200010003000121002208B50846D1
:1029B00006F012F80A4B186028B90A4B28210A4A77
:1029C0000A4820F019FD00220421012006F0CEF86B
:1029D000074B186018B9074B2C21034AF0E708BDD4
:1029E000C00200206B5302901F540290B453029017
:1029F000BC020020DD530290024B4FF0FF311868FB
:102A000006F040B8C0020020014B186806F076B806
:102A1000C0020020024B0021186806F033B800BF46
:102A2000C0020020FFF7F0BF0023034803491A4605
:102A3000006806F0E1B800BFBC02002004000020DE
:102A400013B50023074C01A91A46206806F016F9B1
:102A50004FF0FF33002201A9206806F00FF902B001
:102A600010BD00BFBC020020704770477047704720
:102A7000012070470C2070470C2303FB0100083035
:102A800070470C2303FB010008307047012070479A
:102A90004FF43B7070474FF43B7303FB0100083069
:102AA00070474FF43B7303FB01000830704701206F
:102AB00070471020704700EB01100830704700EBA2
:102AC0000110083070470846FFF752B8034B10B5A5
:102AD0000446036007F0B4F8204610BDC0540290CD
:102AE00010B50446FFF7F2FF142120461FF0A6FBA5
:102AF000204610BD034B10B50446036007F0A0F854
:102B0000204610BD8C54029010B50446FFF7F2FF2A
:102B10004FF43D7120461FF091FB204610BD000090
:102B2000034B10B50446036007F08AF8204610BD39
:102B30005854029010B50446FFF7F2FF18212046C2
:102B40001FF07CFB204610BD084B10B50446036007
:102B500000F54870FFF7BAFF04F12C00FFF7CAFF39
:102B600004F11400FFF7DCFF204610BDF45402907E
:102B700010B50446FFF7E8FF40F2B44120461FF0CD
:102B80005DFB204610BD00002DE9F341FFF718FA68
:102B900000240546FFF718FA234601462246284638
:102BA000009410F097FF284B284A2046284D1A60C1
:102BB000FFF796FA274B284A28489A6010F0F2FE51
:102BC0002B78BFF35B8FDB0738D428461FF00EFB52
:102BD000002833D0224C234B04F5567604F1140020
:102BE00004F12C0804F548776060C4F80880E760B9
:102BF0002661236007F026F81B4B4046636107F00F
:102C000021F81A4B3846E36207F01CF8184B04F51C
:102C10004D70C4F82033FEF765FA224604F54D7175
:102C20003046FEF735FC3046FEF7A2FF28461FF07F
:102C3000E9FA104A104920461FF0FBFA0F4802B08B
:102C4000BDE8F04100F0EEB860250120B815002085
:102C5000C4020020BC1500207C07002008000020D2
:102C6000C8020020F4540290585402908C540290F0
:102C7000C054029000000020492B00903C15002019
:102C800070470000014800F0E7B800BF3C15002085
:102C900010B5044604211FF0D1FA204610BD10B52E
:102CA000044688211FF0CAFA204610BD10B504461C
:102CB0001C211FF0C3FA204610BD10B504467C212C
:102CC0001FF0BCFA204610BD2DE9F0413E4C3F4DAF
:102CD0003F4B22463F4F28463F492B601FF0A9FA41
:102CE0003E4E3846FFF712FE22463D4938461FF059
:102CF000A0FADFF82881304615F09EFA22463949BD
:102D000030461FF096FA40460EF0CAF92246364980
:102D100040461FF08EFA2246344935481FF089FAA2
:102D20003448002301223449C560038580F82A30E5
:102D3000C362038680F8483080F8492080F84A3022
:102D400080F84B30436580F858304366816680F8E0
:102D50006C3080F86D3080F86E302849C0E901761B
:102D6000C0E90433C0E90633C0E90833C0E90E33D3
:102D7000C0E91033C0E91333C0E9173380F86F306E
:102D800080F87A2080F87B201D4A80F8703010602F
:102D90004FF4F07243670A801A4980F878300A804D
:102DA0004FF48872184980F879300A80174980F802
:102DB00034300A80164A174913702246164B0360B6
:102DC000BDE8F0411FF035BA000000209807002050
:102DD0002C5602909C070020692A0090BC15002008
:102DE000D52800906B2A00906D2A0090891F0090D2
:102DF000080000203C15002001000001F024012003
:102E0000FC240120F6240120F2240120F8240120D2
:102E1000F42401206F2A0090085502907C070020BE
:102E20007047000038B50446FFF7A4FA0849236844
:102E30002046084DD3F88C3098470023284684F864
:102E40004A3000F06FF90123256184F8703038BDF5
:102E500000F807C04416002008B503680446D3F8FC
:102E600080309847236820469B6F9847FFF7E8FD1E
:102E7000236820461B6F98474FF48051064803F0A3
:102E80009CFB0821054803F098FBFFF7D9FD236858
:102E900020461B6F9847F8E70020024000280240B8
:102EA000FFF7DCB9FFF7E0B9F8B5FFF781FA134A8D
:102EB0000023C2F88430BFF34F8FD2F8803043F63E
:102EC000E076C3F3C904C3F34E33A5075B0103EAFD
:102ED000060C284621464CEA0007013900F1404023
:102EE000C2F874724F1CF6D1203B13F1200FEED1C3
:102EF000BFF34F8FBFF36F8FF8BD00BF00ED00E051
:102F0000FFF788B9FFF790BAFFF798BAFFF78CB9C7
:102F100007F0E8BB08B5054B01461B6800B101216D
:102F2000184608F08DF9012008BD00BFFC240120DF
:102F300010B504460C211FF081F9204610BD000099
:102F400004480023044A43608360044B044903603F
:102F50001FF06FB944160020000000207056029048
:102F6000212E0090032823D8DFE800F0020B131A6B
:102F7000104B102110481A68B2FA82F2520903F07D
:102F800017BB0C4B40215A68B2FA82F252090B4827
:102F9000F5E7084B80219A68B2FA82F25209F6E707
:102FA000044B40210648DA68B2FA82F25209E6E799
:102FB000704700BF50160020000402400008024085
:102FC00000180240032823D8DFE800F0020B131A90
:102FD000104B102110481A68003218BF012203F06C
:102FE000E7BA0C4B40215A68003218BF01220B4847
:102FF000F5E7084B80219A68003218BF0122F6E7F6
:10300000044B40210648DA68003218BF0122E6E787
:10301000704700BF50160020000402400008024024
:103020000018024003280FD8DFE800F00206090B61
:103030001021064803F0C1BA40210548FAE7802173
:10304000FBE740210348F5E7704700BF000402405A
:10305000000802400018024008B5032813D8DFE832
:1030600000F0020A0D0F1021084803F09BFA431EDE
:103070005842584108BD40210548F6E78021FBE74A
:1030800040210448F1E70020F1E700BF00040240BE
:10309000000802400018024070B50024074D0126C8
:1030A000E0B2FFF7D9FF28B155F82430012B18BF43
:1030B00045F824600134052CF2D170BD5016002073
:1030C00030B58DB00D46144600212C2201A820F009
:1030D0000EFA01A806F08EFB9DF8040030B1BDF891
:1030E000063001202B60BDF8103023600DB030BDDC
:1030F00008B54FF488714FF4F07006F023FB28B147
:10310000034B2021034A044820F076F908BD00BF94
:10311000D85502903C560290F9550290406870478D
:1031200041607047094A136843F080731360A2F549
:103130004E42074B4C3A11680B431360A2F57B6279
:10314000136843F001031360704700BFFCED00E01B
:1031500055CEACC5521A02EB5302B2FBF3F07047E6
:10316000014B1868704700BF041000E010B50368F9
:1031700004461B6931B19847A26863689B1A1844DA
:10318000606010BD9847A060FBE700001449002074
:10319000D1F8883043F47003C1F88830114B1A68B5
:1031A00042F001021A6098601A6822F0847222F4D8
:1031B00080321A600C4A5A601A6822F480221A601F
:1031C000D8609A6B42F001029A634FF02042136874
:1031D00023F0010313604FF010438B60704700BF72
:1031E00000ED00E0003802401030002408B56420F3
:1031F00005F0D8FBFBE7000010B594B030220021A9
:10320000022408A820F073F91422002103A820F05A
:103210006EF902F075FC224B052119201A6F22F07D
:1032200018021A671A6C42F080521A641B6C03F081
:1032300080530193019B1B4B1A6842F440421A6071
:103240001B6803F440430293029B4FF48033CDE9A3
:10325000081301230A934FF48003CDE90E434FF482
:10326000D873CDE9100308A8CDE9124401F0F4FBAE
:1032700000B1FEE701F0B8FB00B1FEE70F234FF409
:10328000A0520590072103A8CDE903344FF48053E1
:10329000CDE9062301F0C2FD00B1FEE714B010BD78
:1032A000003802400070004080B59AB01022002122
:1032B00001240DA81C2620F01AF9032502F006FFB0
:1032C0004FF0005CBA4B0DA8ADF8344040F2011746
:1032D000CDE90EC3B74B109302F01AFF8DF83540BD
:1032E0004FF0404300240DA80E938DF83C608DF8FC
:1032F0003F40ADF8424002F00BFF02230DA88DF8CD
:103300003F508DF835301623ADF842708DF83C30C3
:1033100002F0FEFE4FF010430DA88DF83C6004262D
:103320000E938DF835508DF83F40ADF8424002F0D5
:10333000EFFE17230DA88DF835608DF83C308DF821
:103340003F50ADF8427002F0E3FE05230DA88DF862
:1033500040408DF8353013238DF83C3002F0D8FE14
:10336000304602F0C3FEBFF34F8FBFF36F8F924B17
:10337000C3F85042BFF34F8FBFF36F8F5A6942F4C7
:1033800000325A61BFF34F8FBFF36F8FC3F8844091
:10339000BFF34F8FD3F8802043F6E076C2F3C90421
:1033A000C2F34E32A507520102EA060C2846214616
:1033B00040EA0C07013900F14040C3F860724F1C2D
:1033C000F6D1203A12F1200FEED1BFF34F8F5A6998
:1033D00042F480325A61BFF34F8FBFF36F8F00F01A
:1033E00019FD0024FFF708FF142200210DA820F08A
:1033F0007EF8724B102172481A6B4FF010080125AD
:103400004FF0030942F01002082702264FF0400A4D
:103410001A631A6B02F010020292029A1A6B42F0BF
:1034200002021A631A6B02F002020392039A1A6BE9
:1034300042F040021A631A6B02F040020492049AAE
:103440001A6B42F400721A631A6B02F4007205924E
:10345000059A1A6B42F008021A631A6B02F008020E
:103460000692069A1A6B42F480621A631A6B02F48F
:1034700080620792079A1A6B42F020021A631A6B55
:1034800002F020020892089A1A6B42F480721A63C2
:103490001A6B02F480720992099A1A6B42F00402C4
:1034A0001A631A6B02F004020A920A9A1A6B42F02B
:1034B00001021A631A6B02F001020B920B9A1A6B4B
:1034C00042F080021A6300221B6B03F080030C930E
:1034D0000C9B03F06DF8002208213A4803F068F8CD
:1034E00000224FF48051384803F062F80022C021D6
:1034F000364803F05DF800224021354803F058F8C3
:103500000DA92F48CDE90D85CDE90F4902F0C8FE80
:103510000DA92C48CDE90D75CDE90F4402F0C0FE90
:103520004FF480530DA92848CDE90D35CDE90F445E
:1035300002F0B6FE4FF400630DA923480F96CDE9C3
:103540000D3402F0ADFEC0230DA92048CDE90D35A4
:10355000CDE90F4902F0A4FE0DA91D48CDE90DA546
:10356000CDE90F4902F09CFE1A481B4B0DA984605F
:10357000C0F814A08462CDF84C80C0E90034042364
:10358000C0E903388023C0E90844C0E90634CDE926
:103590000D88CDE90F88CDE9118802F000FC00B15B
:1035A000FEE706F0B7F806F067F88146B0B1FEE72F
:1035B000120000030100010100ED00E000380240AC
:1035C000000402400028024000200240000802409F
:1035D0000018024080300120400100A03422014642
:1035E000894C4FF0350A0DEB02001FF080FF874B2E
:1035F0004FF0280E40F2152240F23521C4F8109009
:10360000A4F83490204684F83690C4E900390923A0
:10361000C4E905E30B23C4E907A340F21B13C4E983
:10362000092340F21D13C4E90299C4E90B1301F008
:10363000B5F8024600B1FEE74FF4F0710D904FF47B
:10364000806C4FF48873ADF8642018938DF8662071
:10365000CDE90E10FF20CDE912020520CDE916219B
:10366000CDE914C00DA92046CDE9103601F073F95B
:1036700000B1FEE7664B4FF4E132664C18615862C8
:10368000C3E900420C22C3E90200C3E90520C3E9F3
:103690000700184602F003FA814600B1FEE7014632
:1036A00042460DA85C4C1FF022FF4FF480335B496B
:1036B0002046C4F808902561A56184F82090C4F8DC
:1036C0002C90C4F80C90E66184F830906561C4E9F0
:1036D0000013534BA36202F079FF00B1FEE7CDE97E
:1036E0000D050F900DA9204603F01EF900B1FEE76D
:1036F0000DA92046CDE90D7603F016F900B1FEE7DD
:1037000048480126484B0662036000238380C0E9D5
:10371000053300F063FF00B1FEE7444C444BC4E9BD
:103720000200C4E90030C4E90A00C4E90C002046E4
:1037300000F0A6FB00B1FEE73146204600F060FC39
:10374000054600B1FEE7142201460DA8394C1FF0D2
:10375000CEFE394B7F2220460195A561C4E9003594
:10376000FF23C4E90455C4E9022302F01FFA00B1A3
:10377000FEE7ADF8340032468DF836000DA9CDE9EC
:103780001000204602F06AFA00B1FEE71AA92B4B9E
:103790003246204641F8643D02F0BAFA00B1FEE735
:1037A000274942F2100332460B803023C1E903005F
:1037B0008B70204602F052FA054600B1FEE721491F
:1037C0000223324620460B7003234B7009238B7073
:1037D0001823CB7002F09CFA03F032FB03F02FFBAE
:1037E00005F050F8184A2946184805F085F8184B96
:1037F000184A29461860184805F07EF8174B1860DB
:1038000005F05AF8FEE700BF9C2E01200068014039
:10381000902F012000100140442F01200022014080
:103820000100000F642E01200030024040300120D2
:1038300000B00240183001200028004001010100C2
:10384000882E0120602E0120CC560290ED31009090
:103850005C2E0120A85602904F6E00908C2F012004
:103860000268034B9A4201D100F0E6BA704700BFEC
:1038700000100040FEE70000214B70B51A6C88B0C4
:10388000064642F0100201A903A81A641B6C03F05B
:1038900010030293029B01F083FB069B4BBB01F0DC
:1038A0005FFB184C184B236040F2E733E360174B83
:1038B000B0FBF3F001380023606020462361A36071
:1038C000A36103F069FA054680B9204603F006F9C2
:1038D000054658B9362002F0D7FB0F2E0DD82A46E0
:1038E0003146362002F09EFB094B1E60284608B088
:1038F00070BD01F035FB4000D3E70125F6E700BFBE
:1039000000380240B43001200010004040420F0057
:10391000140000200D4B82B00F216FF001001A6CD3
:1039200042F080521A641A6C02F080520092009A9F
:103930005A6C42F480425A6400225B6C03F4804368
:103940000193019B02B002F06DBB00BF0038024042
:1039500010B588B004461422002103A81FF0C7FD4B
:1039600022681A4B9A422ED103F58B33032403A904
:1039700017485A6C42F480625A645A6C02F48062AE
:103980000092009A1A6B42F020021A631A6B02F03E
:1039900020020192019A1A6B42F001021A631B6B1A
:1039A00003F001030293029B4FF48063CDE90334DB
:1039B00002F076FC012303A90648CDE90334002375
:1039C000059302F06DFC08B010BD00BF002201405D
:1039D0000014024000000240026882B0084B9A4284
:1039E0000BD1D3F8302803F5006342F480521A63F8
:1039F0001B6B03F480530193019B02B0704700BF1F
:103A00000030024007B50E4B02689A4215D1A3F56B
:103A1000F04305215A201A6B42F400021A63002277
:103A20001B6B03F400030193019B02F0FBFA5A2085
